{
  "contractName": "ERC20Detailed",
  "abi": [
    {
      "constant": true,
      "inputs": [],
      "name": "name",
      "outputs": [
        {
          "internalType": "string",
          "name": "",
          "type": "string"
        }
      ],
      "payable": false,
      "stateMutability": "view",
      "type": "function"
    },
    {
      "constant": true,
      "inputs": [],
      "name": "symbol",
      "outputs": [
        {
          "internalType": "string",
          "name": "",
          "type": "string"
        }
      ],
      "payable": false,
      "stateMutability": "view",
      "type": "function"
    },
    {
      "constant": true,
      "inputs": [],
      "name": "decimals",
      "outputs": [
        {
          "internalType": "uint8",
          "name": "",
          "type": "uint8"
        }
      ],
      "payable": false,
      "stateMutability": "view",
      "type": "function"
    }
  ],
  "bytecode": "0x608060405234801561001057600080fd5b5061021e806100206000396000f3fe608060405234801561001057600080fd5b50600436106100415760003560e01c806306fdde0314610046578063313ce567146100c357806395d89b41146100e1575b600080fd5b61004e6100e9565b6040805160208082528351818301528351919283929083019185019080838360005b83811015610088578181015183820152602001610070565b50505050905090810190601f1680156100b55780820380516001836020036101000a031916815260200191505b509250505060405180910390f35b6100cb61017f565b6040805160ff9092168252519081900360200190f35b61004e610188565b60338054604080516020601f60026000196101006001881615020190951694909404938401819004810282018101909252828152606093909290918301828280156101755780601f1061014a57610100808354040283529160200191610175565b820191906000526020600020905b81548152906001019060200180831161015857829003601f168201915b5050505050905090565b60355460ff1690565b60348054604080516020601f60026000196101006001881615020190951694909404938401819004810282018101909252828152606093909290918301828280156101755780601f1061014a5761010080835404028352916020019161017556fea265627a7a723158201e94f014475e5bff06a6085204f57dd7716db4bb84cc3352f015f2d2a910358c64736f6c63430005110032",
  "source": "pragma solidity 0.5.17;\n\nimport \"../lib/IERC20.sol\";\nimport \"./Initializable.sol\";\n\ncontract ERC20Detailed is Initializable {\n    string private _name;\n    string private _symbol;\n    uint8 private _decimals;\n\n    function initialize( string memory name, string memory symbol, uint8  decimals) internal initializer {\n        _name = name;\n        _symbol = symbol;\n        _decimals = decimals;\n    }\n\n    function name() public view returns(string memory) {\n        return _name;\n    }\n\n    function symbol() public view returns(string memory) {\n        return _symbol;\n    }\n\n    function decimals() public view returns(uint8) {\n        return _decimals;\n    }\n\n    uint256[50] private ______gap;\n}",
  "sourcePath": "/Users/admin/dev/vamp/Vampire-protocol-contracts/contracts/lib/ERC20Detailed.sol",
  "compiler": {
    "name": "solc",
    "version": "0.5.17+commit.d19bba13.Emscripten.clang"
  },
  "schemaVersion": "3.2.5",
  "updatedAt": "2020-10-10T01:31:49.950Z",
  "devdoc": {
    "methods": {}
  },
  "userdoc": {
    "methods": {}
  }
}