{
  "contractName": "GovernorAlpha",
  "abi": [
    {
      "inputs": [
        {
          "internalType": "address",
          "name": "timelock_",
          "type": "address"
        },
        {
          "internalType": "address",
          "name": "VAMP_",
          "type": "address"
        }
      ],
      "payable": false,
      "stateMutability": "nonpayable",
      "type": "constructor"
    },
    {
      "anonymous": false,
      "inputs": [
        {
          "indexed": false,
          "internalType": "uint256",
          "name": "id",
          "type": "uint256"
        }
      ],
      "name": "ProposalCanceled",
      "type": "event"
    },
    {
      "anonymous": false,
      "inputs": [
        {
          "indexed": false,
          "internalType": "uint256",
          "name": "id",
          "type": "uint256"
        },
        {
          "indexed": false,
          "internalType": "address",
          "name": "proposer",
          "type": "address"
        },
        {
          "indexed": false,
          "internalType": "address[]",
          "name": "targets",
          "type": "address[]"
        },
        {
          "indexed": false,
          "internalType": "uint256[]",
          "name": "values",
          "type": "uint256[]"
        },
        {
          "indexed": false,
          "internalType": "string[]",
          "name": "signatures",
          "type": "string[]"
        },
        {
          "indexed": false,
          "internalType": "bytes[]",
          "name": "calldatas",
          "type": "bytes[]"
        },
        {
          "indexed": false,
          "internalType": "uint256",
          "name": "startBlock",
          "type": "uint256"
        },
        {
          "indexed": false,
          "internalType": "uint256",
          "name": "endBlock",
          "type": "uint256"
        },
        {
          "indexed": false,
          "internalType": "string",
          "name": "description",
          "type": "string"
        }
      ],
      "name": "ProposalCreated",
      "type": "event"
    },
    {
      "anonymous": false,
      "inputs": [
        {
          "indexed": false,
          "internalType": "uint256",
          "name": "id",
          "type": "uint256"
        }
      ],
      "name": "ProposalExecuted",
      "type": "event"
    },
    {
      "anonymous": false,
      "inputs": [
        {
          "indexed": false,
          "internalType": "uint256",
          "name": "id",
          "type": "uint256"
        },
        {
          "indexed": false,
          "internalType": "uint256",
          "name": "eta",
          "type": "uint256"
        }
      ],
      "name": "ProposalQueued",
      "type": "event"
    },
    {
      "anonymous": false,
      "inputs": [
        {
          "indexed": false,
          "internalType": "address",
          "name": "voter",
          "type": "address"
        },
        {
          "indexed": false,
          "internalType": "uint256",
          "name": "proposalId",
          "type": "uint256"
        },
        {
          "indexed": false,
          "internalType": "bool",
          "name": "support",
          "type": "bool"
        },
        {
          "indexed": false,
          "internalType": "uint256",
          "name": "votes",
          "type": "uint256"
        }
      ],
      "name": "VoteCast",
      "type": "event"
    },
    {
      "constant": true,
      "inputs": [],
      "name": "BALLOT_TYPEHASH",
      "outputs": [
        {
          "internalType": "bytes32",
          "name": "",
          "type": "bytes32"
        }
      ],
      "payable": false,
      "stateMutability": "view",
      "type": "function"
    },
    {
      "constant": true,
      "inputs": [],
      "name": "DOMAIN_TYPEHASH",
      "outputs": [
        {
          "internalType": "bytes32",
          "name": "",
          "type": "bytes32"
        }
      ],
      "payable": false,
      "stateMutability": "view",
      "type": "function"
    },
    {
      "constant": true,
      "inputs": [],
      "name": "VAMP",
      "outputs": [
        {
          "internalType": "contract VAMPInterface",
          "name": "",
          "type": "address"
        }
      ],
      "payable": false,
      "stateMutability": "view",
      "type": "function"
    },
    {
      "constant": true,
      "inputs": [],
      "name": "guardian",
      "outputs": [
        {
          "internalType": "address",
          "name": "",
          "type": "address"
        }
      ],
      "payable": false,
      "stateMutability": "view",
      "type": "function"
    },
    {
      "constant": true,
      "inputs": [
        {
          "internalType": "address",
          "name": "",
          "type": "address"
        }
      ],
      "name": "latestProposalIds",
      "outputs": [
        {
          "internalType": "uint256",
          "name": "",
          "type": "uint256"
        }
      ],
      "payable": false,
      "stateMutability": "view",
      "type": "function"
    },
    {
      "constant": true,
      "inputs": [],
      "name": "name",
      "outputs": [
        {
          "internalType": "string",
          "name": "",
          "type": "string"
        }
      ],
      "payable": false,
      "stateMutability": "view",
      "type": "function"
    },
    {
      "constant": true,
      "inputs": [],
      "name": "proposalCount",
      "outputs": [
        {
          "internalType": "uint256",
          "name": "",
          "type": "uint256"
        }
      ],
      "payable": false,
      "stateMutability": "view",
      "type": "function"
    },
    {
      "constant": true,
      "inputs": [
        {
          "internalType": "uint256",
          "name": "",
          "type": "uint256"
        }
      ],
      "name": "proposals",
      "outputs": [
        {
          "internalType": "uint256",
          "name": "id",
          "type": "uint256"
        },
        {
          "internalType": "address",
          "name": "proposer",
          "type": "address"
        },
        {
          "internalType": "uint256",
          "name": "eta",
          "type": "uint256"
        },
        {
          "internalType": "uint256",
          "name": "startBlock",
          "type": "uint256"
        },
        {
          "internalType": "uint256",
          "name": "endBlock",
          "type": "uint256"
        },
        {
          "internalType": "uint256",
          "name": "forVotes",
          "type": "uint256"
        },
        {
          "internalType": "uint256",
          "name": "againstVotes",
          "type": "uint256"
        },
        {
          "internalType": "bool",
          "name": "canceled",
          "type": "bool"
        },
        {
          "internalType": "bool",
          "name": "executed",
          "type": "bool"
        }
      ],
      "payable": false,
      "stateMutability": "view",
      "type": "function"
    },
    {
      "constant": true,
      "inputs": [],
      "name": "timelock",
      "outputs": [
        {
          "internalType": "contract TimelockInterface",
          "name": "",
          "type": "address"
        }
      ],
      "payable": false,
      "stateMutability": "view",
      "type": "function"
    },
    {
      "constant": true,
      "inputs": [],
      "name": "quorumVotes",
      "outputs": [
        {
          "internalType": "uint256",
          "name": "",
          "type": "uint256"
        }
      ],
      "payable": false,
      "stateMutability": "view",
      "type": "function"
    },
    {
      "constant": true,
      "inputs": [],
      "name": "proposalThreshold",
      "outputs": [
        {
          "internalType": "uint256",
          "name": "",
          "type": "uint256"
        }
      ],
      "payable": false,
      "stateMutability": "view",
      "type": "function"
    },
    {
      "constant": true,
      "inputs": [],
      "name": "proposalMaxOperations",
      "outputs": [
        {
          "internalType": "uint256",
          "name": "",
          "type": "uint256"
        }
      ],
      "payable": false,
      "stateMutability": "pure",
      "type": "function"
    },
    {
      "constant": true,
      "inputs": [],
      "name": "votingDelay",
      "outputs": [
        {
          "internalType": "uint256",
          "name": "",
          "type": "uint256"
        }
      ],
      "payable": false,
      "stateMutability": "pure",
      "type": "function"
    },
    {
      "constant": true,
      "inputs": [],
      "name": "votingPeriod",
      "outputs": [
        {
          "internalType": "uint256",
          "name": "",
          "type": "uint256"
        }
      ],
      "payable": false,
      "stateMutability": "pure",
      "type": "function"
    },
    {
      "constant": false,
      "inputs": [
        {
          "internalType": "address[]",
          "name": "targets",
          "type": "address[]"
        },
        {
          "internalType": "uint256[]",
          "name": "values",
          "type": "uint256[]"
        },
        {
          "internalType": "string[]",
          "name": "signatures",
          "type": "string[]"
        },
        {
          "internalType": "bytes[]",
          "name": "calldatas",
          "type": "bytes[]"
        },
        {
          "internalType": "string",
          "name": "description",
          "type": "string"
        }
      ],
      "name": "propose",
      "outputs": [
        {
          "internalType": "uint256",
          "name": "",
          "type": "uint256"
        }
      ],
      "payable": false,
      "stateMutability": "nonpayable",
      "type": "function"
    },
    {
      "constant": false,
      "inputs": [
        {
          "internalType": "uint256",
          "name": "proposalId",
          "type": "uint256"
        }
      ],
      "name": "queue",
      "outputs": [],
      "payable": false,
      "stateMutability": "nonpayable",
      "type": "function"
    },
    {
      "constant": false,
      "inputs": [
        {
          "internalType": "uint256",
          "name": "proposalId",
          "type": "uint256"
        }
      ],
      "name": "execute",
      "outputs": [],
      "payable": true,
      "stateMutability": "payable",
      "type": "function"
    },
    {
      "constant": false,
      "inputs": [
        {
          "internalType": "uint256",
          "name": "proposalId",
          "type": "uint256"
        }
      ],
      "name": "cancel",
      "outputs": [],
      "payable": false,
      "stateMutability": "nonpayable",
      "type": "function"
    },
    {
      "constant": true,
      "inputs": [
        {
          "internalType": "uint256",
          "name": "proposalId",
          "type": "uint256"
        }
      ],
      "name": "getActions",
      "outputs": [
        {
          "internalType": "address[]",
          "name": "targets",
          "type": "address[]"
        },
        {
          "internalType": "uint256[]",
          "name": "values",
          "type": "uint256[]"
        },
        {
          "internalType": "string[]",
          "name": "signatures",
          "type": "string[]"
        },
        {
          "internalType": "bytes[]",
          "name": "calldatas",
          "type": "bytes[]"
        }
      ],
      "payable": false,
      "stateMutability": "view",
      "type": "function"
    },
    {
      "constant": true,
      "inputs": [
        {
          "internalType": "uint256",
          "name": "proposalId",
          "type": "uint256"
        },
        {
          "internalType": "address",
          "name": "voter",
          "type": "address"
        }
      ],
      "name": "getReceipt",
      "outputs": [
        {
          "components": [
            {
              "internalType": "bool",
              "name": "hasVoted",
              "type": "bool"
            },
            {
              "internalType": "bool",
              "name": "support",
              "type": "bool"
            },
            {
              "internalType": "uint256",
              "name": "votes",
              "type": "uint256"
            }
          ],
          "internalType": "struct GovernorAlpha.Receipt",
          "name": "",
          "type": "tuple"
        }
      ],
      "payable": false,
      "stateMutability": "view",
      "type": "function"
    },
    {
      "constant": true,
      "inputs": [
        {
          "internalType": "uint256",
          "name": "proposalId",
          "type": "uint256"
        }
      ],
      "name": "state",
      "outputs": [
        {
          "internalType": "enum GovernorAlpha.ProposalState",
          "name": "",
          "type": "uint8"
        }
      ],
      "payable": false,
      "stateMutability": "view",
      "type": "function"
    },
    {
      "constant": false,
      "inputs": [
        {
          "internalType": "uint256",
          "name": "proposalId",
          "type": "uint256"
        },
        {
          "internalType": "bool",
          "name": "support",
          "type": "bool"
        }
      ],
      "name": "castVote",
      "outputs": [],
      "payable": false,
      "stateMutability": "nonpayable",
      "type": "function"
    },
    {
      "constant": false,
      "inputs": [
        {
          "internalType": "uint256",
          "name": "proposalId",
          "type": "uint256"
        },
        {
          "internalType": "bool",
          "name": "support",
          "type": "bool"
        },
        {
          "internalType": "uint8",
          "name": "v",
          "type": "uint8"
        },
        {
          "internalType": "bytes32",
          "name": "r",
          "type": "bytes32"
        },
        {
          "internalType": "bytes32",
          "name": "s",
          "type": "bytes32"
        }
      ],
      "name": "castVoteBySig",
      "outputs": [],
      "payable": false,
      "stateMutability": "nonpayable",
      "type": "function"
    },
    {
      "constant": false,
      "inputs": [],
      "name": "__acceptAdmin",
      "outputs": [],
      "payable": false,
      "stateMutability": "nonpayable",
      "type": "function"
    },
    {
      "constant": false,
      "inputs": [],
      "name": "__abdicate",
      "outputs": [],
      "payable": false,
      "stateMutability": "nonpayable",
      "type": "function"
    },
    {
      "constant": false,
      "inputs": [
        {
          "internalType": "address",
          "name": "newPendingAdmin",
          "type": "address"
        },
        {
          "internalType": "uint256",
          "name": "eta",
          "type": "uint256"
        }
      ],
      "name": "__queueSetTimelockPendingAdmin",
      "outputs": [],
      "payable": false,
      "stateMutability": "nonpayable",
      "type": "function"
    },
    {
      "constant": false,
      "inputs": [
        {
          "internalType": "address",
          "name": "newPendingAdmin",
          "type": "address"
        },
        {
          "internalType": "uint256",
          "name": "eta",
          "type": "uint256"
        }
      ],
      "name": "__executeSetTimelockPendingAdmin",
      "outputs": [],
      "payable": false,
      "stateMutability": "nonpayable",
      "type": "function"
    }
  ],
  "bytecode": "0x60806040523480156200001157600080fd5b5060405162003a6338038062003a63833981016040819052620000349162000089565b600080546001600160a01b039384166001600160a01b0319918216179091556001805492909316918116919091179091556002805490911633179055620000f4565b80516200008381620000da565b92915050565b600080604083850312156200009d57600080fd5b6000620000ab858562000076565b9250506020620000be8582860162000076565b9150509250929050565b60006001600160a01b03821662000083565b620000e581620000c8565b8114620000f157600080fd5b50565b61395f80620001046000396000f3fe60806040526004361061019c5760003560e01c80634634c61f116100ec578063d33219b41161008a578063ddf0b00911610064578063ddf0b00914610463578063deaaa7cc14610483578063e23a9a5214610498578063fe0d94c1146104c55761019c565b8063d33219b414610419578063da35c6641461042e578063da95691a146104435761019c565b80637bdbe4d0116100c65780637bdbe4d0146103ba57806391500671146103cf578063b58131b0146103ef578063b9a61961146104045761019c565b80634634c61f14610363578063660aa91014610383578063760fbc13146103a55761019c565b806321f43e42116101595780633932abb1116101335780633932abb1146102df5780633e4f49e6146102f457806340e58ee514610321578063452a9320146103415761019c565b806321f43e421461027a57806324bc1a641461029a578063328dd982146102af5761019c565b8063013cf08b146101a157806302a251a3146101df57806306fdde031461020157806315373e3d1461022357806317977c611461024557806320606b7014610265575b600080fd5b3480156101ad57600080fd5b506101c16101bc3660046125af565b6104d8565b6040516101d69998979695949392919061372a565b60405180910390f35b3480156101eb57600080fd5b506101f4610531565b6040516101d69190613454565b34801561020d57600080fd5b50610216610538565b6040516101d69190613503565b34801561022f57600080fd5b5061024361023e3660046125fd565b610567565b005b34801561025157600080fd5b506101f46102603660046123f2565b610576565b34801561027157600080fd5b506101f4610588565b34801561028657600080fd5b50610243610295366004612418565b61059f565b3480156102a657600080fd5b506101f4610686565b3480156102bb57600080fd5b506102cf6102ca3660046125af565b610727565b6040516101d69493929190613407565b3480156102eb57600080fd5b506101f46109b6565b34801561030057600080fd5b5061031461030f3660046125af565b6109bb565b6040516101d691906134f5565b34801561032d57600080fd5b5061024361033c3660046125af565b610b3d565b34801561034d57600080fd5b50610356610d9d565b6040516101d691906132b1565b34801561036f57600080fd5b5061024361037e36600461262d565b610dac565b34801561038f57600080fd5b50610398610f3f565b6040516101d691906134e7565b3480156103b157600080fd5b50610243610f4e565b3480156103c657600080fd5b506101f4610f8a565b3480156103db57600080fd5b506102436103ea366004612418565b610f8f565b3480156103fb57600080fd5b506101f4611064565b34801561041057600080fd5b506102436110ef565b34801561042557600080fd5b50610398611174565b34801561043a57600080fd5b506101f4611183565b34801561044f57600080fd5b506101f461045e366004612452565b611189565b34801561046f57600080fd5b5061024361047e3660046125af565b6115a2565b34801561048f57600080fd5b506101f461180c565b3480156104a457600080fd5b506104b86104b33660046125cd565b611818565b6040516101d69190613674565b6102436104d33660046125af565b61187c565b6004602052600090815260409020805460018201546002830154600784015460088501546009860154600a870154600b9097015495966001600160a01b0390951695939492939192909160ff8082169161010090041689565b6143805b90565b6040518060400160405280601381526020017256414d5020476f7665726e6f7220416c70686160681b81525081565b610572338383611a41565b5050565b60056020526000908152604090205481565b6040516105949061329b565b604051809103902081565b6002546001600160a01b031633146105d25760405162461bcd60e51b81526004016105c990613544565b60405180910390fd5b600080546040516001600160a01b0390911691630825f38f918391906105fc9087906020016132b1565b604051602081830303815290604052856040518563ffffffff1660e01b815260040161062b94939291906132da565b600060405180830381600087803b15801561064557600080fd5b505af1158015610659573d6000803e3d6000fd5b505050506040513d6000823e601f3d908101601f19168201604052610681919081019061257a565b505050565b600061072261071b600160009054906101000a90046001600160a01b03166001600160a01b03166397d63f936040518163ffffffff1660e01b815260040160206040518083038186803b1580156106dc57600080fd5b505afa1580156106f0573d6000803e3d6000fd5b505050506040513d601f19601f82011682018060405250610714919081019061255c565b6004611bdd565b6064611c1e565b905090565b606080606080600060046000878152602001908152602001600020905080600301816004018260050183600601838054806020026020016040519081016040528092919081815260200182805480156107a957602002820191906000526020600020905b81546001600160a01b0316815260019091019060200180831161078b575b50505050509350828054806020026020016040519081016040528092919081815260200182805480156107fb57602002820191906000526020600020905b8154815260200190600101908083116107e7575b5050505050925081805480602002602001604051908101604052809291908181526020016000905b828210156108ce5760008481526020908190208301805460408051601f60026000196101006001871615020190941693909304928301859004850281018501909152818152928301828280156108ba5780601f1061088f576101008083540402835291602001916108ba565b820191906000526020600020905b81548152906001019060200180831161089d57829003601f168201915b505050505081526020019060010190610823565b50505050915080805480602002602001604051908101604052809291908181526020016000905b828210156109a05760008481526020908190208301805460408051601f600260001961010060018716150201909416939093049283018590048502810185019091528181529283018282801561098c5780601f106109615761010080835404028352916020019161098c565b820191906000526020600020905b81548152906001019060200180831161096f57829003601f168201915b5050505050815260200190600101906108f5565b5050505090509450945094509450509193509193565b600190565b600081600354101580156109cf5750600082115b6109eb5760405162461bcd60e51b81526004016105c990613554565b6000828152600460205260409020600b81015460ff1615610a10576002915050610b38565b80600701544311610a25576000915050610b38565b80600801544311610a3a576001915050610b38565b80600a01548160090154111580610a5b5750610a54610686565b8160090154105b15610a6a576003915050610b38565b6002810154610a7d576004915050610b38565b600b810154610100900460ff1615610a99576007915050610b38565b6002810154600054604080516360d143f160e11b81529051610b2293926001600160a01b03169163c1a287e2916004808301926020929190829003018186803b158015610ae557600080fd5b505afa158015610af9573d6000803e3d6000fd5b505050506040513d601f19601f82011682018060405250610b1d919081019061255c565b611c60565b4210610b32576006915050610b38565b60059150505b919050565b6000610b48826109bb565b90506007816007811115610b5857fe5b1415610b765760405162461bcd60e51b81526004016105c990613634565b60008281526004602052604090206002546001600160a01b0316331480610c385750610ba0611064565b60018054838201546001600160a01b039182169263782d6fe19290911690610bc9904390611c85565b6040518363ffffffff1660e01b8152600401610be6929190613329565b60206040518083038186803b158015610bfe57600080fd5b505afa158015610c12573d6000803e3d6000fd5b505050506040513d601f19601f82011682018060405250610c36919081019061255c565b105b610c545760405162461bcd60e51b81526004016105c9906135d4565b600b8101805460ff1916600117905560005b6003820154811015610d60576000546003830180546001600160a01b039092169163591fcdfe919084908110610c9857fe5b6000918252602090912001546004850180546001600160a01b039092169185908110610cc057fe5b9060005260206000200154856005018581548110610cda57fe5b90600052602060002001866006018681548110610cf357fe5b9060005260206000200187600201546040518663ffffffff1660e01b8152600401610d229594939291906133c6565b600060405180830381600087803b158015610d3c57600080fd5b505af1158015610d50573d6000803e3d6000fd5b505060019092019150610c669050565b507f789cf55be980739dad1d0699b93b58e806b51c9d96619bfa8fe0a28abaa7b30c83604051610d909190613454565b60405180910390a1505050565b6002546001600160a01b031681565b6000604051610dba9061329b565b60408051918290038220828201909152601382527256414d5020476f7665726e6f7220416c70686160681b6020909201919091527f049d5b8953d275ffb5cae6db1c1bc383129bc425981086d57fd9e2742812f96b610e17611cad565b30604051602001610e2b9493929190613462565b6040516020818303038152906040528051906020012090506000604051610e51906132a6565b604051908190038120610e6a9189908990602001613497565b60405160208183030381529060405280519060200120905060008282604051602001610e9792919061326a565b604051602081830303815290604052805190602001209050600060018288888860405160008152602001604052604051610ed494939291906134bf565b6020604051602081039080840390855afa158015610ef6573d6000803e3d6000fd5b5050604051601f1901519150506001600160a01b038116610f295760405162461bcd60e51b81526004016105c990613614565b610f34818a8a611a41565b505050505050505050565b6001546001600160a01b031681565b6002546001600160a01b03163314610f785760405162461bcd60e51b81526004016105c990613664565b600280546001600160a01b0319169055565b600a90565b6002546001600160a01b03163314610fb95760405162461bcd60e51b81526004016105c990613584565b600080546040516001600160a01b0390911691633a66f90191839190610fe39087906020016132b1565b604051602081830303815290604052856040518563ffffffff1660e01b815260040161101294939291906132da565b602060405180830381600087803b15801561102c57600080fd5b505af1158015611040573d6000803e3d6000fd5b505050506040513d601f19601f82011682018060405250610681919081019061255c565b6000610722600160009054906101000a90046001600160a01b03166001600160a01b03166397d63f936040518163ffffffff1660e01b815260040160206040518083038186803b1580156110b757600080fd5b505afa1580156110cb573d6000803e3d6000fd5b505050506040513d601f19601f8201168201806040525061071b919081019061255c565b6002546001600160a01b031633146111195760405162461bcd60e51b81526004016105c990613514565b6000805460408051630e18b68160e01b815290516001600160a01b0390921692630e18b6819260048084019382900301818387803b15801561115a57600080fd5b505af115801561116e573d6000803e3d6000fd5b50505050565b6000546001600160a01b031681565b60035481565b6000611193611064565b600180546001600160a01b03169063782d6fe19033906111b4904390611c85565b6040518363ffffffff1660e01b81526004016111d19291906132bf565b60206040518083038186803b1580156111e957600080fd5b505afa1580156111fd573d6000803e3d6000fd5b505050506040513d601f19601f82011682018060405250611221919081019061255c565b1161123e5760405162461bcd60e51b81526004016105c990613604565b84518651148015611250575083518651145b801561125d575082518651145b6112795760405162461bcd60e51b81526004016105c9906135b4565b85516112975760405162461bcd60e51b81526004016105c9906135f4565b61129f610f8a565b865111156112bf5760405162461bcd60e51b81526004016105c990613594565b33600090815260056020526040902054801561133c5760006112e0826109bb565b905060018160078111156112f057fe5b141561130e5760405162461bcd60e51b81526004016105c990613624565b600081600781111561131c57fe5b141561133a5760405162461bcd60e51b81526004016105c990613574565b505b600061134a43610b1d6109b6565b9050600061135a82610b1d610531565b600380546001019055905061136d611e47565b604051806101a001604052806003548152602001336001600160a01b03168152602001600081526020018b81526020018a815260200189815260200188815260200184815260200183815260200160008152602001600081526020016000151581526020016000151581525090508060046000836000015181526020019081526020016000206000820151816000015560208201518160010160006101000a8154816001600160a01b0302191690836001600160a01b03160217905550604082015181600201556060820151816003019080519060200190611450929190611ebc565b506080820151805161146c916004840191602090910190611f21565b5060a08201518051611488916005840191602090910190611f68565b5060c082015180516114a4916006840191602090910190611fc1565b5060e082015181600701556101008201518160080155610120820151816009015561014082015181600a015561016082015181600b0160006101000a81548160ff02191690831515021790555061018082015181600b0160016101000a81548160ff02191690831515021790555090505080600001516005600083602001516001600160a01b03166001600160a01b03168152602001908152602001600020819055507f7d84a6263ae0d98d3329bd7b46bb4e8d6f98cd35a7adb45c274c8b7fd5ebd5e08160000151338c8c8c8c89898e60405161158a99989796959493929190613682565b60405180910390a15193505050505b95945050505050565b60046115ad826109bb565b60078111156115b857fe5b146115d55760405162461bcd60e51b81526004016105c990613524565b600081815260046020818152604080842084548251630d48571f60e31b8152925191959461162a9442946001600160a01b0390931693636a42b8f8938084019390829003018186803b158015610ae557600080fd5b905060005b60038301548110156117d2576117ca83600301828154811061164d57fe5b6000918252602090912001546004850180546001600160a01b03909216918490811061167557fe5b906000526020600020015485600501848154811061168f57fe5b600091825260209182902001805460408051601f600260001961010060018716150201909416939093049283018590048502810185019091528181529283018282801561171d5780601f106116f25761010080835404028352916020019161171d565b820191906000526020600020905b81548152906001019060200180831161170057829003601f168201915b505050505086600601858154811061173157fe5b600091825260209182902001805460408051601f60026000196101006001871615020190941693909304928301859004850281018501909152818152928301828280156117bf5780601f10611794576101008083540402835291602001916117bf565b820191906000526020600020905b8154815290600101906020018083116117a257829003601f168201915b505050505086611cb1565b60010161162f565b50600282018190556040517f9a2e42fd6722813d69113e7d0079d3d940171428df7373df9c7f7617cfda289290610d9090859084906137b0565b604051610594906132a6565b61182061201a565b5060008281526004602090815260408083206001600160a01b0385168452600c018252918290208251606081018452815460ff808216151583526101009091041615159281019290925260010154918101919091525b92915050565b6005611887826109bb565b600781111561189257fe5b146118af5760405162461bcd60e51b81526004016105c990613534565b6000818152600460205260408120600b8101805461ff001916610100179055905b6003820154811015611a05576000546004830180546001600160a01b0390921691630825f38f91908490811061190257fe5b906000526020600020015484600301848154811061191c57fe5b6000918252602090912001546004860180546001600160a01b03909216918690811061194457fe5b906000526020600020015486600501868154811061195e57fe5b9060005260206000200187600601878154811061197757fe5b9060005260206000200188600201546040518763ffffffff1660e01b81526004016119a69594939291906133c6565b6000604051808303818588803b1580156119bf57600080fd5b505af11580156119d3573d6000803e3d6000fd5b50505050506040513d6000823e601f3d908101601f191682016040526119fc919081019061257a565b506001016118d0565b507f712ae1383f79ac853f8d882153778e0260ef8f03b504e2866e0593e04d2b291f82604051611a359190613454565b60405180910390a15050565b6001611a4c836109bb565b6007811115611a5757fe5b14611a745760405162461bcd60e51b81526004016105c990613644565b60008281526004602090815260408083206001600160a01b0387168452600c8101909252909120805460ff1615611abd5760405162461bcd60e51b81526004016105c990613564565b600154600783015460405163782d6fe160e01b81526000926001600160a01b03169163782d6fe191611af3918a91600401613329565b60206040518083038186803b158015611b0b57600080fd5b505afa158015611b1f573d6000803e3d6000fd5b505050506040513d601f19601f82011682018060405250611b43919081019061255c565b90508315611b6357611b59836009015482611c60565b6009840155611b77565b611b7183600a015482611c60565b600a8401555b8154600160ff19909116811761ff0019166101008615150217835582018190556040517f877856338e13f63d0c36822ff0ef736b80934cd90574a3a5bc9262c39d217c4690611bcd908890889088908690613337565b60405180910390a1505050505050565b600082611bec57506000611876565b82820282848281611bf957fe5b0414611c175760405162461bcd60e51b81526004016105c9906135c4565b9392505050565b6000611c1783836040518060400160405280601a81526020017f536166654d6174683a206469766973696f6e206279207a65726f000000000000815250611e10565b600082820183811015611c175760405162461bcd60e51b81526004016105c9906135a4565b600082821115611ca75760405162461bcd60e51b81526004016105c990613654565b50900390565b4690565b6000546040516001600160a01b039091169063f2b0653790611cdf908890889088908890889060200161336c565b604051602081830303815290604052805190602001206040518263ffffffff1660e01b8152600401611d119190613454565b60206040518083038186803b158015611d2957600080fd5b505afa158015611d3d573d6000803e3d6000fd5b505050506040513d601f19601f82011682018060405250611d61919081019061253e565b15611d7e5760405162461bcd60e51b81526004016105c9906135e4565b600054604051633a66f90160e01b81526001600160a01b0390911690633a66f90190611db6908890889088908890889060040161336c565b602060405180830381600087803b158015611dd057600080fd5b505af1158015611de4573d6000803e3d6000fd5b505050506040513d601f19601f82011682018060405250611e08919081019061255c565b505050505050565b60008183611e315760405162461bcd60e51b81526004016105c99190613503565b506000838581611e3d57fe5b0495945050505050565b604051806101a001604052806000815260200160006001600160a01b031681526020016000815260200160608152602001606081526020016060815260200160608152602001600081526020016000815260200160008152602001600081526020016000151581526020016000151581525090565b828054828255906000526020600020908101928215611f11579160200282015b82811115611f1157825182546001600160a01b0319166001600160a01b03909116178255602090920191600190910190611edc565b50611f1d92915061203a565b5090565b828054828255906000526020600020908101928215611f5c579160200282015b82811115611f5c578251825591602001919060010190611f41565b50611f1d92915061205e565b828054828255906000526020600020908101928215611fb5579160200282015b82811115611fb55782518051611fa5918491602090910190612078565b5091602001919060010190611f88565b50611f1d9291506120e5565b82805482825590600052602060002090810192821561200e579160200282015b8281111561200e5782518051611ffe918491602090910190612078565b5091602001919060010190611fe1565b50611f1d929150612108565b604080516060810182526000808252602082018190529181019190915290565b61053591905b80821115611f1d5780546001600160a01b0319168155600101612040565b61053591905b80821115611f1d5760008155600101612064565b828054600181600116156101000203166002900490600052602060002090601f016020900481019282601f106120b957805160ff1916838001178555611f5c565b82800160010185558215611f5c5791820182811115611f5c578251825591602001919060010190611f41565b61053591905b80821115611f1d5760006120ff828261212b565b506001016120eb565b61053591905b80821115611f1d576000612122828261212b565b5060010161210e565b50805460018160011615610100020316600290046000825580601f10612151575061216f565b601f01602090049060005260206000209081019061216f919061205e565b50565b8035611876816138ed565b600082601f83011261218e57600080fd5b81356121a161219c826137e5565b6137be565b915081818352602084019350602081019050838560208402820111156121c657600080fd5b60005b838110156121f257816121dc8882612172565b84525060209283019291909101906001016121c9565b5050505092915050565b600082601f83011261220d57600080fd5b813561221b61219c826137e5565b81815260209384019390925082018360005b838110156121f257813586016122438882612352565b845250602092830192919091019060010161222d565b600082601f83011261226a57600080fd5b813561227861219c826137e5565b81815260209384019390925082018360005b838110156121f257813586016122a08882612352565b845250602092830192919091019060010161228a565b600082601f8301126122c757600080fd5b81356122d561219c826137e5565b915081818352602084019350602081019050838560208402820111156122fa57600080fd5b60005b838110156121f25781612310888261233c565b84525060209283019291909101906001016122fd565b803561187681613901565b805161187681613901565b80356118768161390a565b80516118768161390a565b600082601f83011261236357600080fd5b813561237161219c82613806565b9150808252602083016020830185838301111561238d57600080fd5b6123988382846138a1565b50505092915050565b600082601f8301126123b257600080fd5b81516123c061219c82613806565b915080825260208301602083018583830111156123dc57600080fd5b6123988382846138ad565b803561187681613913565b60006020828403121561240457600080fd5b60006124108484612172565b949350505050565b6000806040838503121561242b57600080fd5b60006124378585612172565b92505060206124488582860161233c565b9150509250929050565b600080600080600060a0868803121561246a57600080fd5b853567ffffffffffffffff81111561248157600080fd5b61248d8882890161217d565b955050602086013567ffffffffffffffff8111156124aa57600080fd5b6124b6888289016122b6565b945050604086013567ffffffffffffffff8111156124d357600080fd5b6124df88828901612259565b935050606086013567ffffffffffffffff8111156124fc57600080fd5b612508888289016121fc565b925050608086013567ffffffffffffffff81111561252557600080fd5b61253188828901612352565b9150509295509295909350565b60006020828403121561255057600080fd5b60006124108484612331565b60006020828403121561256e57600080fd5b60006124108484612347565b60006020828403121561258c57600080fd5b815167ffffffffffffffff8111156125a357600080fd5b612410848285016123a1565b6000602082840312156125c157600080fd5b6000612410848461233c565b600080604083850312156125e057600080fd5b60006125ec858561233c565b925050602061244885828601612172565b6000806040838503121561261057600080fd5b600061261c858561233c565b925050602061244885828601612326565b600080600080600060a0868803121561264557600080fd5b6000612651888861233c565b955050602061266288828901612326565b9450506040612673888289016123e7565b93505060606126848882890161233c565b92505060806125318882890161233c565b60006126a183836126d0565b505060200190565b6000611c178383612872565b60006126a18383612858565b6126ca81613879565b82525050565b6126ca8161384d565b60006126e482613840565b6126ee8185613844565b93506126f98361382e565b8060005b838110156127275781516127118882612695565b975061271c8361382e565b9250506001016126fd565b509495945050505050565b600061273d82613840565b6127478185613844565b9350836020820285016127598561382e565b8060005b85811015612793578484038952815161277685826126a9565b94506127818361382e565b60209a909a019992505060010161275d565b5091979650505050505050565b60006127ab82613840565b6127b58185613844565b9350836020820285016127c78561382e565b8060005b8581101561279357848403895281516127e485826126a9565b94506127ef8361382e565b60209a909a01999250506001016127cb565b600061280c82613840565b6128168185613844565b93506128218361382e565b8060005b8381101561272757815161283988826126b5565b97506128448361382e565b925050600101612825565b6126ca81613858565b6126ca81610535565b6126ca61286d82610535565b610535565b600061287d82613840565b6128878185613844565b93506128978185602086016138ad565b6128a0816138d9565b9093019392505050565b6000815460018116600081146128c757600181146128ed5761292c565b607f60028304166128d88187613844565b60ff198416815295505060208501925061292c565b600282046128fb8187613844565b955061290685613834565b60005b8281101561292557815488820152600190910190602001612909565b8701945050505b505092915050565b6126ca81613880565b6126ca8161388b565b6126ca81613896565b600061295c603983613844565b7f476f7665726e6f72416c7068613a3a5f5f61636365707441646d696e3a20736581527f6e646572206d75737420626520676f7620677561726469616e00000000000000602082015260400192915050565b60006129bb604483613844565b7f476f7665726e6f72416c7068613a3a71756575653a2070726f706f73616c206381527f616e206f6e6c79206265207175657565642069662069742069732073756363656020820152631959195960e21b604082015260600192915050565b6000612a27604583613844565b7f476f7665726e6f72416c7068613a3a657865637574653a2070726f706f73616c81527f2063616e206f6e6c7920626520657865637574656420696620697420697320716020820152641d595d595960da1b604082015260600192915050565b6000612a94600283610b38565b61190160f01b815260020192915050565b6000612ab2604c83613844565b7f476f7665726e6f72416c7068613a3a5f5f6578656375746553657454696d656c81527f6f636b50656e64696e6741646d696e3a2073656e646572206d7573742062652060208201526b33b7bb1033bab0b93234b0b760a11b604082015260600192915050565b6000612b26601883613844565b7f73657450656e64696e6741646d696e2861646472657373290000000000000000815260200192915050565b6000612b5f602983613844565b7f476f7665726e6f72416c7068613a3a73746174653a20696e76616c69642070728152681bdc1bdcd85b081a5960ba1b602082015260400192915050565b6000612baa602d83613844565b7f476f7665726e6f72416c7068613a3a5f63617374566f74653a20766f7465722081526c185b1c9958591e481d9bdd1959609a1b602082015260400192915050565b6000612bf9605983613844565b7f476f7665726e6f72416c7068613a3a70726f706f73653a206f6e65206c69766581527f2070726f706f73616c207065722070726f706f7365722c20666f756e6420616e60208201527f20616c72656164792070656e64696e672070726f706f73616c00000000000000604082015260600192915050565b6000612c7e604a83613844565b7f476f7665726e6f72416c7068613a3a5f5f717565756553657454696d656c6f6381527f6b50656e64696e6741646d696e3a2073656e646572206d75737420626520676f6020820152693b1033bab0b93234b0b760b11b604082015260600192915050565b6000612cf0602883613844565b7f476f7665726e6f72416c7068613a3a70726f706f73653a20746f6f206d616e7981526720616374696f6e7360c01b602082015260400192915050565b6000612d3a601183613844565b706164646974696f6e206f766572666c6f7760781b815260200192915050565b6000612d67604383610b38565b7f454950373132446f6d61696e28737472696e67206e616d652c75696e7432353681527f20636861696e49642c6164647265737320766572696679696e67436f6e74726160208201526263742960e81b604082015260430192915050565b6000612dd2602783610b38565b7f42616c6c6f742875696e743235362070726f706f73616c49642c626f6f6c20738152667570706f72742960c81b602082015260270192915050565b6000612e1b604483613844565b7f476f7665726e6f72416c7068613a3a70726f706f73653a2070726f706f73616c81527f2066756e6374696f6e20696e666f726d6174696f6e206172697479206d69736d6020820152630c2e8c6d60e31b604082015260600192915050565b6000612e87602183613844565b7f536166654d6174683a206d756c7469706c69636174696f6e206f766572666c6f8152607760f81b602082015260400192915050565b6000612eca602f83613844565b7f476f7665726e6f72416c7068613a3a63616e63656c3a2070726f706f7365722081526e18589bdd99481d1a1c995cda1bdb19608a1b602082015260400192915050565b6000612f1b604483613844565b7f476f7665726e6f72416c7068613a3a5f71756575654f725265766572743a207081527f726f706f73616c20616374696f6e20616c7265616479207175657565642061746020820152632065746160e01b604082015260600192915050565b6000612f87602c83613844565b7f476f7665726e6f72416c7068613a3a70726f706f73653a206d7573742070726f81526b7669646520616374696f6e7360a01b602082015260400192915050565b6000612fd5603f83613844565b7f476f7665726e6f72416c7068613a3a70726f706f73653a2070726f706f73657281527f20766f7465732062656c6f772070726f706f73616c207468726573686f6c6400602082015260400192915050565b6000613034602f83613844565b7f476f7665726e6f72416c7068613a3a63617374566f746542795369673a20696e81526e76616c6964207369676e617475726560881b602082015260400192915050565b6000613085605883613844565b7f476f7665726e6f72416c7068613a3a70726f706f73653a206f6e65206c69766581527f2070726f706f73616c207065722070726f706f7365722c20666f756e6420616e60208201527f20616c7265616479206163746976652070726f706f73616c0000000000000000604082015260600192915050565b600061310a603683613844565b7f476f7665726e6f72416c7068613a3a63616e63656c3a2063616e6e6f742063618152751b98d95b08195e1958dd5d1959081c1c9bdc1bdcd85b60521b602082015260400192915050565b6000613162602a83613844565b7f476f7665726e6f72416c7068613a3a5f63617374566f74653a20766f74696e67815269081a5cc818db1bdcd95960b21b602082015260400192915050565b60006131ae601583613844565b747375627472616374696f6e20756e646572666c6f7760581b815260200192915050565b60006131df603683613844565b7f476f7665726e6f72416c7068613a3a5f5f61626469636174653a2073656e6465815275391036bab9ba1031329033b7bb1033bab0b93234b0b760511b602082015260400192915050565b8051606083019061323b848261284f565b50602082015161324e602085018261284f565b50604082015161116e6040850182612858565b6126ca81613873565b600061327582612a87565b91506132818285612861565b6020820191506132918284612861565b5060200192915050565b600061187682612d5a565b600061187682612dc5565b6020810161187682846126d0565b604081016132cd82856126c1565b611c176020830184612858565b60a081016132e882876126d0565b6132f56020830186612946565b818103604083015261330681612b19565b9050818103606083015261331a8185612872565b90506115996080830184612858565b604081016132cd82856126d0565b6080810161334582876126d0565b6133526020830186612858565b61335f604083018561284f565b6115996060830184612858565b60a0810161337a82886126d0565b6133876020830187612858565b81810360408301526133998186612872565b905081810360608301526133ad8185612872565b90506133bc6080830184612858565b9695505050505050565b60a081016133d482886126d0565b6133e16020830187612858565b81810360408301526133f381866128aa565b905081810360608301526133ad81856128aa565b6080808252810161341881876126d9565b9050818103602083015261342c8186612801565b9050818103604083015261344081856127a0565b905081810360608301526133bc8184612732565b602081016118768284612858565b608081016134708287612858565b61347d6020830186612858565b61348a6040830185612858565b61159960608301846126d0565b606081016134a58286612858565b6134b26020830185612858565b612410604083018461284f565b608081016134cd8287612858565b6134da6020830186613261565b61335f6040830185612858565b602081016118768284612934565b60208101611876828461293d565b60208082528101611c178184612872565b602080825281016118768161294f565b60208082528101611876816129ae565b6020808252810161187681612a1a565b6020808252810161187681612aa5565b6020808252810161187681612b52565b6020808252810161187681612b9d565b6020808252810161187681612bec565b6020808252810161187681612c71565b6020808252810161187681612ce3565b6020808252810161187681612d2d565b6020808252810161187681612e0e565b6020808252810161187681612e7a565b6020808252810161187681612ebd565b6020808252810161187681612f0e565b6020808252810161187681612f7a565b6020808252810161187681612fc8565b6020808252810161187681613027565b6020808252810161187681613078565b60208082528101611876816130fd565b6020808252810161187681613155565b60208082528101611876816131a1565b60208082528101611876816131d2565b60608101611876828461322a565b6101208101613691828c612858565b61369e602083018b6126c1565b81810360408301526136b0818a6126d9565b905081810360608301526136c48189612801565b905081810360808301526136d881886127a0565b905081810360a08301526136ec8187612732565b90506136fb60c0830186612858565b61370860e0830185612858565b81810361010083015261371b8184612872565b9b9a5050505050505050505050565b6101208101613739828c612858565b613746602083018b6126d0565b613753604083018a612858565b6137606060830189612858565b61376d6080830188612858565b61377a60a0830187612858565b61378760c0830186612858565b61379460e083018561284f565b6137a261010083018461284f565b9a9950505050505050505050565b604081016132cd8285612858565b60405181810167ffffffffffffffff811182821017156137dd57600080fd5b604052919050565b600067ffffffffffffffff8211156137fc57600080fd5b5060209081020190565b600067ffffffffffffffff82111561381d57600080fd5b506020601f91909101601f19160190565b60200190565b60009081526020902090565b5190565b90815260200190565b600061187682613867565b151590565b80610b38816138e3565b6001600160a01b031690565b60ff1690565b6000611876825b60006118768261384d565b60006118768261385d565b600061187682610535565b82818337506000910152565b60005b838110156138c85781810151838201526020016138b0565b8381111561116e5750506000910152565b601f01601f191690565b6008811061216f57fe5b6138f68161384d565b811461216f57600080fd5b6138f681613858565b6138f681610535565b6138f68161387356fea365627a7a723158205186c21273aac8017b64caac999aba0522fbf4aa532ff59f9f0a145e2686b90c6c6578706572696d656e74616cf564736f6c63430005110040",
  "source": "pragma solidity ^0.5.17;\npragma experimental ABIEncoderV2;\n\n// Original work from Compound: https://github.com/compound-finance/compound-protocol/blob/master/contracts/Governance/GovernorAlpha.sol\n// Modified to work in the VAMP system\n\n// all votes work on underlying _VAMPBalances[address], not balanceOf(address)\n\n// Original audit: https://blog.openzeppelin.com/compound-alpha-governance-system-audit/\n// Overview:\n//    No Critical\n//    High:\n//      Issue:\n//        Approved proposal may be impossible to queue, cancel or execute\n//        Fixed with `proposalMaxOperations`\n//      Issue:\n//        Queued proposal with repeated actions cannot be executed\n//        Fixed by explicitly disallow proposals with repeated actions to be queued in the Timelock contract.\n//\n// Changes made by VAMP after audit:\n//    Formatting, naming, & uint256 instead of uint\n//    Since VAMP supply changes, updated quorum & proposal requirements\n//    If any uint96, changed to uint256 to match VAMP as opposed to comp\n\n\nimport \"../lib/SafeMath.sol\";\n\ncontract GovernorAlpha {\n    /// @notice The name of this contract\n    string public constant name = \"VAMP Governor Alpha\";\n\n    /// @notice The number of votes in support of a proposal required in order for a quorum to be reached and for a vote to succeed\n    function quorumVotes() public view returns (uint256) { return SafeMath.div(SafeMath.mul(VAMP.initSupply(), 4), 100); } // 4% of VAMP\n\n    /// @notice The number of votes required in order for a voter to become a proposer\n    function proposalThreshold() public view returns (uint256) { return SafeMath.div(VAMP.initSupply(), 100); } // 1% of VAMP\n\n    /// @notice The maximum number of actions that can be included in a proposal\n    function proposalMaxOperations() public pure returns (uint256) { return 10; } // 10 actions\n\n    /// @notice The delay before voting on a proposal may take place, once proposed\n    function votingDelay() public pure returns (uint256) { return 1; } // 1 block\n\n    /// @notice The duration of voting on a proposal, in blocks\n    function votingPeriod() public pure returns (uint256) { return 17280; } // ~3 days in blocks (assuming 15s blocks)\n\n    /// @notice The address of the Compound Protocol Timelock\n    TimelockInterface public timelock;\n\n    /// @notice The address of the Compound governance token\n    VAMPInterface public VAMP;\n\n    /// @notice The address of the Governor Guardian\n    address public guardian;\n\n    /// @notice The total number of proposals\n    uint256 public proposalCount;\n\n    struct Proposal {\n        /// @notice Unique id for looking up a proposal\n        uint256 id;\n\n        /// @notice Creator of the proposal\n        address proposer;\n\n        /// @notice The timestamp that the proposal will be available for execution, set once the vote succeeds\n        uint256 eta;\n\n        /// @notice the ordered list of target addresses for calls to be made\n        address[] targets;\n\n        /// @notice The ordered list of values (i.e. msg.value) to be passed to the calls to be made\n        uint[] values;\n\n        /// @notice The ordered list of function signatures to be called\n        string[] signatures;\n\n        /// @notice The ordered list of calldata to be passed to each call\n        bytes[] calldatas;\n\n        /// @notice The block at which voting begins: holders must delegate their votes prior to this block\n        uint256 startBlock;\n\n        /// @notice The block at which voting ends: votes must be cast prior to this block\n        uint256 endBlock;\n\n        /// @notice Current number of votes in favor of this proposal\n        uint256 forVotes;\n\n        /// @notice Current number of votes in opposition to this proposal\n        uint256 againstVotes;\n\n        /// @notice Flag marking whether the proposal has been canceled\n        bool canceled;\n\n        /// @notice Flag marking whether the proposal has been executed\n        bool executed;\n\n        /// @notice Receipts of ballots for the entire set of voters\n        mapping (address => Receipt) receipts;\n    }\n\n    /// @notice Ballot receipt record for a voter\n    struct Receipt {\n        /// @notice Whether or not a vote has been cast\n        bool hasVoted;\n\n        /// @notice Whether or not the voter supports the proposal\n        bool support;\n\n        /// @notice The number of votes the voter had, which were cast\n        uint256 votes;\n    }\n\n    /// @notice Possible states that a proposal may be in\n    enum ProposalState {\n        Pending,\n        Active,\n        Canceled,\n        Defeated,\n        Succeeded,\n        Queued,\n        Expired,\n        Executed\n    }\n\n    /// @notice The official record of all proposals ever proposed\n    mapping (uint256 => Proposal) public proposals;\n\n    /// @notice The latest proposal for each proposer\n    mapping (address => uint256) public latestProposalIds;\n\n    /// @notice The EIP-712 typehash for the contract's domain\n    bytes32 public constant DOMAIN_TYPEHASH = keccak256(\"EIP712Domain(string name,uint256 chainId,address verifyingContract)\");\n\n    /// @notice The EIP-712 typehash for the ballot struct used by the contract\n    bytes32 public constant BALLOT_TYPEHASH = keccak256(\"Ballot(uint256 proposalId,bool support)\");\n\n    /// @notice An event emitted when a new proposal is created\n    event ProposalCreated(uint256 id, address proposer, address[] targets, uint[] values, string[] signatures, bytes[] calldatas, uint256 startBlock, uint256 endBlock, string description);\n\n    /// @notice An event emitted when a vote has been cast on a proposal\n    event VoteCast(address voter, uint256 proposalId, bool support, uint256 votes);\n\n    /// @notice An event emitted when a proposal has been canceled\n    event ProposalCanceled(uint256 id);\n\n    /// @notice An event emitted when a proposal has been queued in the Timelock\n    event ProposalQueued(uint256 id, uint256 eta);\n\n    /// @notice An event emitted when a proposal has been executed in the Timelock\n    event ProposalExecuted(uint256 id);\n\n    constructor(address timelock_, address VAMP_) public {\n        timelock = TimelockInterface(timelock_);\n        VAMP = VAMPInterface(VAMP_);\n        guardian = msg.sender;\n    }\n\n    function propose(\n        address[] memory targets,\n        uint[] memory values,\n        string[] memory signatures,\n        bytes[] memory calldatas,\n        string memory description\n    )\n        public\n        returns (uint256)\n    {\n        require(VAMP.getPriorVotes(msg.sender, sub256(block.number, 1)) > proposalThreshold(), \"GovernorAlpha::propose: proposer votes below proposal threshold\");\n        require(targets.length == values.length && targets.length == signatures.length && targets.length == calldatas.length, \"GovernorAlpha::propose: proposal function information arity mismatch\");\n        require(targets.length != 0, \"GovernorAlpha::propose: must provide actions\");\n        require(targets.length <= proposalMaxOperations(), \"GovernorAlpha::propose: too many actions\");\n\n        uint256 latestProposalId = latestProposalIds[msg.sender];\n        if (latestProposalId != 0) {\n          ProposalState proposersLatestProposalState = state(latestProposalId);\n          require(proposersLatestProposalState != ProposalState.Active, \"GovernorAlpha::propose: one live proposal per proposer, found an already active proposal\");\n          require(proposersLatestProposalState != ProposalState.Pending, \"GovernorAlpha::propose: one live proposal per proposer, found an already pending proposal\");\n        }\n\n        uint256 startBlock = add256(block.number, votingDelay());\n        uint256 endBlock = add256(startBlock, votingPeriod());\n\n        proposalCount++;\n        Proposal memory newProposal = Proposal({\n            id: proposalCount,\n            proposer: msg.sender,\n            eta: 0,\n            targets: targets,\n            values: values,\n            signatures: signatures,\n            calldatas: calldatas,\n            startBlock: startBlock,\n            endBlock: endBlock,\n            forVotes: 0,\n            againstVotes: 0,\n            canceled: false,\n            executed: false\n        });\n\n        proposals[newProposal.id] = newProposal;\n        latestProposalIds[newProposal.proposer] = newProposal.id;\n\n        emit ProposalCreated(\n            newProposal.id,\n            msg.sender,\n            targets,\n            values,\n            signatures,\n            calldatas,\n            startBlock,\n            endBlock,\n            description\n        );\n        return newProposal.id;\n    }\n\n    function queue(uint256 proposalId)\n        public\n    {\n        require(state(proposalId) == ProposalState.Succeeded, \"GovernorAlpha::queue: proposal can only be queued if it is succeeded\");\n        Proposal storage proposal = proposals[proposalId];\n        uint256 eta = add256(block.timestamp, timelock.delay());\n        for (uint256 i = 0; i < proposal.targets.length; i++) {\n            _queueOrRevert(\n                proposal.targets[i],\n                proposal.values[i],\n                proposal.signatures[i],\n                proposal.calldatas[i],\n                eta\n            );\n        }\n        proposal.eta = eta;\n        emit ProposalQueued(proposalId, eta);\n    }\n\n    function _queueOrRevert(\n        address target,\n        uint256 value,\n        string memory signature,\n        bytes memory data,\n        uint256 eta\n    )\n        internal\n    {\n        require(!timelock.queuedTransactions(\n              keccak256(\n                  abi.encode(\n                      target,\n                      value,\n                      signature,\n                      data,\n                      eta\n                  )\n              )\n          ),\n          \"GovernorAlpha::_queueOrRevert: proposal action already queued at eta\"\n        );\n\n        timelock.queueTransaction(target, value, signature, data, eta);\n    }\n\n    function execute(uint256 proposalId)\n        public\n        payable\n    {\n        require(state(proposalId) == ProposalState.Queued, \"GovernorAlpha::execute: proposal can only be executed if it is queued\");\n        Proposal storage proposal = proposals[proposalId];\n        proposal.executed = true;\n        for (uint256 i = 0; i < proposal.targets.length; i++) {\n            timelock.executeTransaction.value(proposal.values[i])(proposal.targets[i], proposal.values[i], proposal.signatures[i], proposal.calldatas[i], proposal.eta);\n        }\n        emit ProposalExecuted(proposalId);\n    }\n\n    function cancel(uint256 proposalId)\n        public\n    {\n        ProposalState state = state(proposalId);\n        require(state != ProposalState.Executed, \"GovernorAlpha::cancel: cannot cancel executed proposal\");\n\n        Proposal storage proposal = proposals[proposalId];\n        require(msg.sender == guardian || VAMP.getPriorVotes(proposal.proposer, sub256(block.number, 1)) < proposalThreshold(), \"GovernorAlpha::cancel: proposer above threshold\");\n\n        proposal.canceled = true;\n        for (uint256 i = 0; i < proposal.targets.length; i++) {\n            timelock.cancelTransaction(proposal.targets[i], proposal.values[i], proposal.signatures[i], proposal.calldatas[i], proposal.eta);\n        }\n\n        emit ProposalCanceled(proposalId);\n    }\n\n    function getActions(uint256 proposalId)\n        public\n        view\n        returns (\n            address[] memory targets,\n            uint[] memory values,\n            string[] memory signatures,\n            bytes[] memory calldatas\n        )\n    {\n        Proposal storage p = proposals[proposalId];\n        return (p.targets, p.values, p.signatures, p.calldatas);\n    }\n\n    function getReceipt(uint256 proposalId, address voter)\n        public\n        view\n        returns (Receipt memory)\n    {\n        return proposals[proposalId].receipts[voter];\n    }\n\n    function state(uint256 proposalId)\n        public\n        view\n        returns (ProposalState)\n    {\n        require(proposalCount >= proposalId && proposalId > 0, \"GovernorAlpha::state: invalid proposal id\");\n        Proposal storage proposal = proposals[proposalId];\n        if (proposal.canceled) {\n            return ProposalState.Canceled;\n        } else if (block.number <= proposal.startBlock) {\n            return ProposalState.Pending;\n        } else if (block.number <= proposal.endBlock) {\n            return ProposalState.Active;\n        } else if (proposal.forVotes <= proposal.againstVotes || proposal.forVotes < quorumVotes()) {\n            return ProposalState.Defeated;\n        } else if (proposal.eta == 0) {\n            return ProposalState.Succeeded;\n        } else if (proposal.executed) {\n            return ProposalState.Executed;\n        } else if (block.timestamp >= add256(proposal.eta, timelock.GRACE_PERIOD())) {\n            return ProposalState.Expired;\n        } else {\n            return ProposalState.Queued;\n        }\n    }\n\n    function castVote(uint256 proposalId, bool support)\n        public\n    {\n        return _castVote(msg.sender, proposalId, support);\n    }\n\n    function castVoteBySig(\n        uint256 proposalId,\n        bool support,\n        uint8 v,\n        bytes32 r,\n        bytes32 s\n    )\n        public\n    {\n        bytes32 domainSeparator = keccak256(\n            abi.encode(\n                DOMAIN_TYPEHASH,\n                keccak256(bytes(name)),\n                getChainId(),\n                address(this)\n            )\n        );\n\n        bytes32 structHash = keccak256(\n            abi.encode(\n                BALLOT_TYPEHASH,\n                proposalId,\n                support\n            )\n        );\n\n        bytes32 digest = keccak256(\n            abi.encodePacked(\n                \"\\x19\\x01\",\n                domainSeparator,\n                structHash\n            )\n        );\n\n        address signatory = ecrecover(digest, v, r, s);\n        require(signatory != address(0), \"GovernorAlpha::castVoteBySig: invalid signature\");\n        return _castVote(signatory, proposalId, support);\n    }\n\n    function _castVote(\n        address voter,\n        uint256 proposalId,\n        bool support\n    )\n        internal\n    {\n        require(state(proposalId) == ProposalState.Active, \"GovernorAlpha::_castVote: voting is closed\");\n        Proposal storage proposal = proposals[proposalId];\n        Receipt storage receipt = proposal.receipts[voter];\n        require(receipt.hasVoted == false, \"GovernorAlpha::_castVote: voter already voted\");\n        uint256 votes = VAMP.getPriorVotes(voter, proposal.startBlock);\n\n        if (support) {\n            proposal.forVotes = add256(proposal.forVotes, votes);\n        } else {\n            proposal.againstVotes = add256(proposal.againstVotes, votes);\n        }\n\n        receipt.hasVoted = true;\n        receipt.support = support;\n        receipt.votes = votes;\n\n        emit VoteCast(voter, proposalId, support, votes);\n    }\n\n    function __acceptAdmin()\n        public\n    {\n        require(msg.sender == guardian, \"GovernorAlpha::__acceptAdmin: sender must be gov guardian\");\n        timelock.acceptAdmin();\n    }\n\n    function __abdicate()\n        public\n    {\n        require(msg.sender == guardian, \"GovernorAlpha::__abdicate: sender must be gov guardian\");\n        guardian = address(0);\n    }\n\n    function __queueSetTimelockPendingAdmin(\n        address newPendingAdmin,\n        uint256 eta\n    )\n        public\n    {\n        require(msg.sender == guardian, \"GovernorAlpha::__queueSetTimelockPendingAdmin: sender must be gov guardian\");\n        timelock.queueTransaction(address(timelock), 0, \"setPendingAdmin(address)\", abi.encode(newPendingAdmin), eta);\n    }\n\n    function __executeSetTimelockPendingAdmin(\n        address newPendingAdmin,\n        uint256 eta\n    )\n        public\n    {\n        require(msg.sender == guardian, \"GovernorAlpha::__executeSetTimelockPendingAdmin: sender must be gov guardian\");\n        timelock.executeTransaction(address(timelock), 0, \"setPendingAdmin(address)\", abi.encode(newPendingAdmin), eta);\n    }\n\n    function add256(uint256 a, uint256 b) internal pure returns (uint256) {\n        uint256 c = a + b;\n        require(c >= a, \"addition overflow\");\n        return c;\n    }\n\n    function sub256(uint256 a, uint256 b) internal pure returns (uint256) {\n        require(b <= a, \"subtraction underflow\");\n        return a - b;\n    }\n\n    function getChainId() internal pure returns (uint256) {\n        uint256 chainId;\n        assembly { chainId := chainid() }\n        return chainId;\n    }\n}\n\ninterface TimelockInterface {\n    function delay() external view returns (uint256);\n    function GRACE_PERIOD() external view returns (uint256);\n    function acceptAdmin() external;\n    function queuedTransactions(bytes32 hash) external view returns (bool);\n    function queueTransaction(address target, uint256 value, string calldata signature, bytes calldata data, uint256 eta) external returns (bytes32);\n    function cancelTransaction(address target, uint256 value, string calldata signature, bytes calldata data, uint256 eta) external;\n    function executeTransaction(address target, uint256 value, string calldata signature, bytes calldata data, uint256 eta) external payable returns (bytes memory);\n}\n\ninterface VAMPInterface {\n    function getPriorVotes(address account, uint256 blockNumber) external view returns (uint256);\n    function initSupply() external view returns (uint256);\n    function _acceptGov() external;\n}\n",
  "sourcePath": "C:/Users/zigaf/Documents/zerochan/Vampire-protocol/contracts/governance/VAMPGovernorAlpha.sol",
  "compiler": {
    "name": "solc",
    "version": "0.5.17+commit.d19bba13.Emscripten.clang"
  },
  "schemaVersion": "3.2.5",
  "updatedAt": "2020-09-16T15:24:07.069Z",
  "devdoc": {
    "methods": {}
  },
  "userdoc": {
    "methods": {
      "proposalMaxOperations()": {
        "notice": "The maximum number of actions that can be included in a proposal"
      },
      "proposalThreshold()": {
        "notice": "The number of votes required in order for a voter to become a proposer"
      },
      "quorumVotes()": {
        "notice": "The number of votes in support of a proposal required in order for a quorum to be reached and for a vote to succeed"
      },
      "votingDelay()": {
        "notice": "The delay before voting on a proposal may take place, once proposed"
      },
      "votingPeriod()": {
        "notice": "The duration of voting on a proposal, in blocks"
      }
    }
  }
}