{
  "contractName": "LPTokenWrapper",
  "abi": [
    {
      "constant": true,
      "inputs": [],
      "name": "vamp",
      "outputs": [
        {
          "internalType": "contract IERC20",
          "name": "",
          "type": "address"
        }
      ],
      "payable": false,
      "stateMutability": "view",
      "type": "function"
    },
    {
      "constant": true,
      "inputs": [],
      "name": "totalSupply",
      "outputs": [
        {
          "internalType": "uint256",
          "name": "",
          "type": "uint256"
        }
      ],
      "payable": false,
      "stateMutability": "view",
      "type": "function"
    },
    {
      "constant": true,
      "inputs": [
        {
          "internalType": "address",
          "name": "account",
          "type": "address"
        }
      ],
      "name": "balanceOf",
      "outputs": [
        {
          "internalType": "uint256",
          "name": "",
          "type": "uint256"
        }
      ],
      "payable": false,
      "stateMutability": "view",
      "type": "function"
    },
    {
      "constant": false,
      "inputs": [
        {
          "internalType": "uint256",
          "name": "amount",
          "type": "uint256"
        }
      ],
      "name": "stake",
      "outputs": [],
      "payable": false,
      "stateMutability": "nonpayable",
      "type": "function"
    },
    {
      "constant": false,
      "inputs": [
        {
          "internalType": "uint256",
          "name": "amount",
          "type": "uint256"
        }
      ],
      "name": "withdraw",
      "outputs": [],
      "payable": false,
      "stateMutability": "nonpayable",
      "type": "function"
    }
  ],
  "bytecode": "0x6080604052600080546001600160a01b03191673c02aaa39b223fe8d0a0e5c4f27ead9083c756cc217905534801561003657600080fd5b5061067c806100466000396000f3fe608060405234801561001057600080fd5b50600436106100565760003560e01c806222f81a1461005b57806318160ddd1461007f5780632e1a7d4d1461009957806370a08231146100b8578063a694fc3a146100de575b600080fd5b6100636100fb565b604080516001600160a01b039092168252519081900360200190f35b61008761010a565b60408051918252519081900360200190f35b6100b6600480360360208110156100af57600080fd5b5035610110565b005b610087600480360360208110156100ce57600080fd5b50356001600160a01b0316610174565b6100b6600480360360208110156100f457600080fd5b503561018f565b6000546001600160a01b031681565b60015490565b600154610123908263ffffffff6101f116565b60015533600090815260026020526040902054610146908263ffffffff6101f116565b336000818152600260205260408120929092559054610171916001600160a01b03909116908361023a565b50565b6001600160a01b031660009081526002602052604090205490565b6001546101a2908263ffffffff61029116565b600155336000908152600260205260409020546101c5908263ffffffff61029116565b336000818152600260205260408120929092559054610171916001600160a01b039091169030846102eb565b600061023383836040518060400160405280601e81526020017f536166654d6174683a207375627472616374696f6e206f766572666c6f77000081525061034b565b9392505050565b604080516001600160a01b038416602482015260448082018490528251808303909101815260649091019091526020810180516001600160e01b031663a9059cbb60e01b17905261028c9084906103e2565b505050565b600082820183811015610233576040805162461bcd60e51b815260206004820152601b60248201527f536166654d6174683a206164646974696f6e206f766572666c6f770000000000604482015290519081900360640190fd5b604080516001600160a01b0385811660248301528416604482015260648082018490528251808303909101815260849091019091526020810180516001600160e01b03166323b872dd60e01b1790526103459085906103e2565b50505050565b600081848411156103da5760405162461bcd60e51b81526004018080602001828103825283818151815260200191508051906020019080838360005b8381101561039f578181015183820152602001610387565b50505050905090810190601f1680156103cc5780820380516001836020036101000a031916815260200191505b509250505060405180910390fd5b505050900390565b6060610437826040518060400160405280602081526020017f5361666545524332303a206c6f772d6c6576656c2063616c6c206661696c6564815250856001600160a01b03166104939092919063ffffffff16565b80519091501561028c5780806020019051602081101561045657600080fd5b505161028c5760405162461bcd60e51b815260040180806020018281038252602a81526020018061061e602a913960400191505060405180910390fd5b60606104a284846000856104aa565b949350505050565b60606104b585610617565b610506576040805162461bcd60e51b815260206004820152601d60248201527f416464726573733a2063616c6c20746f206e6f6e2d636f6e7472616374000000604482015290519081900360640190fd5b60006060866001600160a01b031685876040518082805190602001908083835b602083106105455780518252601f199092019160209182019101610526565b6001836020036101000a03801982511681845116808217855250505050505090500191505060006040518083038185875af1925050503d80600081146105a7576040519150601f19603f3d011682016040523d82523d6000602084013e6105ac565b606091505b509150915081156105c05791506104a29050565b8051156105d05780518082602001fd5b60405162461bcd60e51b815260206004820181815286516024840152865187939192839260440191908501908083836000831561039f578181015183820152602001610387565b3b15159056fe5361666545524332303a204552433230206f7065726174696f6e20646964206e6f742073756363656564a265627a7a7231582056bf669505ea63bdf9969d3831f6e3000f57a21c6ecd94796ed5a24b6f183e0d64736f6c63430005110032",
  "source": " /*\n\n                                                                                                      \n      _____         ____        _____        ______  _______    ____  _____   ______         _____    \n ____|\\    \\   ____|\\   \\   ___|\\    \\      |      \\/       \\  |    ||\\    \\ |\\     \\    ___|\\    \\   \n|    | \\    \\ /    /\\    \\ |    |\\    \\    /          /\\     \\ |    | \\\\    \\| \\     \\  /    /\\    \\  \n|    |______/|    |  |    ||    | |    |  /     /\\   / /\\     ||    |  \\|    \\  \\     ||    |  |____| \n|    |----'\\ |    |__|    ||    |/____/  /     /\\ \\_/ / /    /||    |   |     \\  |    ||    |    ____ \n|    |_____/ |    .--.    ||    |\\    \\ |     |  \\|_|/ /    / ||    |   |      \\ |    ||    |   |    |\n|    |       |    |  |    ||    | |    ||     |       |    |  ||    |   |    |\\ \\|    ||    |   |_,  |\n|____|       |____|  |____||____| |____||\\____\\       |____|  /|____|   |____||\\_____/||\\ ___\\___/  /|\n|    |       |    |  |    ||    | |    || |    |      |    | / |    |   |    |/ \\|   ||| |   /____ / |\n|____|       |____|  |____||____| |____| \\|____|      |____|/  |____|   |____|   |___|/ \\|___|    | / \n  )/           \\(      )/    \\(     )/      \\(          )/       \\(       \\(       )/     \\( |____|/  \n  '             '      '      '     '        '          '         '        '       '       '   )/     \n                                                                                               '      \n\n   ____            __   __        __   _\n  / __/__ __ ___  / /_ / /  ___  / /_ (_)__ __\n _\\ \\ / // // _ \\/ __// _ \\/ -_)/ __// / \\ \\ /\n/___/ \\_, //_//_/\\__//_//_/\\__/ \\__//_/ /_\\_\\\n     /___/\n\n* Synthetix: VAMPRewards.sol\n*\n* Docs: https://docs.synthetix.io/\n*\n*\n* MIT License\n* ===========\n*\n* Copyright (c) 2020 Synthetix\n*\n* Permission is hereby granted, free of charge, to any person obtaining a copy\n* of this software and associated documentation files (the \"Software\"), to deal\n* in the Software without restriction, including without limitation the rights\n* to use, copy, modify, merge, publish, distribute, sublicense, and/or sell\n* copies of the Software, and to permit persons to whom the Software is\n* furnished to do so, subject to the following conditions:\n*\n* The above copyright notice and this permission notice shall be included in all\n* copies or substantial portions of the Software.\n*\n* THE SOFTWARE IS PROVIDED \"AS IS\", WITHOUT WARRANTY OF ANY KIND, EXPRESS OR\n* IMPLIED, INCLUDING BUT NOT LIMITED TO THE WARRANTIES OF MERCHANTABILITY,\n* FITNESS FOR A PARTICULAR PURPOSE AND NONINFRINGEMENT. IN NO EVENT SHALL THE\n* AUTHORS OR COPYRIGHT HOLDERS BE LIABLE FOR ANY CLAIM, DAMAGES OR OTHER\n* LIABILITY, WHETHER IN AN ACTION OF CONTRACT, TORT OR OTHERWISE, ARISING FROM,\n* OUT OF OR IN CONNECTION WITH THE SOFTWARE OR THE USE OR OTHER DEALINGS IN THE\n*/\npragma solidity ^0.5.17;\n\nimport \"../lib/Ownable.sol\";\nimport \"../lib/Math.sol\";\nimport \"../lib/IERC20.sol\";\nimport \"../lib/SafeMath.sol\";\nimport \"../lib/Address.sol\";\nimport \"../lib/SafeERC20.sol\";\nimport \"../lib/IRewardDistributionRecipient.sol\";\n\ninterface VAMP {\n    function scalingFactor() external returns (uint256);\n}\n\ncontract LPTokenWrapper {\n    using SafeMath for uint256;\n    using SafeERC20 for IERC20;\n\n    IERC20 public vamp = IERC20(0xC02aaA39b223FE8D0A0e5C4F27eAD9083C756Cc2);\n\n    uint256 private _totalSupply;\n    mapping(address => uint256) private _balances;\n\n    function totalSupply() public view returns (uint256) {\n        return _totalSupply;\n    }\n\n    function balanceOf(address account) public view returns (uint256) {\n        return _balances[account];\n    }\n\n    function stake(uint256 amount) public {\n        _totalSupply = _totalSupply.add(amount);\n        _balances[msg.sender] = _balances[msg.sender].add(amount);\n        vamp.safeTransferFrom(msg.sender, address(this), amount);\n    }\n\n    function withdraw(uint256 amount) public {\n        _totalSupply = _totalSupply.sub(amount);\n        _balances[msg.sender] = _balances[msg.sender].sub(amount);\n        vamp.safeTransfer(msg.sender, amount);\n    }\n}\n\ncontract VAMPWETHPOOL is LPTokenWrapper, IRewardDistributionRecipient {\n    IERC20 public mana = IERC20(0x4De8f3F90b1bFBE535a979B94f0eE94132d7072D);\n    uint256 public DURATION = 7 days;\n    uint256 public initreward = 100000000 ether;\n    uint256 public starttime = 1598707259;\n    uint256 public periodFinish = 0;\n    uint256 public rewardRate = 0;\n    uint256 public lastUpdateTime;\n    uint256 public rewardPerTokenStored;\n    mapping(address => uint256) public userRewardPerTokenPaid;\n    mapping(address => uint256) public rewards;\n\n    event RewardAdded(uint256 reward);\n    event Staked(address indexed user, uint256 amount);\n    event Withdrawn(address indexed user, uint256 amount);\n    event RewardPaid(address indexed user, uint256 reward);\n\n    modifier updateReward(address account) {\n        rewardPerTokenStored = rewardPerToken();\n        lastUpdateTime = lastTimeRewardApplicable();\n        if (account != address(0)) {\n            rewards[account] = earned(account);\n            userRewardPerTokenPaid[account] = rewardPerTokenStored;\n        }\n        _;\n    }\n\n    function lastTimeRewardApplicable() public view returns (uint256) {\n        return Math.min(block.timestamp, periodFinish);\n    }\n\n    function rewardPerToken() public view returns (uint256) {\n        if (totalSupply() == 0) {\n            return rewardPerTokenStored;\n        }\n        return\n            rewardPerTokenStored.add(\n                lastTimeRewardApplicable()\n                    .sub(lastUpdateTime)\n                    .mul(rewardRate)\n                    .mul(1e18)\n                    .div(totalSupply())\n            );\n    }\n\n    function earned(address account) public view returns (uint256) {\n        return\n            balanceOf(account)\n                .mul(rewardPerToken().sub(userRewardPerTokenPaid[account]))\n                .div(1e18)\n                .add(rewards[account]);\n    }\n\n    // stake visibility is public as overriding LPTokenWrapper's stake() function\n    function stake(uint256 amount) public updateReward(msg.sender)  checkStart{\n        require(amount > 0, \"Cannot stake 0\");\n        super.stake(amount);\n        emit Staked(msg.sender, amount);\n    }\n\n    function withdraw(uint256 amount) public updateReward(msg.sender) checkStart{\n        require(amount > 0, \"Cannot withdraw 0\");\n        super.withdraw(amount);\n        emit Withdrawn(msg.sender, amount);\n    }\n\n    function exit() external {\n        withdraw(balanceOf(msg.sender));\n        getReward();\n    }\n\n    function getReward() public updateReward(msg.sender)  checkStart{\n        uint256 reward = earned(msg.sender);\n        if (reward > 0) {\n            rewards[msg.sender] = 0;\n            vamp.safeTransfer(msg.sender, reward);\n            emit RewardPaid(msg.sender, reward);\n        }\n    }\n\n    \n    modifier checkStart(){\n        require(block.timestamp > starttime,\"not start\");\n        _;\n    }\n\n    function notifyRewardAmount()\n        external\n        onlyRewardDistribution\n        updateReward(address(0))\n    {\n        if (block.timestamp >= periodFinish) {\n            rewardRate = initreward.div(DURATION);\n        } else {\n            uint256 remaining = periodFinish.sub(block.timestamp);\n            uint256 leftover = remaining.mul(rewardRate);\n            rewardRate = initreward.add(leftover).div(DURATION);\n        }\n        vamp.mint(address(this),initreward);\n        lastUpdateTime = block.timestamp;\n        periodFinish = block.timestamp.add(DURATION);\n        emit RewardAdded(initreward);\n    }\n}",
  "sourcePath": "/Users/admin/dev/vamp/Vampire-protocol-contracts/contracts/distribution/vMANASUMMONERPool.sol",
  "compiler": {
    "name": "solc",
    "version": "0.5.17+commit.d19bba13.Emscripten.clang"
  },
  "schemaVersion": "3.2.5",
  "updatedAt": "2020-09-19T22:34:18.544Z",
  "devdoc": {
    "methods": {}
  },
  "userdoc": {
    "methods": {}
  }
}