{
  "contractName": "Ownable",
  "abi": [
    {
      "anonymous": false,
      "inputs": [
        {
          "indexed": false,
          "internalType": "address",
          "name": "lockedOwner",
          "type": "address"
        }
      ],
      "name": "OwnershipLocked",
      "type": "event"
    },
    {
      "anonymous": false,
      "inputs": [
        {
          "indexed": true,
          "internalType": "address",
          "name": "previousOwner",
          "type": "address"
        }
      ],
      "name": "OwnershipRenounced",
      "type": "event"
    },
    {
      "anonymous": false,
      "inputs": [
        {
          "indexed": true,
          "internalType": "address",
          "name": "previousOwner",
          "type": "address"
        },
        {
          "indexed": true,
          "internalType": "address",
          "name": "newOwner",
          "type": "address"
        }
      ],
      "name": "OwnershipTransferred",
      "type": "event"
    },
    {
      "constant": true,
      "inputs": [],
      "name": "decimals",
      "outputs": [
        {
          "internalType": "uint8",
          "name": "",
          "type": "uint8"
        }
      ],
      "payable": false,
      "stateMutability": "view",
      "type": "function"
    },
    {
      "constant": true,
      "inputs": [],
      "name": "name",
      "outputs": [
        {
          "internalType": "string",
          "name": "",
          "type": "string"
        }
      ],
      "payable": false,
      "stateMutability": "view",
      "type": "function"
    },
    {
      "constant": true,
      "inputs": [],
      "name": "symbol",
      "outputs": [
        {
          "internalType": "string",
          "name": "",
          "type": "string"
        }
      ],
      "payable": false,
      "stateMutability": "view",
      "type": "function"
    },
    {
      "constant": true,
      "inputs": [],
      "name": "owner",
      "outputs": [
        {
          "internalType": "address",
          "name": "",
          "type": "address"
        }
      ],
      "payable": false,
      "stateMutability": "view",
      "type": "function"
    },
    {
      "constant": true,
      "inputs": [],
      "name": "isOwner",
      "outputs": [
        {
          "internalType": "bool",
          "name": "",
          "type": "bool"
        }
      ],
      "payable": false,
      "stateMutability": "view",
      "type": "function"
    },
    {
      "constant": false,
      "inputs": [
        {
          "internalType": "address",
          "name": "newOwner",
          "type": "address"
        }
      ],
      "name": "transferOwnership",
      "outputs": [],
      "payable": false,
      "stateMutability": "nonpayable",
      "type": "function"
    },
    {
      "constant": false,
      "inputs": [],
      "name": "lockOwnership",
      "outputs": [],
      "payable": false,
      "stateMutability": "nonpayable",
      "type": "function"
    }
  ],
  "bytecode": "0x608060405234801561001057600080fd5b506103e7806100206000396000f3fe608060405234801561001057600080fd5b506004361061007d5760003560e01c80638da5cb5b1161005b5780638da5cb5b146101275780638f32d59b1461014b57806395d89b4114610167578063f2fde38b1461016f5761007d565b80630577c02b1461008257806306fdde031461008c578063313ce56714610109575b600080fd5b61008a610195565b005b6100946101f9565b6040805160208082528351818301528351919283929083019185019080838360005b838110156100ce5781810151838201526020016100b6565b50505050905090810190601f1680156100fb5780820380516001836020036101000a031916815260200191505b509250505060405180910390f35b61011161028f565b6040805160ff9092168252519081900360200190f35b61012f610298565b604080516001600160a01b039092168252519081900360200190f35b6101536102a7565b604080519115158252519081900360200190f35b6100946102b8565b61008a6004803603602081101561018557600080fd5b50356001600160a01b0316610319565b61019d6102a7565b6101a657600080fd5b606954156101b357600080fd5b606854604080516001600160a01b039092168252517f88edfb4ea96673000ad101b18d1c7dbd727c5d92217c8d0b9966f2aaf77e93f49181900360200190a16001606955565b60338054604080516020601f60026000196101006001881615020190951694909404938401819004810282018101909252828152606093909290918301828280156102855780601f1061025a57610100808354040283529160200191610285565b820191906000526020600020905b81548152906001019060200180831161026857829003601f168201915b5050505050905090565b60355460ff1690565b6068546001600160a01b031690565b6068546001600160a01b0316331490565b60348054604080516020601f60026000196101006001881615020190951694909404938401819004810282018101909252828152606093909290918301828280156102855780601f1061025a57610100808354040283529160200191610285565b6103216102a7565b61032a57600080fd5b61033381610336565b50565b6069541561034357600080fd5b6001600160a01b03811661035657600080fd5b6068546040516001600160a01b038084169216907f8be0079c531659141344cd1fd0a4f28419497f9722a3daafe3b4186f6b6457e090600090a3606880546001600160a01b0319166001600160a01b039290921691909117905556fea265627a7a723158205b8ee59aebead0f2a0ff885edd90cef239402bd4cb8b069e0be9329d0632dd2164736f6c63430005110032",
  "source": "pragma solidity 0.5.17;\n\nimport \"./ERC20Detailed.sol\";\n\ncontract Ownable is ERC20Detailed {\n\n    address private _owner;\n    uint256 private _ownershipLocked;\n\n    event OwnershipLocked(address lockedOwner);\n    event OwnershipRenounced(address indexed previousOwner);\n    event OwnershipTransferred(\n        address indexed previousOwner,\n        address indexed newOwner\n    );\n\n    function initialize(address sender) internal initializer {\n        _owner = sender;\n        _ownershipLocked = 0;\n    }\n\n    function owner() public view returns(address) {\n        return _owner;\n    }\n\n    modifier onlyOwner() {\n        require(isOwner());\n        _;\n    }\n\n    function isOwner() public view returns(bool) {\n        return msg.sender == _owner;\n    }\n\n    function transferOwnership(address newOwner) public onlyOwner {\n        _transferOwnership(newOwner);\n    }\n\n    function _transferOwnership(address newOwner) internal {\n        require(_ownershipLocked == 0);\n        require(newOwner != address(0));\n        emit OwnershipTransferred(_owner, newOwner);\n        _owner = newOwner;\n    }\n\n    // Set _ownershipLocked flag to lock contract owner forever\n    function lockOwnership() public onlyOwner {\n        require(_ownershipLocked == 0);\n        emit OwnershipLocked(_owner);\n        _ownershipLocked = 1;\n    }\n\n    uint256[50] private ______gap;\n}\n",
  "sourcePath": "/Users/admin/dev/vamp/Vampire-protocol-contracts/contracts/token/Ownable.sol",
  "compiler": {
    "name": "solc",
    "version": "0.5.17+commit.d19bba13.Emscripten.clang"
  },
  "schemaVersion": "3.2.5",
  "updatedAt": "2020-10-07T10:12:03.141Z",
  "devdoc": {
    "methods": {}
  },
  "userdoc": {
    "methods": {}
  }
}