{
  "contractName": "VampTokenSale",
  "abi": [
    {
      "inputs": [
        {
          "internalType": "uint256",
          "name": "_totalTokens",
          "type": "uint256"
        },
        {
          "internalType": "uint256",
          "name": "_startTime",
          "type": "uint256"
        }
      ],
      "payable": false,
      "stateMutability": "nonpayable",
      "type": "constructor"
    },
    {
      "anonymous": false,
      "inputs": [
        {
          "indexed": false,
          "internalType": "uint256",
          "name": "amountRaised",
          "type": "uint256"
        }
      ],
      "name": "GoalReached",
      "type": "event"
    },
    {
      "anonymous": false,
      "inputs": [
        {
          "indexed": false,
          "internalType": "uint256",
          "name": "hardcap",
          "type": "uint256"
        }
      ],
      "name": "HardCapReached",
      "type": "event"
    },
    {
      "anonymous": false,
      "inputs": [
        {
          "indexed": true,
          "internalType": "address",
          "name": "holder",
          "type": "address"
        },
        {
          "indexed": false,
          "internalType": "uint256",
          "name": "tokenAmount",
          "type": "uint256"
        },
        {
          "indexed": false,
          "internalType": "uint256",
          "name": "etherAmount",
          "type": "uint256"
        }
      ],
      "name": "NewContribution",
      "type": "event"
    },
    {
      "anonymous": false,
      "inputs": [
        {
          "indexed": true,
          "internalType": "address",
          "name": "previousOwner",
          "type": "address"
        },
        {
          "indexed": true,
          "internalType": "address",
          "name": "newOwner",
          "type": "address"
        }
      ],
      "name": "OwnershipTransferred",
      "type": "event"
    },
    {
      "anonymous": false,
      "inputs": [
        {
          "indexed": true,
          "internalType": "address",
          "name": "holder",
          "type": "address"
        },
        {
          "indexed": false,
          "internalType": "uint256",
          "name": "amount",
          "type": "uint256"
        }
      ],
      "name": "Refunded",
      "type": "event"
    },
    {
      "payable": true,
      "stateMutability": "payable",
      "type": "fallback"
    },
    {
      "constant": true,
      "inputs": [],
      "name": "VAMP",
      "outputs": [
        {
          "internalType": "contract IERC20",
          "name": "",
          "type": "address"
        }
      ],
      "payable": false,
      "stateMutability": "view",
      "type": "function"
    },
    {
      "constant": true,
      "inputs": [],
      "name": "beneficiary",
      "outputs": [
        {
          "internalType": "address",
          "name": "",
          "type": "address"
        }
      ],
      "payable": false,
      "stateMutability": "view",
      "type": "function"
    },
    {
      "constant": true,
      "inputs": [],
      "name": "collector",
      "outputs": [
        {
          "internalType": "address",
          "name": "",
          "type": "address"
        }
      ],
      "payable": false,
      "stateMutability": "view",
      "type": "function"
    },
    {
      "constant": true,
      "inputs": [],
      "name": "crowdsaleFinished",
      "outputs": [
        {
          "internalType": "bool",
          "name": "",
          "type": "bool"
        }
      ],
      "payable": false,
      "stateMutability": "view",
      "type": "function"
    },
    {
      "constant": true,
      "inputs": [],
      "name": "endTime",
      "outputs": [
        {
          "internalType": "uint256",
          "name": "",
          "type": "uint256"
        }
      ],
      "payable": false,
      "stateMutability": "view",
      "type": "function"
    },
    {
      "constant": true,
      "inputs": [],
      "name": "hardCap",
      "outputs": [
        {
          "internalType": "uint256",
          "name": "",
          "type": "uint256"
        }
      ],
      "payable": false,
      "stateMutability": "view",
      "type": "function"
    },
    {
      "constant": true,
      "inputs": [],
      "name": "investorCount",
      "outputs": [
        {
          "internalType": "uint256",
          "name": "",
          "type": "uint256"
        }
      ],
      "payable": false,
      "stateMutability": "view",
      "type": "function"
    },
    {
      "constant": true,
      "inputs": [],
      "name": "isOwner",
      "outputs": [
        {
          "internalType": "bool",
          "name": "",
          "type": "bool"
        }
      ],
      "payable": false,
      "stateMutability": "view",
      "type": "function"
    },
    {
      "constant": true,
      "inputs": [],
      "name": "name",
      "outputs": [
        {
          "internalType": "string",
          "name": "",
          "type": "string"
        }
      ],
      "payable": false,
      "stateMutability": "view",
      "type": "function"
    },
    {
      "constant": true,
      "inputs": [],
      "name": "owner",
      "outputs": [
        {
          "internalType": "address",
          "name": "",
          "type": "address"
        }
      ],
      "payable": false,
      "stateMutability": "view",
      "type": "function"
    },
    {
      "constant": true,
      "inputs": [],
      "name": "purchaseLimitStageOne",
      "outputs": [
        {
          "internalType": "uint256",
          "name": "",
          "type": "uint256"
        }
      ],
      "payable": false,
      "stateMutability": "view",
      "type": "function"
    },
    {
      "constant": true,
      "inputs": [],
      "name": "purchaseLimitStageThree",
      "outputs": [
        {
          "internalType": "uint256",
          "name": "",
          "type": "uint256"
        }
      ],
      "payable": false,
      "stateMutability": "view",
      "type": "function"
    },
    {
      "constant": true,
      "inputs": [],
      "name": "purchaseLimitStageTwo",
      "outputs": [
        {
          "internalType": "uint256",
          "name": "",
          "type": "uint256"
        }
      ],
      "payable": false,
      "stateMutability": "view",
      "type": "function"
    },
    {
      "constant": false,
      "inputs": [],
      "name": "renounceOwnership",
      "outputs": [],
      "payable": false,
      "stateMutability": "nonpayable",
      "type": "function"
    },
    {
      "constant": true,
      "inputs": [],
      "name": "softCap",
      "outputs": [
        {
          "internalType": "uint256",
          "name": "",
          "type": "uint256"
        }
      ],
      "payable": false,
      "stateMutability": "view",
      "type": "function"
    },
    {
      "constant": true,
      "inputs": [],
      "name": "softCapReached",
      "outputs": [
        {
          "internalType": "bool",
          "name": "",
          "type": "bool"
        }
      ],
      "payable": false,
      "stateMutability": "view",
      "type": "function"
    },
    {
      "constant": true,
      "inputs": [],
      "name": "stageOne",
      "outputs": [
        {
          "internalType": "uint256",
          "name": "",
          "type": "uint256"
        }
      ],
      "payable": false,
      "stateMutability": "view",
      "type": "function"
    },
    {
      "constant": true,
      "inputs": [],
      "name": "stageTwo",
      "outputs": [
        {
          "internalType": "uint256",
          "name": "",
          "type": "uint256"
        }
      ],
      "payable": false,
      "stateMutability": "view",
      "type": "function"
    },
    {
      "constant": true,
      "inputs": [],
      "name": "startTime",
      "outputs": [
        {
          "internalType": "uint256",
          "name": "",
          "type": "uint256"
        }
      ],
      "payable": false,
      "stateMutability": "view",
      "type": "function"
    },
    {
      "constant": true,
      "inputs": [],
      "name": "timeHardCapReached",
      "outputs": [
        {
          "internalType": "uint256",
          "name": "",
          "type": "uint256"
        }
      ],
      "payable": false,
      "stateMutability": "view",
      "type": "function"
    },
    {
      "constant": true,
      "inputs": [],
      "name": "tokensPerUSDT",
      "outputs": [
        {
          "internalType": "uint256",
          "name": "",
          "type": "uint256"
        }
      ],
      "payable": false,
      "stateMutability": "view",
      "type": "function"
    },
    {
      "constant": true,
      "inputs": [],
      "name": "tokensSold",
      "outputs": [
        {
          "internalType": "uint256",
          "name": "",
          "type": "uint256"
        }
      ],
      "payable": false,
      "stateMutability": "view",
      "type": "function"
    },
    {
      "constant": false,
      "inputs": [
        {
          "internalType": "address",
          "name": "newOwner",
          "type": "address"
        }
      ],
      "name": "transferOwnership",
      "outputs": [],
      "payable": false,
      "stateMutability": "nonpayable",
      "type": "function"
    },
    {
      "constant": true,
      "inputs": [],
      "name": "usdt",
      "outputs": [
        {
          "internalType": "contract IERC20",
          "name": "",
          "type": "address"
        }
      ],
      "payable": false,
      "stateMutability": "view",
      "type": "function"
    },
    {
      "constant": true,
      "inputs": [],
      "name": "usdtRaised",
      "outputs": [
        {
          "internalType": "uint256",
          "name": "",
          "type": "uint256"
        }
      ],
      "payable": false,
      "stateMutability": "view",
      "type": "function"
    },
    {
      "constant": true,
      "inputs": [],
      "name": "weiRefunded",
      "outputs": [
        {
          "internalType": "uint256",
          "name": "",
          "type": "uint256"
        }
      ],
      "payable": false,
      "stateMutability": "view",
      "type": "function"
    },
    {
      "constant": true,
      "inputs": [],
      "name": "canClaim",
      "outputs": [
        {
          "internalType": "bool",
          "name": "",
          "type": "bool"
        }
      ],
      "payable": false,
      "stateMutability": "view",
      "type": "function"
    },
    {
      "constant": false,
      "inputs": [
        {
          "internalType": "address[]",
          "name": "_addresses",
          "type": "address[]"
        }
      ],
      "name": "addWhiteListedAddresses",
      "outputs": [],
      "payable": false,
      "stateMutability": "nonpayable",
      "type": "function"
    },
    {
      "constant": true,
      "inputs": [
        {
          "internalType": "address",
          "name": "_address",
          "type": "address"
        }
      ],
      "name": "isWhitelisted",
      "outputs": [
        {
          "internalType": "bool",
          "name": "",
          "type": "bool"
        }
      ],
      "payable": false,
      "stateMutability": "view",
      "type": "function"
    },
    {
      "constant": true,
      "inputs": [
        {
          "internalType": "uint256",
          "name": "amount",
          "type": "uint256"
        }
      ],
      "name": "simulatebuy",
      "outputs": [
        {
          "internalType": "uint256",
          "name": "",
          "type": "uint256"
        }
      ],
      "payable": false,
      "stateMutability": "view",
      "type": "function"
    },
    {
      "constant": true,
      "inputs": [
        {
          "internalType": "address",
          "name": "_address",
          "type": "address"
        }
      ],
      "name": "tokensBought",
      "outputs": [
        {
          "internalType": "uint256",
          "name": "",
          "type": "uint256"
        }
      ],
      "payable": false,
      "stateMutability": "view",
      "type": "function"
    },
    {
      "constant": true,
      "inputs": [],
      "name": "tokensAlreadySold",
      "outputs": [
        {
          "internalType": "uint256",
          "name": "",
          "type": "uint256"
        }
      ],
      "payable": false,
      "stateMutability": "view",
      "type": "function"
    },
    {
      "constant": true,
      "inputs": [],
      "name": "raisedUSDT",
      "outputs": [
        {
          "internalType": "uint256",
          "name": "",
          "type": "uint256"
        }
      ],
      "payable": false,
      "stateMutability": "view",
      "type": "function"
    },
    {
      "constant": true,
      "inputs": [
        {
          "internalType": "address",
          "name": "_address",
          "type": "address"
        }
      ],
      "name": "usdtDeposited",
      "outputs": [
        {
          "internalType": "uint256",
          "name": "",
          "type": "uint256"
        }
      ],
      "payable": false,
      "stateMutability": "view",
      "type": "function"
    },
    {
      "constant": true,
      "inputs": [],
      "name": "getStage",
      "outputs": [
        {
          "internalType": "uint256",
          "name": "",
          "type": "uint256"
        }
      ],
      "payable": false,
      "stateMutability": "view",
      "type": "function"
    },
    {
      "constant": false,
      "inputs": [],
      "name": "withdrawTokens",
      "outputs": [],
      "payable": false,
      "stateMutability": "nonpayable",
      "type": "function"
    },
    {
      "constant": false,
      "inputs": [],
      "name": "claimTokens",
      "outputs": [],
      "payable": false,
      "stateMutability": "nonpayable",
      "type": "function"
    },
    {
      "constant": false,
      "inputs": [
        {
          "internalType": "uint256",
          "name": "amount",
          "type": "uint256"
        }
      ],
      "name": "purchase",
      "outputs": [],
      "payable": false,
      "stateMutability": "nonpayable",
      "type": "function"
    }
  ],
  "bytecode": "0x600180546001600160a01b0319908116731e323a06f806b76ce96bd103258f2adae70957f11790915560028054909116738d6cf44b6ca55550b96c4599b00b47a8ec67c59617905560c0604052600c60808190526b56414d502050726573616c6560a01b60a0908152620000779160039190620001aa565b50600480546001600160a01b0319167395100cf1ffe1732145d907729a79bf83382048e2179055631dcd65006009556377359400600a556402540be400600b556000600c819055600d819055600e819055600f55611c206012556138406013556015805461ffff19169055348015620000ef57600080fd5b5060405162001a3b38038062001a3b833981810160405260408110156200011557600080fd5b508051602090910151620001316001600160e01b03620001a516565b600080546001600160a01b0319166001600160a01b03928316178082556040519216917f8be0079c531659141344cd1fd0a4f28419497f9722a3daafe3b4186f6b6457e0908290a364800e8dfc006006556509184e72a00060085560108190556202a300016011819055601455506200024c565b335b90565b828054600181600116156101000203166002900490600052602060002090601f016020900481019282601f10620001ed57805160ff19168380011785556200021d565b828001600101855582156200021d579182015b828111156200021d57825182559160200191906001019062000200565b506200022b9291506200022f565b5090565b620001a791905b808211156200022b576000815560010162000236565b6117df806200025c6000396000f3fe6080604052600436106102255760003560e01c8063660aa91011610123578063a4e10c05116100ab578063efef39a11161006f578063efef39a1146106e1578063f2fde38b1461070b578063f51aab001461073e578063fb86a40414610753578063fcaa76641461076857610225565b8063a4e10c0514610645578063c04debac1461065a578063c4f04bd51461068d578063d7e64c00146106b7578063ece84fd5146106cc57610225565b80638d8f2adb116100f25780638d8f2adb146105dc5780638da5cb5b146105f15780638f32d59b14610606578063906a26e01461061b578063913e77ad1461063057610225565b8063660aa910146105885780636dc7a6271461059d578063715018a6146105b257806378e97925146105c757610225565b80632f48ab7d116101b15780633c807878116101755780633c8078781461051f5780633f1e5bcc1461053457806348c54b9d14610549578063518ab2a81461055e5780635da89ac01461057357610225565b80632f48ab7d1461047c5780633197cbb6146104ad57806338af3eed146104c25780633af32abf146104d75780633b895f281461050a57610225565b80630fe7bdaf116101f85780630fe7bdaf146103e15780631a1986e0146103f6578063264d77971461040b57806328dced111461043e5780632b9edee91461045357610225565b80630215d2961461026957806306fdde03146102905780630bcb106a1461031a5780630ec1ecac146103cc575b6040805162461bcd60e51b81526020600482015260146024820152730dcdee840e0eae4c6d0c2e6cac840c4f240cae8d60631b604482015290519081900360640190fd5b34801561027557600080fd5b5061027e61077d565b60408051918252519081900360200190f35b34801561029c57600080fd5b506102a5610783565b6040805160208082528351818301528351919283929083019185019080838360005b838110156102df5781810151838201526020016102c7565b50505050905090810190601f16801561030c5780820380516001836020036101000a031916815260200191505b509250505060405180910390f35b34801561032657600080fd5b506103ca6004803603602081101561033d57600080fd5b81019060208101813564010000000081111561035857600080fd5b82018360208201111561036a57600080fd5b8035906020019184602083028401116401000000008311171561038c57600080fd5b919080806020026020016040519081016040528093929190818152602001838360200280828437600092019190915250929550610811945050505050565b005b3480156103d857600080fd5b5061027e6108c2565b3480156103ed57600080fd5b5061027e6108c8565b34801561040257600080fd5b5061027e6108ce565b34801561041757600080fd5b5061027e6004803603602081101561042e57600080fd5b50356001600160a01b03166108d4565b34801561044a57600080fd5b5061027e6108f3565b34801561045f57600080fd5b506104686108f9565b604080519115158252519081900360200190f35b34801561048857600080fd5b50610491610902565b604080516001600160a01b039092168252519081900360200190f35b3480156104b957600080fd5b5061027e610911565b3480156104ce57600080fd5b50610491610917565b3480156104e357600080fd5b50610468600480360360208110156104fa57600080fd5b50356001600160a01b0316610926565b34801561051657600080fd5b5061027e610957565b34801561052b57600080fd5b5061027e61095d565b34801561054057600080fd5b5061027e610963565b34801561055557600080fd5b506103ca61096a565b34801561056a57600080fd5b5061027e610a36565b34801561057f57600080fd5b5061027e610a3c565b34801561059457600080fd5b50610491610a42565b3480156105a957600080fd5b50610468610a51565b3480156105be57600080fd5b506103ca610a7e565b3480156105d357600080fd5b5061027e610b0f565b3480156105e857600080fd5b506103ca610b15565b3480156105fd57600080fd5b50610491610c0a565b34801561061257600080fd5b50610468610c19565b34801561062757600080fd5b5061027e610c3d565b34801561063c57600080fd5b50610491610c43565b34801561065157600080fd5b5061027e610c52565b34801561066657600080fd5b5061027e6004803603602081101561067d57600080fd5b50356001600160a01b0316610c58565b34801561069957600080fd5b5061027e600480360360208110156106b057600080fd5b5035610c91565b3480156106c357600080fd5b5061027e610c98565b3480156106d857600080fd5b50610468610c9e565b3480156106ed57600080fd5b506103ca6004803603602081101561070457600080fd5b5035610cac565b34801561071757600080fd5b506103ca6004803603602081101561072e57600080fd5b50356001600160a01b0316610cb5565b34801561074a57600080fd5b5061027e610d05565b34801561075f57600080fd5b5061027e610d0b565b34801561077457600080fd5b5061027e610d11565b600a5481565b6003805460408051602060026001851615610100026000190190941693909304601f810184900484028201840190925281815292918301828280156108095780601f106107de57610100808354040283529160200191610809565b820191906000526020600020905b8154815290600101906020018083116107ec57829003601f168201915b505050505081565b610819610c19565b610858576040805162461bcd60e51b815260206004820181905260248201526000805160206116fd833981519152604482015290519081900360640190fd5b600081511161086657600080fd5b60005b81518110156108be5760016018600084848151811061088457fe5b6020908102919091018101516001600160a01b03168252810191909152604001600020805460ff1916911515919091179055600101610869565b5050565b600d5481565b60095481565b60085481565b6001600160a01b0381166000908152601960205260409020545b919050565b600b5481565b60155460ff1681565b6001546001600160a01b031681565b60115481565b6005546001600160a01b031681565b6001600160a01b03811660009081526018602052604081205460ff161561094f575060016108ee565b5060006108ee565b60135481565b60125481565b600d545b90565b60145461097f42610e1063ffffffff610d8516565b101561098a57600080fd5b61099333610926565b156109e65733600090815260176020526040902054156109e657336000818152601760205260409020546004546109d5926001600160a01b0390911691610de6565b336000908152601760205260408120555b3360009081526016602052604090205415610a345733600081815260166020526040902054600454610a23926001600160a01b0390911691610de6565b336000908152601660205260408120555b565b600c5481565b600f5481565b6004546001600160a01b031681565b601454600090610a6942610e1063ffffffff610d8516565b10610a7657506001610967565b506000610967565b610a86610c19565b610ac5576040805162461bcd60e51b815260206004820181905260248201526000805160206116fd833981519152604482015290519081900360640190fd5b600080546040516001600160a01b03909116907f8be0079c531659141344cd1fd0a4f28419497f9722a3daafe3b4186f6b6457e0908390a3600080546001600160a01b0319169055565b60105481565b610b1d610c19565b610b5c576040805162461bcd60e51b815260206004820181905260248201526000805160206116fd833981519152604482015290519081900360640190fd5b60145480421015610b6c57600080fd5b60025460048054604080516370a0823160e01b8152309381019390935251610c07936001600160a01b03908116939216916370a08231916024808301926020929190829003018186803b158015610bc257600080fd5b505afa158015610bd6573d6000803e3d6000fd5b505050506040513d6020811015610bec57600080fd5b50516004546001600160a01b0316919063ffffffff610de616565b50565b6000546001600160a01b031690565b600080546001600160a01b0316610c2e610e3d565b6001600160a01b031614905090565b60075481565b6002546001600160a01b031681565b600c5490565b6001600160a01b0381166000908152601660209081526040808320546017909252822054610c8b9163ffffffff610d8516565b92915050565b6008540290565b600e5481565b601554610100900460ff1681565b610c0781610e41565b610cbd610c19565b610cfc576040805162461bcd60e51b815260206004820181905260248201526000805160206116fd833981519152604482015290519081900360640190fd5b610c0781611368565b60145481565b60065481565b6000610d2a601254601054610d8590919063ffffffff16565b4211610d3857506001610967565b601254601054610d4d9163ffffffff610d8516565b4210158015610d705750601354601054610d6c9163ffffffff610d8516565b4211155b15610d7d57506002610967565b506003610967565b600082820183811015610ddf576040805162461bcd60e51b815260206004820152601b60248201527f536166654d6174683a206164646974696f6e206f766572666c6f770000000000604482015290519081900360640190fd5b9392505050565b604080516001600160a01b038416602482015260448082018490528251808303909101815260649091019091526020810180516001600160e01b031663a9059cbb60e01b179052610e38908490611408565b505050565b3390565b60105480421015610e5157600080fd5b60115480421115610e6157600080fd5b601554610100900460ff1615610e7357fe5b600654600d54610e89908563ffffffff610d8516565b1115610ec65760405162461bcd60e51b81526004018080602001828103825260278152602001806116b46027913960400191505060405180910390fd5b601254601054610edb9163ffffffff610d8516565b4211158015610eee5750610eee33610926565b156110475760085460095490840290841115610f51576040805162461bcd60e51b815260206004820181905260248201527f4f766572207075726368617365206c696d697420696e207374616765206f6e65604482015290519081900360640190fd5b60095433600090815260176020526040902054610f74908663ffffffff610d8516565b1115610fb15760405162461bcd60e51b815260040180806020018281038252603181526020018061171d6031913960400191505060405180910390fd5b600254600154610fd6916001600160a01b03918216913391168763ffffffff6115c616565b33600090815260176020526040902054610ff6908563ffffffff610d8516565b33600090815260176020526040902055600d54611019908563ffffffff610d8516565b600d55600c5461102f908263ffffffff610d8516565b600c5533600090815260196020526040902055611310565b60125460105461105c9163ffffffff610d8516565b421015801561107f575060135460105461107b9163ffffffff610d8516565b4211155b156111d557600854600a54908402908411156110e2576040805162461bcd60e51b815260206004820181905260248201527f4f766572207075726368617365206c696d697420696e2073746167652074776f604482015290519081900360640190fd5b600a5433600090815260166020526040902054611105908663ffffffff610d8516565b11156111425760405162461bcd60e51b81526004018080602001828103825260318152602001806116836031913960400191505060405180910390fd5b600254600154611167916001600160a01b03918216913391168763ffffffff6115c616565b33600090815260166020526040902054611187908563ffffffff610d8516565b33600090815260166020526040902055600d546111aa908563ffffffff610d8516565b600d55336000908152601660205260409020805482019055600c5461102f908263ffffffff610d8516565b6013546010546111ea9163ffffffff610d8516565b42111561131057600b548311156112325760405162461bcd60e51b81526004018080602001828103825260228152602001806116db6022913960400191505060405180910390fd5b600b5433600090815260166020526040902054611255908563ffffffff610d8516565b11156112925760405162461bcd60e51b815260040180806020018281038252603381526020018061174e6033913960400191505060405180910390fd5b600854600254600154918502916112be916001600160a01b03918216913391168763ffffffff6115c616565b600d546112d1908563ffffffff610d8516565b600d55336000908152601660205260409020805482019055600c546112fc908263ffffffff610d8516565b600c55336000908152601960205260409020555b600654600d541415610e38574260148190556015805461ff00191661010017905560408051918252517f4f27c566270debe1b8a29c9ff8413f6e10dc1757ddfb9e667cc2cc205042946d9181900360200190a1505050565b6001600160a01b0381166113ad5760405162461bcd60e51b815260040180806020018281038252602681526020018061165d6026913960400191505060405180910390fd5b600080546040516001600160a01b03808516939216917f8be0079c531659141344cd1fd0a4f28419497f9722a3daafe3b4186f6b6457e091a3600080546001600160a01b0319166001600160a01b0392909216919091179055565b61141a826001600160a01b0316611620565b61146b576040805162461bcd60e51b815260206004820152601f60248201527f5361666545524332303a2063616c6c20746f206e6f6e2d636f6e747261637400604482015290519081900360640190fd5b60006060836001600160a01b0316836040518082805190602001908083835b602083106114a95780518252601f19909201916020918201910161148a565b6001836020036101000a0380198251168184511680821785525050505050509050019150506000604051808303816000865af19150503d806000811461150b576040519150601f19603f3d011682016040523d82523d6000602084013e611510565b606091505b509150915081611567576040805162461bcd60e51b815260206004820181905260248201527f5361666545524332303a206c6f772d6c6576656c2063616c6c206661696c6564604482015290519081900360640190fd5b8051156115c05780806020019051602081101561158357600080fd5b50516115c05760405162461bcd60e51b815260040180806020018281038252602a815260200180611781602a913960400191505060405180910390fd5b50505050565b604080516001600160a01b0385811660248301528416604482015260648082018490528251808303909101815260849091019091526020810180516001600160e01b03166323b872dd60e01b1790526115c0908590611408565b6000813f7fc5d2460186f7233c927e7db2dcc703c0e500b653ca82273b7bfad8045d85a47081158015906116545750808214155b94935050505056fe4f776e61626c653a206e6577206f776e657220697320746865207a65726f206164647265737363616e2774207075726368617365206d6f7265207468616e20616c6c6f77656420616d6f756e742073746167652074776f63616e74206465706f73697420776974686f75742074726967676572696e6720686172646361704f766572207075726368617365206c696d697420696e2073746167652074687265654f776e61626c653a2063616c6c6572206973206e6f7420746865206f776e657263616e2774207075726368617365206d6f7265207468616e20616c6c6f77656420616d6f756e74207374616765206f6e6563616e2774207075726368617365206d6f7265207468616e20616c6c6f77656420616d6f756e742073746167652074687265655361666545524332303a204552433230206f7065726174696f6e20646964206e6f742073756363656564a265627a7a72315820d16a39ea5ee31e3bae2acfd7669399862eed36c286198d7e9c1d11ac15cc711964736f6c63430005110032",
  "source": "pragma solidity ^0.5.17;\n\n/**\n * Math operations with safety checks\n */\nlibrary SafeMath {\n    /**\n     * @dev Returns the addition of two unsigned integers, reverting on\n     * overflow.\n     *\n     * Counterpart to Solidity's `+` operator.\n     *\n     * Requirements:\n     * - Addition cannot overflow.\n     */\n    function add(uint256 a, uint256 b) internal pure returns (uint256) {\n        uint256 c = a + b;\n        require(c >= a, \"SafeMath: addition overflow\");\n\n        return c;\n    }\n\n    /**\n     * @dev Returns the subtraction of two unsigned integers, reverting on\n     * overflow (when the result is negative).\n     *\n     * Counterpart to Solidity's `-` operator.\n     *\n     * Requirements:\n     * - Subtraction cannot overflow.\n     */\n    function sub(uint256 a, uint256 b) internal pure returns (uint256) {\n        return sub(a, b, \"SafeMath: subtraction overflow\");\n    }\n\n    /**\n     * @dev Returns the subtraction of two unsigned integers, reverting with custom message on\n     * overflow (when the result is negative).\n     *\n     * Counterpart to Solidity's `-` operator.\n     *\n     * Requirements:\n     * - Subtraction cannot overflow.\n     *\n     * _Available since v2.4.0._\n     */\n    function sub(uint256 a, uint256 b, string memory errorMessage) internal pure returns (uint256) {\n        require(b <= a, errorMessage);\n        uint256 c = a - b;\n\n        return c;\n    }\n\n    /**\n     * @dev Returns the multiplication of two unsigned integers, reverting on\n     * overflow.\n     *\n     * Counterpart to Solidity's `*` operator.\n     *\n     * Requirements:\n     * - Multiplication cannot overflow.\n     */\n    function mul(uint256 a, uint256 b) internal pure returns (uint256) {\n        // Gas optimization: this is cheaper than requiring 'a' not being zero, but the\n        // benefit is lost if 'b' is also tested.\n        // See: https://github.com/OpenZeppelin/openzeppelin-contracts/pull/522\n        if (a == 0) {\n            return 0;\n        }\n\n        uint256 c = a * b;\n        require(c / a == b, \"SafeMath: multiplication overflow\");\n\n        return c;\n    }\n\n    /**\n     * @dev Returns the integer division of two unsigned integers. Reverts on\n     * division by zero. The result is rounded towards zero.\n     *\n     * Counterpart to Solidity's `/` operator. Note: this function uses a\n     * `revert` opcode (which leaves remaining gas untouched) while Solidity\n     * uses an invalid opcode to revert (consuming all remaining gas).\n     *\n     * Requirements:\n     * - The divisor cannot be zero.\n     */\n    function div(uint256 a, uint256 b) internal pure returns (uint256) {\n        return div(a, b, \"SafeMath: division by zero\");\n    }\n\n    /**\n     * @dev Returns the integer division of two unsigned integers. Reverts with custom message on\n     * division by zero. The result is rounded towards zero.\n     *\n     * Counterpart to Solidity's `/` operator. Note: this function uses a\n     * `revert` opcode (which leaves remaining gas untouched) while Solidity\n     * uses an invalid opcode to revert (consuming all remaining gas).\n     *\n     * Requirements:\n     * - The divisor cannot be zero.\n     *\n     * _Available since v2.4.0._\n     */\n    function div(uint256 a, uint256 b, string memory errorMessage) internal pure returns (uint256) {\n        // Solidity only automatically asserts when dividing by 0\n        require(b > 0, errorMessage);\n        uint256 c = a / b;\n        // assert(a == b * c + a % b); // There is no case in which this doesn't hold\n\n        return c;\n    }\n\n    /**\n     * @dev Returns the remainder of dividing two unsigned integers. (unsigned integer modulo),\n     * Reverts when dividing by zero.\n     *\n     * Counterpart to Solidity's `%` operator. This function uses a `revert`\n     * opcode (which leaves remaining gas untouched) while Solidity uses an\n     * invalid opcode to revert (consuming all remaining gas).\n     *\n     * Requirements:\n     * - The divisor cannot be zero.\n     */\n    function mod(uint256 a, uint256 b) internal pure returns (uint256) {\n        return mod(a, b, \"SafeMath: modulo by zero\");\n    }\n\n    /**\n     * @dev Returns the remainder of dividing two unsigned integers. (unsigned integer modulo),\n     * Reverts with custom message when dividing by zero.\n     *\n     * Counterpart to Solidity's `%` operator. This function uses a `revert`\n     * opcode (which leaves remaining gas untouched) while Solidity uses an\n     * invalid opcode to revert (consuming all remaining gas).\n     *\n     * Requirements:\n     * - The divisor cannot be zero.\n     *\n     * _Available since v2.4.0._\n     */\n    function mod(uint256 a, uint256 b, string memory errorMessage) internal pure returns (uint256) {\n        require(b != 0, errorMessage);\n        return a % b;\n    }\n}\n\ninterface IERC20 {\n    /**\n     * @dev Returns the amount of tokens in existence.\n     */\n    function totalSupply() external view returns (uint256);\n\n    /**\n     * @dev Returns the amount of tokens owned by `account`.\n     */\n    function balanceOf(address account) external view returns (uint256);\n\n    /**\n     * @dev Moves `amount` tokens from the caller's account to `recipient`.\n     *\n     * Returns a boolean value indicating whether the operation succeeded.\n     *\n     * Emits a {Transfer} event.\n     */\n    function transfer(address recipient, uint256 amount)\n        external\n        returns (bool);\n\n    function mint(address account, uint256 amount) external;\n\n    /**\n     * @dev Returns the remaining number of tokens that `spender` will be\n     * allowed to spend on behalf of `owner` through {transferFrom}. This is\n     * zero by default.\n     *\n     * This value changes when {approve} or {transferFrom} are called.\n     */\n    function allowance(address owner, address spender)\n        external\n        view\n        returns (uint256);\n\n    /**\n     * @dev Sets `amount` as the allowance of `spender` over the caller's tokens.\n     *\n     * Returns a boolean value indicating whether the operation succeeded.\n     *\n     * IMPORTANT: Beware that changing an allowance with this method brings the risk\n     * that someone may use both the old and the new allowance by unfortunate\n     * transaction ordering. One possible solution to mitigate this race\n     * condition is to first reduce the spender's allowance to 0 and set the\n     * desired value afterwards:\n     * https://github.com/ethereum/EIPs/issues/20#issuecomment-263524729\n     *\n     * Emits an {Approval} event.\n     */\n    function approve(address spender, uint256 amount) external returns (bool);\n\n    /**\n     * @dev Moves `amount` tokens from `sender` to `recipient` using the\n     * allowance mechanism. `amount` is then deducted from the caller's\n     * allowance.\n     *\n     * Returns a boolean value indicating whether the operation succeeded.\n     *\n     * Emits a {Transfer} event.\n     */\n    function transferFrom(\n        address sender,\n        address recipient,\n        uint256 amount\n    ) external returns (bool);\n\n    /**\n     * @dev Emitted when `value` tokens are moved from one account (`from`) to\n     * another (`to`).\n     *\n     * Note that `value` may be zero.\n     */\n    event Transfer(address indexed from, address indexed to, uint256 value);\n\n    /**\n     * @dev Emitted when the allowance of a `spender` for an `owner` is set by\n     * a call to {approve}. `value` is the new allowance.\n     */\n    event Approval(\n        address indexed owner,\n        address indexed spender,\n        uint256 value\n    );\n}\n\n// File: @openzeppelin/contracts/utils/Address.sol\n\npragma solidity ^0.5.5;\n\n/**\n * @dev Collection of functions related to the address type\n */\nlibrary Address {\n    /**\n     * @dev Returns true if `account` is a contract.\n     *\n     * This test is non-exhaustive, and there may be false-negatives: during the\n     * execution of a contract's constructor, its address will be reported as\n     * not containing a contract.\n     *\n     * IMPORTANT: It is unsafe to assume that an address for which this\n     * function returns false is an externally-owned account (EOA) and not a\n     * contract.\n     */\n    function isContract(address account) internal view returns (bool) {\n        // This method relies in extcodesize, which returns 0 for contracts in\n        // construction, since the code is only stored at the end of the\n        // constructor execution.\n\n        // According to EIP-1052, 0x0 is the value returned for not-yet created accounts\n        // and 0xc5d2460186f7233c927e7db2dcc703c0e500b653ca82273b7bfad8045d85a470 is returned\n        // for accounts without code, i.e. `keccak256('')`\n        bytes32 codehash;\n\n            bytes32 accountHash\n         = 0xc5d2460186f7233c927e7db2dcc703c0e500b653ca82273b7bfad8045d85a470;\n        // solhint-disable-next-line no-inline-assembly\n        assembly {\n            codehash := extcodehash(account)\n        }\n        return (codehash != 0x0 && codehash != accountHash);\n    }\n\n    /**\n     * @dev Converts an `address` into `address payable`. Note that this is\n     * simply a type cast: the actual underlying value is not changed.\n     *\n     * _Available since v2.4.0._\n     */\n    function toPayable(address account)\n        internal\n        pure\n        returns (address payable)\n    {\n        return address(uint160(account));\n    }\n\n    /**\n     * @dev Replacement for Solidity's `transfer`: sends `amount` wei to\n     * `recipient`, forwarding all available gas and reverting on errors.\n     *\n     * https://eips.ethereum.org/EIPS/eip-1884[EIP1884] increases the gas cost\n     * of certain opcodes, possibly making contracts go over the 2300 gas limit\n     * imposed by `transfer`, making them unable to receive funds via\n     * `transfer`. {sendValue} removes this limitation.\n     *\n     * https://diligence.consensys.net/posts/2019/09/stop-using-soliditys-transfer-now/[Learn more].\n     *\n     * IMPORTANT: because control is transferred to `recipient`, care must be\n     * taken to not create reentrancy vulnerabilities. Consider using\n     * {ReentrancyGuard} or the\n     * https://solidity.readthedocs.io/en/v0.5.11/security-considerations.html#use-the-checks-effects-interactions-pattern[checks-effects-interactions pattern].\n     *\n     * _Available since v2.4.0._\n     */\n    function sendValue(address payable recipient, uint256 amount) internal {\n        require(\n            address(this).balance >= amount,\n            \"Address: insufficient balance\"\n        );\n\n        // solhint-disable-next-line avoid-call-value\n        (bool success, ) = recipient.call.value(amount)(\"\");\n        require(\n            success,\n            \"Address: unable to send value, recipient may have reverted\"\n        );\n    }\n}\n\n// File: @openzeppelin/contracts/token/ERC20/SafeERC20.sol\n\npragma solidity ^0.5.0;\n\n/**\n * @title SafeERC20\n * @dev Wrappers around ERC20 operations that throw on failure (when the token\n * contract returns false). Tokens that return no value (and instead revert or\n * throw on failure) are also supported, non-reverting calls are assumed to be\n * successful.\n * To use this library you can add a `using SafeERC20 for ERC20;` statement to your contract,\n * which allows you to call the safe operations as `token.safeTransfer(...)`, etc.\n */\nlibrary SafeERC20 {\n    using SafeMath for uint256;\n    using Address for address;\n\n    function safeTransfer(\n        IERC20 token,\n        address to,\n        uint256 value\n    ) internal {\n        callOptionalReturn(\n            token,\n            abi.encodeWithSelector(token.transfer.selector, to, value)\n        );\n    }\n\n    function safeTransferFrom(\n        IERC20 token,\n        address from,\n        address to,\n        uint256 value\n    ) internal {\n        callOptionalReturn(\n            token,\n            abi.encodeWithSelector(token.transferFrom.selector, from, to, value)\n        );\n    }\n\n    function safeApprove(\n        IERC20 token,\n        address spender,\n        uint256 value\n    ) internal {\n        // safeApprove should only be called when setting an initial allowance,\n        // or when resetting it to zero. To increase and decrease it, use\n        // 'safeIncreaseAllowance' and 'safeDecreaseAllowance'\n        // solhint-disable-next-line max-line-length\n        require(\n            (value == 0) || (token.allowance(address(this), spender) == 0),\n            \"SafeERC20: approve from non-zero to non-zero allowance\"\n        );\n        callOptionalReturn(\n            token,\n            abi.encodeWithSelector(token.approve.selector, spender, value)\n        );\n    }\n\n    function safeIncreaseAllowance(\n        IERC20 token,\n        address spender,\n        uint256 value\n    ) internal {\n        uint256 newAllowance = token.allowance(address(this), spender).add(\n            value\n        );\n        callOptionalReturn(\n            token,\n            abi.encodeWithSelector(\n                token.approve.selector,\n                spender,\n                newAllowance\n            )\n        );\n    }\n\n    function safeDecreaseAllowance(\n        IERC20 token,\n        address spender,\n        uint256 value\n    ) internal {\n        uint256 newAllowance = token.allowance(address(this), spender).sub(\n            value,\n            \"SafeERC20: decreased allowance below zero\"\n        );\n        callOptionalReturn(\n            token,\n            abi.encodeWithSelector(\n                token.approve.selector,\n                spender,\n                newAllowance\n            )\n        );\n    }\n\n    /**\n     * @dev Imitates a Solidity high-level call (i.e. a regular function call to a contract), relaxing the requirement\n     * on the return value: the return value is optional (but if data is returned, it must not be false).\n     * @param token The token targeted by the call.\n     * @param data The call data (encoded using abi.encode or one of its variants).\n     */\n    function callOptionalReturn(IERC20 token, bytes memory data) private {\n        // We need to perform a low level call here, to bypass Solidity's return data size checking mechanism, since\n        // we're implementing it ourselves.\n\n        // A Solidity high level call has three parts:\n        //  1. The target address is checked to verify it contains contract code\n        //  2. The call itself is made, and success asserted\n        //  3. The return value is decoded, which in turn checks the size of the returned data.\n        // solhint-disable-next-line max-line-length\n        require(address(token).isContract(), \"SafeERC20: call to non-contract\");\n\n        // solhint-disable-next-line avoid-low-level-calls\n        (bool success, bytes memory returndata) = address(token).call(data);\n        require(success, \"SafeERC20: low-level call failed\");\n\n        if (returndata.length > 0) {\n            // Return data is optional\n            // solhint-disable-next-line max-line-length\n            require(\n                abi.decode(returndata, (bool)),\n                \"SafeERC20: ERC20 operation did not succeed\"\n            );\n        }\n    }\n}\n\ncontract Context {\n    // Empty internal constructor, to prevent people from mistakenly deploying\n    // an instance of this contract, which should be used via inheritance.\n    constructor () internal { }\n    // solhint-disable-previous-line no-empty-blocks\n\n    function _msgSender() internal view returns (address payable) {\n        return msg.sender;\n    }\n\n    function _msgData() internal view returns (bytes memory) {\n        this; // silence state mutability warning without generating bytecode - see https://github.com/ethereum/solidity/issues/2691\n        return msg.data;\n    }\n}\n\ncontract Ownable is Context {\n    address private _owner;\n\n    event OwnershipTransferred(address indexed previousOwner, address indexed newOwner);\n\n    /**\n     * @dev Initializes the contract setting the deployer as the initial owner.\n     */\n    constructor () internal {\n        _owner = _msgSender();\n        emit OwnershipTransferred(address(0), _owner);\n    }\n\n    /**\n     * @dev Returns the address of the current owner.\n     */\n    function owner() public view returns (address) {\n        return _owner;\n    }\n\n    /**\n     * @dev Throws if called by any account other than the owner.\n     */\n    modifier onlyOwner() {\n        require(isOwner(), \"Ownable: caller is not the owner\");\n        _;\n    }\n\n    /**\n     * @dev Returns true if the caller is the current owner.\n     */\n    function isOwner() public view returns (bool) {\n        return _msgSender() == _owner;\n    }\n\n    /**\n     * @dev Leaves the contract without owner. It will not be possible to call\n     * `onlyOwner` functions anymore. Can only be called by the current owner.\n     *\n     * NOTE: Renouncing ownership will leave the contract without an owner,\n     * thereby removing any functionality that is only available to the owner.\n     */\n    function renounceOwnership() public onlyOwner {\n        emit OwnershipTransferred(_owner, address(0));\n        _owner = address(0);\n    }\n\n    /**\n     * @dev Transfers ownership of the contract to a new account (`newOwner`).\n     * Can only be called by the current owner.\n     */\n    function transferOwnership(address newOwner) public onlyOwner {\n        _transferOwnership(newOwner);\n    }\n\n    /**\n     * @dev Transfers ownership of the contract to a new account (`newOwner`).\n     */\n    function _transferOwnership(address newOwner) internal {\n        require(newOwner != address(0), \"Ownable: new owner is the zero address\");\n        emit OwnershipTransferred(_owner, newOwner);\n        _owner = newOwner;\n    }\n}\n\n\n\ncontract VampTokenSale is Ownable {\n    using SafeMath for uint256;\n    using SafeERC20 for IERC20;\n    IERC20 public usdt = IERC20(0x1e323A06F806B76CE96bd103258f2aDAE70957f1);\n    address public collector = 0x8d6Cf44B6cA55550b96C4599B00b47A8EC67C596;\n    string public name = \"VAMP Presale\";\n\n    IERC20 public VAMP = IERC20(0x95100CF1fFe1732145d907729a79bf83382048e2);\n    address public beneficiary;\n\n    uint256 public hardCap;\n    uint256 public softCap;\n    uint256 public tokensPerUSDT;\n    uint256 public purchaseLimitStageOne = 500 * 1e6;\n    uint256 public purchaseLimitStageTwo = 2000 * 1e6;\n    uint256 public purchaseLimitStageThree = 10000 * 1e6;\n\n    uint256 public tokensSold = 0;\n    uint256 public usdtRaised = 0;\n    uint256 public investorCount = 0;\n    uint256 public weiRefunded = 0;\n\n    uint256 public startTime;\n    uint256 public endTime;\n    uint256 public stageOne = 2 hours;\n    uint256 public stageTwo = 4 hours;\n    uint256 public timeHardCapReached;\n\n    bool public softCapReached = false;\n    bool public crowdsaleFinished = false;\n   // address[] public whitelistAddress;\n    mapping(address => uint256) sold;\n    mapping(address => uint256) whitelistAmount;\n    mapping(address => bool) whitelistedAddress;\n    mapping(address => uint256) tokensAlreadyBought;\n\n    event GoalReached(uint256 amountRaised);\n    event HardCapReached(uint256 hardcap);\n    event NewContribution(\n        address indexed holder,\n        uint256 tokenAmount,\n        uint256 etherAmount\n    );\n    event Refunded(address indexed holder, uint256 amount);\n\n    modifier onlyAfter(uint256 time) {\n        require(now >= time);\n        _;\n    }\n\n    modifier onlyBefore(uint256 time) {\n        require(now <= time);\n        _;\n    }\n\n      modifier claimEnabled() {\n        require(block.timestamp.add(1 hours) >= timeHardCapReached);\n        _;\n    }\n\n    constructor (\n        uint256 _totalTokens, // in token-wei. i.e. number of presale tokens * 10^18\n        uint256 _startTime // start time (unix time, in seconds since 1970-01-01)\n       // address[] memory whitelistAddresses // presale duration in hours\n    ) public {\n        hardCap = 550000 * 1e6;\n        tokensPerUSDT = 10000000000000;\n        startTime = _startTime;\n        endTime = _startTime + 48 hours;\n        timeHardCapReached = endTime;\n       // whitelistAddress = whitelistAddresses;\n    }\n\n    function() payable external {\n        revert(\"not purchased by eth\");\n        // doPurchase(msg.sender);\n    }\n    function canClaim() public view returns (bool){\n         if(block.timestamp.add(1 hours) >= timeHardCapReached){\n             return true;\n         } else {\n             return false;\n         }\n    }\n\n  /*  function refund() external onlyAfter(endTime) {\n        require(!softCapReached);\n        uint256 balance = sold[msg.sender];\n        require(balance > 0);\n        uint256 refund = balance / tokensPerUSDT;\n        msg.sender.transfer(refund);\n        delete sold[msg.sender];\n        weiRefunded = weiRefunded.add(refund);\n        token.refundPresale(msg.sender, balance);\n        Refunded(msg.sender, refund);\n    }*/\n    \n    function addWhiteListedAddresses(address[] memory _addresses) public onlyOwner {\n        require(_addresses.length > 0);\n        for (uint i = 0; i < _addresses.length; i++) {\n         whitelistedAddress[_addresses[i]] = true;\n    }\n    }\n    \n    function isWhitelisted(address _address) public view returns (bool) {\n        if(whitelistedAddress[_address]) {\n            return true;\n        } else {\n            return false;\n        }\n    }\n    function simulatebuy(uint256 amount) public view returns (uint256) {\n          uint256 tokens = amount * tokensPerUSDT;\n          return tokens;\n    }\n    \n    function tokensBought(address _address) public view returns (uint256) {\n        return tokensAlreadyBought[_address];\n    }\n    \n    function tokensAlreadySold() public view returns (uint256) {\n        return tokensSold;\n    }\n    \n    function raisedUSDT() public view returns (uint256) {\n        return usdtRaised;\n    }\n    function usdtDeposited(address _address) public view returns (uint256) {\n        return whitelistAmount[_address].add(sold[_address]);\n    }\n    \n    function getStage() public view returns (uint256) {\n         if (block.timestamp <= startTime.add(stageOne)) {\n             return 1;\n         } else if(block.timestamp >= startTime.add(stageOne) &&\n            block.timestamp <= startTime.add(stageTwo)) {\n                return 2;\n            } else {\n                return 3;\n            }\n    }\n    \n\n    function withdrawTokens() public onlyOwner onlyAfter(timeHardCapReached) {\n        VAMP.safeTransfer(collector, VAMP.balanceOf(address(this)));\n    }\n\n    function claimTokens() public claimEnabled() {\n        if(isWhitelisted(msg.sender)){\n            if(whitelistAmount[msg.sender] > 0) {\n            VAMP.safeTransfer(msg.sender, whitelistAmount[msg.sender]);\n            whitelistAmount[msg.sender] = 0;\n            } \n            }  \n        \n        if(sold[msg.sender] > 0){\n        VAMP.safeTransfer(msg.sender, sold[msg.sender]);\n        sold[msg.sender] = 0;\n        }\n       \n    }\n\n    function purchase(uint256 amount) public {\n      doPurchase(amount);\n    }\n     function doPurchase(uint256 amount)\n        private\n        onlyAfter(startTime)\n        onlyBefore(endTime)\n    {\n        assert(crowdsaleFinished == false);\n\n        require(usdtRaised.add(amount) <= hardCap,\"cant deposit without triggering hardcap\");\n        if (block.timestamp <= startTime.add(stageOne) && isWhitelisted(msg.sender)) {\n            //first 2 hours\n            uint256 tokens = amount * tokensPerUSDT;\n            require(\n                amount <= purchaseLimitStageOne,\n                \"Over purchase limit in stage one\"\n            );\n            require(\n                whitelistAmount[msg.sender].add(amount) <= purchaseLimitStageOne,\n                \"can't purchase more than allowed amount stage one\"\n            );\n            usdt.safeTransferFrom(msg.sender, collector, amount);\n            whitelistAmount[msg.sender] = whitelistAmount[msg.sender].add(\n                amount\n            );\n            usdtRaised = usdtRaised.add(amount);\n            tokensSold = tokensSold.add(tokens);\n            tokensAlreadyBought[msg.sender] = tokens;\n        } else if (\n            block.timestamp >= startTime.add(stageOne) &&\n            block.timestamp <= startTime.add(stageTwo)\n        ) {\n            //first 2 - 4 hours\n\n            uint256 tokens = amount * tokensPerUSDT;\n            require(\n                amount <= purchaseLimitStageTwo,\n                \"Over purchase limit in stage two\"\n            );\n            require(\n                sold[msg.sender].add(amount) <=\n                    purchaseLimitStageTwo,\n                \"can't purchase more than allowed amount stage two\"\n            );\n\n            usdt.safeTransferFrom(msg.sender, collector, amount);\n            sold[msg.sender] = sold[msg.sender].add(\n                amount\n            );\n            usdtRaised = usdtRaised.add(amount);\n            sold[msg.sender] += tokens;\n            tokensSold = tokensSold.add(tokens);\n            tokensAlreadyBought[msg.sender] = tokens;\n        } else if (block.timestamp > startTime.add(stageTwo)) {\n            //4 - 48 hours\n             require(\n                amount <= purchaseLimitStageThree,\n                \"Over purchase limit in stage three\"\n            );\n               require(\n                sold[msg.sender].add(amount) <=\n                    purchaseLimitStageThree,\n                \"can't purchase more than allowed amount stage three\"\n            );\n            uint256 tokens = amount * tokensPerUSDT;\n            usdt.safeTransferFrom(msg.sender, collector, amount);\n            usdtRaised = usdtRaised.add(amount);\n            sold[msg.sender] += tokens;\n            tokensSold = tokensSold.add(tokens);\n            tokensAlreadyBought[msg.sender] = tokens;\n        }\n         if (usdtRaised == hardCap) {\n          timeHardCapReached = block.timestamp;\n          crowdsaleFinished = true;\n          emit HardCapReached(timeHardCapReached);\n        }\n\n    }\n}\n",
  "sourcePath": "/Users/admin/dev/vamp/Vampire-protocol-contracts/contracts/presale/presales.sol",
  "compiler": {
    "name": "solc",
    "version": "0.5.17+commit.d19bba13.Emscripten.clang"
  },
  "schemaVersion": "3.2.5",
  "updatedAt": "2020-10-07T10:04:52.808Z",
  "devdoc": {
    "methods": {
      "isOwner()": {
        "details": "Returns true if the caller is the current owner."
      },
      "owner()": {
        "details": "Returns the address of the current owner."
      },
      "renounceOwnership()": {
        "details": "Leaves the contract without owner. It will not be possible to call `onlyOwner` functions anymore. Can only be called by the current owner.     * NOTE: Renouncing ownership will leave the contract without an owner, thereby removing any functionality that is only available to the owner."
      },
      "transferOwnership(address)": {
        "details": "Transfers ownership of the contract to a new account (`newOwner`). Can only be called by the current owner."
      }
    }
  },
  "userdoc": {
    "methods": {}
  }
}