{
  "contractName": "VAMPTokenStorage",
  "abi": [
    {
      "constant": true,
      "inputs": [],
      "name": "BASE",
      "outputs": [
        {
          "internalType": "uint256",
          "name": "",
          "type": "uint256"
        }
      ],
      "payable": false,
      "stateMutability": "view",
      "type": "function"
    },
    {
      "constant": true,
      "inputs": [],
      "name": "decimals",
      "outputs": [
        {
          "internalType": "uint8",
          "name": "",
          "type": "uint8"
        }
      ],
      "payable": false,
      "stateMutability": "view",
      "type": "function"
    },
    {
      "constant": true,
      "inputs": [],
      "name": "gov",
      "outputs": [
        {
          "internalType": "address",
          "name": "",
          "type": "address"
        }
      ],
      "payable": false,
      "stateMutability": "view",
      "type": "function"
    },
    {
      "constant": true,
      "inputs": [],
      "name": "incentivizer",
      "outputs": [
        {
          "internalType": "address",
          "name": "",
          "type": "address"
        }
      ],
      "payable": false,
      "stateMutability": "view",
      "type": "function"
    },
    {
      "constant": true,
      "inputs": [],
      "name": "initSupply",
      "outputs": [
        {
          "internalType": "uint256",
          "name": "",
          "type": "uint256"
        }
      ],
      "payable": false,
      "stateMutability": "view",
      "type": "function"
    },
    {
      "constant": true,
      "inputs": [],
      "name": "internalDecimals",
      "outputs": [
        {
          "internalType": "uint256",
          "name": "",
          "type": "uint256"
        }
      ],
      "payable": false,
      "stateMutability": "view",
      "type": "function"
    },
    {
      "constant": true,
      "inputs": [],
      "name": "name",
      "outputs": [
        {
          "internalType": "string",
          "name": "",
          "type": "string"
        }
      ],
      "payable": false,
      "stateMutability": "view",
      "type": "function"
    },
    {
      "constant": true,
      "inputs": [],
      "name": "pendingGov",
      "outputs": [
        {
          "internalType": "address",
          "name": "",
          "type": "address"
        }
      ],
      "payable": false,
      "stateMutability": "view",
      "type": "function"
    },
    {
      "constant": true,
      "inputs": [],
      "name": "rebaser",
      "outputs": [
        {
          "internalType": "address",
          "name": "",
          "type": "address"
        }
      ],
      "payable": false,
      "stateMutability": "view",
      "type": "function"
    },
    {
      "constant": true,
      "inputs": [],
      "name": "scalingFactor",
      "outputs": [
        {
          "internalType": "uint256",
          "name": "",
          "type": "uint256"
        }
      ],
      "payable": false,
      "stateMutability": "view",
      "type": "function"
    },
    {
      "constant": true,
      "inputs": [],
      "name": "symbol",
      "outputs": [
        {
          "internalType": "string",
          "name": "",
          "type": "string"
        }
      ],
      "payable": false,
      "stateMutability": "view",
      "type": "function"
    },
    {
      "constant": true,
      "inputs": [],
      "name": "totalSupply",
      "outputs": [
        {
          "internalType": "uint256",
          "name": "",
          "type": "uint256"
        }
      ],
      "payable": false,
      "stateMutability": "view",
      "type": "function"
    }
  ],
  "bytecode": "0x608060405234801561001057600080fd5b50610362806100206000396000f3fe608060405234801561001057600080fd5b50600436106100b45760003560e01c806364dd48f51161007157806364dd48f5146101a25780636fc6407c146101aa57806395d89b41146101b257806397d63f93146101ba578063ec342ad0146101c2578063ed3437f8146101ca576100b4565b806306fdde03146100b957806311fd8a831461013657806312d43a511461015a57806318160ddd14610162578063252408101461017c578063313ce56714610184575b600080fd5b6100c16101d2565b6040805160208082528351818301528351919283929083019185019080838360005b838110156100fb5781810151838201526020016100e3565b50505050905090810190601f1680156101285780820380516001836020036101000a031916815260200191505b509250505060405180910390f35b61013e61025f565b604080516001600160a01b039092168252519081900360200190f35b61013e61026e565b61016a610282565b60408051918252519081900360200190f35b61013e610288565b61018c610297565b6040805160ff9092168252519081900360200190f35b61016a6102a0565b61013e6102ae565b6100c16102bd565b61016a610315565b61016a61031b565b61016a610327565b60018054604080516020600284861615610100026000190190941693909304601f810184900484028201840190925281815292918301828280156102575780601f1061022c57610100808354040283529160200191610257565b820191906000526020600020905b81548152906001019060200180831161023a57829003601f168201915b505050505081565b6005546001600160a01b031681565b60035461010090046001600160a01b031681565b60075481565b6004546001600160a01b031681565b60035460ff1681565b69d3c21bcecceda100000081565b6006546001600160a01b031681565b6002805460408051602060018416156101000260001901909316849004601f810184900484028201840190925281815292918301828280156102575780601f1061022c57610100808354040283529160200191610257565b600b5481565b670de0b6b3a764000081565b6008548156fea265627a7a72315820959cd58420a36b50d465f2bde58d301f39a7d5dd29bec2ca4e4610e3faa666f464736f6c63430005110032",
  "source": "pragma solidity 0.5.17;\n\nimport \"../lib/SafeMath.sol\";\n\n// Storage for a VAMP token\ncontract VAMPTokenStorage {\n\n    using SafeMath for uint256;\n\n    /**\n     * @dev Guard variable for re-entrancy checks. Not currently used\n     */\n    bool internal _notEntered;\n\n    /**\n     * @notice EIP-20 token name for this token\n     */\n    string public name;\n\n    /**\n     * @notice EIP-20 token symbol for this token\n     */\n    string public symbol;\n\n    /**\n     * @notice EIP-20 token decimals for this token\n     */\n    uint8 public decimals;\n\n    /**\n     * @notice Governor for this contract\n     */\n    address public gov;\n\n    /**\n     * @notice Pending governance for this contract\n     */\n    address public pendingGov;\n\n    /**\n     * @notice Approved rebaser for this contract\n     */\n    address public rebaser;\n\n    /**\n     * @notice Reserve address of VAMP protocol\n     */\n    address public incentivizer;\n\n    /**\n     * @notice Total supply of VAMPs\n     */\n    uint256 public totalSupply;\n\n    /**\n     * @notice Internal decimals used to handle scaling factor\n     */\n    uint256 public constant internalDecimals = 10**24;\n\n    /**\n     * @notice Used for percentage maths\n     */\n    uint256 public constant BASE = 10**18;\n\n    /**\n     * @notice Scaling factor that adjusts everyone's balances\n     */\n    uint256 public scalingFactor;\n\n    mapping (address => uint256) internal _VAMPBalances;\n\n    mapping (address => mapping (address => uint256)) internal _allowedFragments;\n\n    uint256 public initSupply;\n\n}\n",
  "sourcePath": "/Users/zigaflis/Documents/GitHub/Vampire-protocol-contracts/contracts/token/VAMPTokenStorage.sol",
  "compiler": {
    "name": "solc",
    "version": "0.5.17+commit.d19bba13.Emscripten.clang"
  },
  "schemaVersion": "3.2.5",
  "updatedAt": "2020-09-23T11:17:14.200Z",
  "devdoc": {
    "methods": {}
  },
  "userdoc": {
    "methods": {}
  }
}