{
  "contractName": "VAMPReserves",
  "abi": [
    {
      "inputs": [
        {
          "internalType": "address",
          "name": "reserveToken_",
          "type": "address"
        },
        {
          "internalType": "address",
          "name": "VAMPAddress_",
          "type": "address"
        }
      ],
      "payable": false,
      "stateMutability": "nonpayable",
      "type": "constructor"
    },
    {
      "anonymous": false,
      "inputs": [
        {
          "indexed": false,
          "internalType": "address",
          "name": "oldGov",
          "type": "address"
        },
        {
          "indexed": false,
          "internalType": "address",
          "name": "newGov",
          "type": "address"
        }
      ],
      "name": "NewGov",
      "type": "event"
    },
    {
      "anonymous": false,
      "inputs": [
        {
          "indexed": false,
          "internalType": "address",
          "name": "oldPendingGov",
          "type": "address"
        },
        {
          "indexed": false,
          "internalType": "address",
          "name": "newPendingGov",
          "type": "address"
        }
      ],
      "name": "NewPendingGov",
      "type": "event"
    },
    {
      "anonymous": false,
      "inputs": [
        {
          "indexed": false,
          "internalType": "address",
          "name": "oldRebaser",
          "type": "address"
        },
        {
          "indexed": false,
          "internalType": "address",
          "name": "newRebaser",
          "type": "address"
        }
      ],
      "name": "NewRebaser",
      "type": "event"
    },
    {
      "constant": true,
      "inputs": [],
      "name": "VAMPAddress",
      "outputs": [
        {
          "internalType": "address",
          "name": "",
          "type": "address"
        }
      ],
      "payable": false,
      "stateMutability": "view",
      "type": "function"
    },
    {
      "constant": true,
      "inputs": [],
      "name": "gov",
      "outputs": [
        {
          "internalType": "address",
          "name": "",
          "type": "address"
        }
      ],
      "payable": false,
      "stateMutability": "view",
      "type": "function"
    },
    {
      "constant": true,
      "inputs": [],
      "name": "pendingGov",
      "outputs": [
        {
          "internalType": "address",
          "name": "",
          "type": "address"
        }
      ],
      "payable": false,
      "stateMutability": "view",
      "type": "function"
    },
    {
      "constant": true,
      "inputs": [],
      "name": "rebaser",
      "outputs": [
        {
          "internalType": "address",
          "name": "",
          "type": "address"
        }
      ],
      "payable": false,
      "stateMutability": "view",
      "type": "function"
    },
    {
      "constant": true,
      "inputs": [],
      "name": "reserveToken",
      "outputs": [
        {
          "internalType": "address",
          "name": "",
          "type": "address"
        }
      ],
      "payable": false,
      "stateMutability": "view",
      "type": "function"
    },
    {
      "constant": false,
      "inputs": [
        {
          "internalType": "address",
          "name": "rebaser_",
          "type": "address"
        }
      ],
      "name": "_setRebaser",
      "outputs": [],
      "payable": false,
      "stateMutability": "nonpayable",
      "type": "function"
    },
    {
      "constant": false,
      "inputs": [
        {
          "internalType": "address",
          "name": "pendingGov_",
          "type": "address"
        }
      ],
      "name": "_setPendingGov",
      "outputs": [],
      "payable": false,
      "stateMutability": "nonpayable",
      "type": "function"
    },
    {
      "constant": false,
      "inputs": [],
      "name": "_acceptGov",
      "outputs": [],
      "payable": false,
      "stateMutability": "nonpayable",
      "type": "function"
    },
    {
      "constant": false,
      "inputs": [
        {
          "internalType": "address",
          "name": "newReserve",
          "type": "address"
        },
        {
          "internalType": "address[]",
          "name": "tokens",
          "type": "address[]"
        }
      ],
      "name": "migrateReserves",
      "outputs": [],
      "payable": false,
      "stateMutability": "nonpayable",
      "type": "function"
    },
    {
      "constant": true,
      "inputs": [],
      "name": "reserves",
      "outputs": [
        {
          "internalType": "uint256",
          "name": "",
          "type": "uint256"
        }
      ],
      "payable": false,
      "stateMutability": "view",
      "type": "function"
    }
  ],
  "bytecode": "0x608060405234801561001057600080fd5b50604051610a0e380380610a0e8339818101604052604081101561003357600080fd5b508051602090910151600080546001600160a01b039384166001600160a01b03199182161790915560048054939092169281169290921790556001805490911633179055610988806100866000396000f3fe608060405234801561001057600080fd5b506004361061009e5760003560e01c80634bda2e20116100665780634bda2e201461019457806373f03dff1461019c57806375172a8b146101c2578063f4325d67146101dc578063fa8f3455146101e45761009e565b8063078e9d53146100a357806311fd8a831461015857806312d43a511461017c57806325240810146101845780633f819d041461018c575b600080fd5b610156600480360360408110156100b957600080fd5b6001600160a01b0382351691908101906040810160208201356401000000008111156100e457600080fd5b8201836020820111156100f657600080fd5b8035906020019184602083028401116401000000008311171561011857600080fd5b91908080602002602001604051908101604052809392919081815260200183836020028082843760009201919091525092955061020a945050505050565b005b6101606102e5565b604080516001600160a01b039092168252519081900360200190f35b6101606102f4565b610160610303565b610160610312565b610156610321565b610156600480360360208110156101b257600080fd5b50356001600160a01b03166103d9565b6101ca610453565b60408051918252519081900360200190f35b6101606104d0565b610156600480360360208110156101fa57600080fd5b50356001600160a01b03166104df565b6001546001600160a01b0316331461022157600080fd5b60005b81518110156102e057600082828151811061023b57fe5b602002602001015190506000816001600160a01b03166370a08231306040518263ffffffff1660e01b815260040180826001600160a01b03166001600160a01b0316815260200191505060206040518083038186803b15801561029d57600080fd5b505afa1580156102b1573d6000803e3d6000fd5b505050506040513d60208110156102c757600080fd5b505190506102d6828683610663565b5050600101610224565b505050565b6003546001600160a01b031681565b6001546001600160a01b031681565b6002546001600160a01b031681565b6004546001600160a01b031681565b6002546001600160a01b0316331461036b576040805162461bcd60e51b81526020600482015260086024820152672170656e64696e6760c01b604482015290519081900360640190fd5b60018054600280546001600160a01b03198084166001600160a01b03838116919091179586905591169091556040805192821680845293909116602083015280517f1f14cfc03e486d23acee577b07bc0b3b23f4888c91fcdba5e0fef5a2549d55239281900390910190a150565b6001546001600160a01b031633146103f057600080fd5b600280546001600160a01b038381166001600160a01b0319831681179093556040805191909216808252602082019390935281517f6163d5b9efd962645dd649e6e48a61bcb0f9df00997a2398b80d135a9ab0c61e929181900390910190a15050565b60008054604080516370a0823160e01b815230600482015290516001600160a01b03909216916370a0823191602480820192602092909190829003018186803b15801561049f57600080fd5b505afa1580156104b3573d6000803e3d6000fd5b505050506040513d60208110156104c957600080fd5b5051905090565b6000546001600160a01b031681565b6001546001600160a01b031633146104f657600080fd5b600354600480546040805163a457c2d760e01b81526001600160a01b039485169381018490526000196024820152905192939091169163a457c2d7916044808201926020929091908290030181600087803b15801561055457600080fd5b505af1158015610568573d6000803e3d6000fd5b505050506040513d602081101561057e57600080fd5b5050600380546001600160a01b0319166001600160a01b03848116918217909255600480546040805163095ea7b360e01b81529283019390935260001960248301529151919092169163095ea7b39160448083019260209291908290030181600087803b1580156105ee57600080fd5b505af1158015610602573d6000803e3d6000fd5b505050506040513d602081101561061857600080fd5b5050604080516001600160a01b0380841682528416602082015281517f51f448520e2183de499e224808a409ee01a1f380edb2e8497572320c15030545929181900390910190a15050565b604080516001600160a01b038416602482015260448082018490528251808303909101815260649091019091526020810180516001600160e01b031663a9059cbb60e01b1790526102e09084906060610705826040518060400160405280602081526020017f5361666545524332303a206c6f772d6c6576656c2063616c6c206661696c6564815250856001600160a01b03166107619092919063ffffffff16565b8051909150156102e05780806020019051602081101561072457600080fd5b50516102e05760405162461bcd60e51b815260040180806020018281038252602a81526020018061092a602a913960400191505060405180910390fd5b60606107708484600085610778565b949350505050565b606061078385610923565b6107d4576040805162461bcd60e51b815260206004820152601d60248201527f416464726573733a2063616c6c20746f206e6f6e2d636f6e7472616374000000604482015290519081900360640190fd5b60006060866001600160a01b031685876040518082805190602001908083835b602083106108135780518252601f1990920191602091820191016107f4565b6001836020036101000a03801982511681845116808217855250505050505090500191505060006040518083038185875af1925050503d8060008114610875576040519150601f19603f3d011682016040523d82523d6000602084013e61087a565b606091505b5091509150811561088e5791506107709050565b80511561089e5780518082602001fd5b8360405162461bcd60e51b81526004018080602001828103825283818151815260200191508051906020019080838360005b838110156108e85781810151838201526020016108d0565b50505050905090810190601f1680156109155780820380516001836020036101000a031916815260200191505b509250505060405180910390fd5b3b15159056fe5361666545524332303a204552433230206f7065726174696f6e20646964206e6f742073756363656564a265627a7a72315820d9b6cab4f4f5bb593d15ad3b8d5e754c714d93ee81037cd45067e711e4fc950f64736f6c63430005110032",
  "source": "pragma solidity 0.5.17;\n\nimport \"../lib/IERC20.sol\";\nimport \"../lib/SafeERC20.sol\";\nimport \"../token/VAMPTokenInterface.sol\";\n\ncontract VAMPReserves {\n\n    // Token that serves as a reserve for VAMP\n    address public reserveToken;\n\n    address public gov;\n\n    address public pendingGov;\n\n    address public rebaser;\n\n    address public VAMPAddress;\n\n    /*** Gov Events ***/\n\n    /**\n     * @notice Event emitted when pendingGov is changed\n     */\n    event NewPendingGov(address oldPendingGov, address newPendingGov);\n\n    /**\n     * @notice Event emitted when gov is changed\n     */\n    event NewGov(address oldGov, address newGov);\n\n    /**\n     * @notice Event emitted when rebaser is changed\n     */\n    event NewRebaser(address oldRebaser, address newRebaser);\n\n\n    modifier onlyGov() {\n        require(msg.sender == gov);\n        _;\n    }\n\n    constructor(\n        address reserveToken_,\n        address VAMPAddress_\n    )\n        public\n    {\n        reserveToken = reserveToken_;\n        VAMPAddress = VAMPAddress_;\n        gov = msg.sender;\n    }\n\n    function _setRebaser(address rebaser_)\n        external\n        onlyGov\n    {\n        address oldRebaser = rebaser;\n        VAMPTokenInterface(VAMPAddress).decreaseAllowance(oldRebaser, uint256(-1));\n        rebaser = rebaser_;\n        VAMPTokenInterface(VAMPAddress).approve(rebaser_, uint256(-1));\n        emit NewRebaser(oldRebaser, rebaser_);\n    }\n\n    /** @notice sets the pendingGov\n     * @param pendingGov_ The address of the rebaser contract to use for authentication.\n     */\n    function _setPendingGov(address pendingGov_)\n        external\n        onlyGov\n    {\n        address oldPendingGov = pendingGov;\n        pendingGov = pendingGov_;\n        emit NewPendingGov(oldPendingGov, pendingGov_);\n    }\n\n    /**\n     * @notice lets msg.sender accept governance\n     */\n    function _acceptGov()\n        external\n    {\n        require(msg.sender == pendingGov, \"!pending\");\n        address oldGov = gov;\n        gov = pendingGov;\n        pendingGov = address(0);\n        emit NewGov(oldGov, gov);\n    }\n\n    /// @notice Moves all tokens to a new reserve contract\n    function migrateReserves(\n        address newReserve,\n        address[] memory tokens\n    )\n        public\n        onlyGov\n    {\n        for (uint256 i = 0; i < tokens.length; i++) {\n            IERC20 token =  IERC20(tokens[i]);\n            uint256 bal = token.balanceOf(address(this));\n            SafeERC20.safeTransfer(token, newReserve, bal);\n        }\n    }\n\n    /// @notice Gets the current amount of reserves token held by this contract\n    function reserves()\n        public\n        view\n        returns (uint256)\n    {\n        return IERC20(reserveToken).balanceOf(address(this));\n    }\n}\n",
  "sourcePath": "/Users/admin/dev/vamp/Vampire-protocol-contracts/contracts/reserves/VAMPReserves.sol",
  "compiler": {
    "name": "solc",
    "version": "0.5.17+commit.d19bba13.Emscripten.clang"
  },
  "schemaVersion": "3.2.5",
  "updatedAt": "2020-09-21T23:10:31.408Z",
  "networkType": "ethereum",
  "devdoc": {
    "methods": {
      "_setPendingGov(address)": {
        "params": {
          "pendingGov_": "The address of the rebaser contract to use for authentication."
        }
      }
    }
  },
  "userdoc": {
    "methods": {
      "_acceptGov()": {
        "notice": "lets msg.sender accept governance"
      },
      "_setPendingGov(address)": {
        "notice": "sets the pendingGov"
      },
      "migrateReserves(address,address[])": {
        "notice": "Moves all tokens to a new reserve contract"
      },
      "reserves()": {
        "notice": "Gets the current amount of reserves token held by this contract"
      }
    }
  }
}