{
  "contractName": "VAMPRebaser",
  "abi": [
    {
      "inputs": [
        {
          "internalType": "address",
          "name": "VAMPAddress_",
          "type": "address"
        },
        {
          "internalType": "address",
          "name": "reserveToken_",
          "type": "address"
        },
        {
          "internalType": "address",
          "name": "uniswap_factory",
          "type": "address"
        }
      ],
      "payable": false,
      "stateMutability": "nonpayable",
      "type": "constructor"
    },
    {
      "anonymous": false,
      "inputs": [
        {
          "indexed": false,
          "internalType": "uint256",
          "name": "oldDeviationThreshold",
          "type": "uint256"
        },
        {
          "indexed": false,
          "internalType": "uint256",
          "name": "newDeviationThreshold",
          "type": "uint256"
        }
      ],
      "name": "NewDeviationThreshold",
      "type": "event"
    },
    {
      "anonymous": false,
      "inputs": [
        {
          "indexed": false,
          "internalType": "address",
          "name": "oldGov",
          "type": "address"
        },
        {
          "indexed": false,
          "internalType": "address",
          "name": "newGov",
          "type": "address"
        }
      ],
      "name": "NewGov",
      "type": "event"
    },
    {
      "anonymous": false,
      "inputs": [
        {
          "indexed": false,
          "internalType": "uint256",
          "name": "oldSlippageFactor",
          "type": "uint256"
        },
        {
          "indexed": false,
          "internalType": "uint256",
          "name": "newSlippageFactor",
          "type": "uint256"
        }
      ],
      "name": "NewMaxSlippageFactor",
      "type": "event"
    },
    {
      "anonymous": false,
      "inputs": [
        {
          "indexed": false,
          "internalType": "address",
          "name": "oldPendingGov",
          "type": "address"
        },
        {
          "indexed": false,
          "internalType": "address",
          "name": "newPendingGov",
          "type": "address"
        }
      ],
      "name": "NewPendingGov",
      "type": "event"
    },
    {
      "anonymous": false,
      "inputs": [
        {
          "indexed": false,
          "internalType": "uint256",
          "name": "oldRebaseMintPerc",
          "type": "uint256"
        },
        {
          "indexed": false,
          "internalType": "uint256",
          "name": "newRebaseMintPerc",
          "type": "uint256"
        }
      ],
      "name": "NewRebaseMintPercent",
      "type": "event"
    },
    {
      "anonymous": false,
      "inputs": [
        {
          "indexed": true,
          "internalType": "address",
          "name": "destination",
          "type": "address"
        },
        {
          "indexed": false,
          "internalType": "uint256",
          "name": "index",
          "type": "uint256"
        },
        {
          "indexed": false,
          "internalType": "bytes",
          "name": "data",
          "type": "bytes"
        }
      ],
      "name": "TransactionFailed",
      "type": "event"
    },
    {
      "anonymous": false,
      "inputs": [
        {
          "indexed": false,
          "internalType": "uint256",
          "name": "reservesAdded",
          "type": "uint256"
        },
        {
          "indexed": false,
          "internalType": "uint256",
          "name": "VAMPsSold",
          "type": "uint256"
        },
        {
          "indexed": false,
          "internalType": "uint256",
          "name": "VAMPsFromReserves",
          "type": "uint256"
        },
        {
          "indexed": false,
          "internalType": "uint256",
          "name": "VAMPsToReserves",
          "type": "uint256"
        }
      ],
      "name": "TreasuryIncreased",
      "type": "event"
    },
    {
      "constant": true,
      "inputs": [],
      "name": "BASE",
      "outputs": [
        {
          "internalType": "uint256",
          "name": "",
          "type": "uint256"
        }
      ],
      "payable": false,
      "stateMutability": "view",
      "type": "function"
    },
    {
      "constant": true,
      "inputs": [],
      "name": "VAMPAddress",
      "outputs": [
        {
          "internalType": "address",
          "name": "",
          "type": "address"
        }
      ],
      "payable": false,
      "stateMutability": "view",
      "type": "function"
    },
    {
      "constant": true,
      "inputs": [],
      "name": "blockTimestampLast",
      "outputs": [
        {
          "internalType": "uint32",
          "name": "",
          "type": "uint32"
        }
      ],
      "payable": false,
      "stateMutability": "view",
      "type": "function"
    },
    {
      "constant": true,
      "inputs": [],
      "name": "deviationThreshold",
      "outputs": [
        {
          "internalType": "uint256",
          "name": "",
          "type": "uint256"
        }
      ],
      "payable": false,
      "stateMutability": "view",
      "type": "function"
    },
    {
      "constant": true,
      "inputs": [],
      "name": "epoch",
      "outputs": [
        {
          "internalType": "uint256",
          "name": "",
          "type": "uint256"
        }
      ],
      "payable": false,
      "stateMutability": "view",
      "type": "function"
    },
    {
      "constant": true,
      "inputs": [],
      "name": "gov",
      "outputs": [
        {
          "internalType": "address",
          "name": "",
          "type": "address"
        }
      ],
      "payable": false,
      "stateMutability": "view",
      "type": "function"
    },
    {
      "constant": true,
      "inputs": [],
      "name": "isToken0",
      "outputs": [
        {
          "internalType": "bool",
          "name": "",
          "type": "bool"
        }
      ],
      "payable": false,
      "stateMutability": "view",
      "type": "function"
    },
    {
      "constant": true,
      "inputs": [],
      "name": "lastRebaseTimestampSec",
      "outputs": [
        {
          "internalType": "uint256",
          "name": "",
          "type": "uint256"
        }
      ],
      "payable": false,
      "stateMutability": "view",
      "type": "function"
    },
    {
      "constant": true,
      "inputs": [],
      "name": "maxSlippageFactor",
      "outputs": [
        {
          "internalType": "uint256",
          "name": "",
          "type": "uint256"
        }
      ],
      "payable": false,
      "stateMutability": "view",
      "type": "function"
    },
    {
      "constant": true,
      "inputs": [],
      "name": "minRebaseTimeIntervalSec",
      "outputs": [
        {
          "internalType": "uint256",
          "name": "",
          "type": "uint256"
        }
      ],
      "payable": false,
      "stateMutability": "view",
      "type": "function"
    },
    {
      "constant": true,
      "inputs": [],
      "name": "pendingGov",
      "outputs": [
        {
          "internalType": "address",
          "name": "",
          "type": "address"
        }
      ],
      "payable": false,
      "stateMutability": "view",
      "type": "function"
    },
    {
      "constant": true,
      "inputs": [],
      "name": "priceCumulativeLast",
      "outputs": [
        {
          "internalType": "uint256",
          "name": "",
          "type": "uint256"
        }
      ],
      "payable": false,
      "stateMutability": "view",
      "type": "function"
    },
    {
      "constant": true,
      "inputs": [],
      "name": "rebaseDelay",
      "outputs": [
        {
          "internalType": "uint256",
          "name": "",
          "type": "uint256"
        }
      ],
      "payable": false,
      "stateMutability": "view",
      "type": "function"
    },
    {
      "constant": true,
      "inputs": [],
      "name": "rebaseLag",
      "outputs": [
        {
          "internalType": "uint256",
          "name": "",
          "type": "uint256"
        }
      ],
      "payable": false,
      "stateMutability": "view",
      "type": "function"
    },
    {
      "constant": true,
      "inputs": [],
      "name": "rebaseMintPerc",
      "outputs": [
        {
          "internalType": "uint256",
          "name": "",
          "type": "uint256"
        }
      ],
      "payable": false,
      "stateMutability": "view",
      "type": "function"
    },
    {
      "constant": true,
      "inputs": [],
      "name": "rebaseWindowLengthSec",
      "outputs": [
        {
          "internalType": "uint256",
          "name": "",
          "type": "uint256"
        }
      ],
      "payable": false,
      "stateMutability": "view",
      "type": "function"
    },
    {
      "constant": true,
      "inputs": [],
      "name": "rebaseWindowOffsetSec",
      "outputs": [
        {
          "internalType": "uint256",
          "name": "",
          "type": "uint256"
        }
      ],
      "payable": false,
      "stateMutability": "view",
      "type": "function"
    },
    {
      "constant": true,
      "inputs": [],
      "name": "rebasingActive",
      "outputs": [
        {
          "internalType": "bool",
          "name": "",
          "type": "bool"
        }
      ],
      "payable": false,
      "stateMutability": "view",
      "type": "function"
    },
    {
      "constant": true,
      "inputs": [],
      "name": "reserveToken",
      "outputs": [
        {
          "internalType": "address",
          "name": "",
          "type": "address"
        }
      ],
      "payable": false,
      "stateMutability": "view",
      "type": "function"
    },
    {
      "constant": true,
      "inputs": [],
      "name": "targetRate",
      "outputs": [
        {
          "internalType": "uint256",
          "name": "",
          "type": "uint256"
        }
      ],
      "payable": false,
      "stateMutability": "view",
      "type": "function"
    },
    {
      "constant": true,
      "inputs": [],
      "name": "timeOfTWAPInit",
      "outputs": [
        {
          "internalType": "uint256",
          "name": "",
          "type": "uint256"
        }
      ],
      "payable": false,
      "stateMutability": "view",
      "type": "function"
    },
    {
      "constant": true,
      "inputs": [
        {
          "internalType": "uint256",
          "name": "",
          "type": "uint256"
        }
      ],
      "name": "transactions",
      "outputs": [
        {
          "internalType": "bool",
          "name": "enabled",
          "type": "bool"
        },
        {
          "internalType": "address",
          "name": "destination",
          "type": "address"
        },
        {
          "internalType": "bytes",
          "name": "data",
          "type": "bytes"
        }
      ],
      "payable": false,
      "stateMutability": "view",
      "type": "function"
    },
    {
      "constant": true,
      "inputs": [],
      "name": "uniswap_pair",
      "outputs": [
        {
          "internalType": "address",
          "name": "",
          "type": "address"
        }
      ],
      "payable": false,
      "stateMutability": "view",
      "type": "function"
    },
    {
      "constant": false,
      "inputs": [
        {
          "internalType": "uint256",
          "name": "maxSlippageFactor_",
          "type": "uint256"
        }
      ],
      "name": "setMaxSlippageFactor",
      "outputs": [],
      "payable": false,
      "stateMutability": "nonpayable",
      "type": "function"
    },
    {
      "constant": false,
      "inputs": [
        {
          "internalType": "uint256",
          "name": "rebaseMintPerc_",
          "type": "uint256"
        }
      ],
      "name": "setRebaseMintPerc",
      "outputs": [],
      "payable": false,
      "stateMutability": "nonpayable",
      "type": "function"
    },
    {
      "constant": false,
      "inputs": [
        {
          "internalType": "address",
          "name": "pendingGov_",
          "type": "address"
        }
      ],
      "name": "_setPendingGov",
      "outputs": [],
      "payable": false,
      "stateMutability": "nonpayable",
      "type": "function"
    },
    {
      "constant": false,
      "inputs": [],
      "name": "_acceptGov",
      "outputs": [],
      "payable": false,
      "stateMutability": "nonpayable",
      "type": "function"
    },
    {
      "constant": false,
      "inputs": [
        {
          "internalType": "uint256",
          "name": "deviationThreshold_",
          "type": "uint256"
        }
      ],
      "name": "setDeviationThreshold",
      "outputs": [],
      "payable": false,
      "stateMutability": "nonpayable",
      "type": "function"
    },
    {
      "constant": false,
      "inputs": [
        {
          "internalType": "uint256",
          "name": "rebaseLag_",
          "type": "uint256"
        }
      ],
      "name": "setRebaseLag",
      "outputs": [],
      "payable": false,
      "stateMutability": "nonpayable",
      "type": "function"
    },
    {
      "constant": false,
      "inputs": [
        {
          "internalType": "uint256",
          "name": "targetRate_",
          "type": "uint256"
        }
      ],
      "name": "setTargetRate",
      "outputs": [],
      "payable": false,
      "stateMutability": "nonpayable",
      "type": "function"
    },
    {
      "constant": false,
      "inputs": [
        {
          "internalType": "uint256",
          "name": "minRebaseTimeIntervalSec_",
          "type": "uint256"
        },
        {
          "internalType": "uint256",
          "name": "rebaseWindowOffsetSec_",
          "type": "uint256"
        },
        {
          "internalType": "uint256",
          "name": "rebaseWindowLengthSec_",
          "type": "uint256"
        }
      ],
      "name": "setRebaseTimingParameters",
      "outputs": [],
      "payable": false,
      "stateMutability": "nonpayable",
      "type": "function"
    },
    {
      "constant": false,
      "inputs": [],
      "name": "init_twap",
      "outputs": [],
      "payable": false,
      "stateMutability": "nonpayable",
      "type": "function"
    },
    {
      "constant": false,
      "inputs": [],
      "name": "activate_rebasing",
      "outputs": [],
      "payable": false,
      "stateMutability": "nonpayable",
      "type": "function"
    },
    {
      "constant": false,
      "inputs": [],
      "name": "rebase",
      "outputs": [],
      "payable": false,
      "stateMutability": "nonpayable",
      "type": "function"
    },
    {
      "constant": true,
      "inputs": [],
      "name": "getCurrentTWAP",
      "outputs": [
        {
          "internalType": "uint256",
          "name": "",
          "type": "uint256"
        }
      ],
      "payable": false,
      "stateMutability": "view",
      "type": "function"
    },
    {
      "constant": true,
      "inputs": [],
      "name": "inRebaseWindow",
      "outputs": [
        {
          "internalType": "bool",
          "name": "",
          "type": "bool"
        }
      ],
      "payable": false,
      "stateMutability": "view",
      "type": "function"
    },
    {
      "constant": false,
      "inputs": [
        {
          "internalType": "address",
          "name": "destination",
          "type": "address"
        },
        {
          "internalType": "bytes",
          "name": "data",
          "type": "bytes"
        }
      ],
      "name": "addTransaction",
      "outputs": [],
      "payable": false,
      "stateMutability": "nonpayable",
      "type": "function"
    },
    {
      "constant": false,
      "inputs": [
        {
          "internalType": "uint256",
          "name": "index",
          "type": "uint256"
        }
      ],
      "name": "removeTransaction",
      "outputs": [],
      "payable": false,
      "stateMutability": "nonpayable",
      "type": "function"
    },
    {
      "constant": false,
      "inputs": [
        {
          "internalType": "uint256",
          "name": "index",
          "type": "uint256"
        },
        {
          "internalType": "bool",
          "name": "enabled",
          "type": "bool"
        }
      ],
      "name": "setTransactionEnabled",
      "outputs": [],
      "payable": false,
      "stateMutability": "nonpayable",
      "type": "function"
    }
  ],
  "bytecode": "0x60806040523480156200001157600080fd5b50604051620023bd380380620023bd83398101604081905262000034916200023f565b61a8c06004556170806006556000806200005885856001600160e01b036200013016565b91509150846001600160a01b0316826001600160a01b031614156200008b576010805460ff60c01b1916600160c01b1790555b620000a18383836001600160e01b03620001cb16565b601080546001600160a01b039283166001600160a01b031991821617909155600f805496831696821696909617909555600e80549690911695851695909517909455505066c02cea37e26800600b55670de0b6b3a7640000600155600a60005567016345785d8a000060025566b1a2bc2ec50000600355610e10600755600c80549091163317905550620004a9565b600080826001600160a01b0316846001600160a01b03161415620001715760405162461bcd60e51b815260040162000168906200042d565b60405180910390fd5b826001600160a01b0316846001600160a01b0316106200019357828462000196565b83835b90925090506001600160a01b038216620001c45760405162461bcd60e51b815260040162000168906200043f565b9250929050565b6000838383604051602001620001e3929190620003bd565b604051602081830303815290604052805190602001206040516020016200020c929190620003e7565b60408051601f198184030181529190528051602090910120949350505050565b805162000239816200048f565b92915050565b6000806000606084860312156200025557600080fd5b60006200026386866200022c565b935050602062000276868287016200022c565b925050604062000289868287016200022c565b9150509250925092565b620002a8620002a2826200045f565b6200047b565b82525050565b620002a8620002bd826200046c565b6200046c565b6000620002d260258362000451565b7f556e697377617056324c6962726172793a204944454e544943414c5f41444452815264455353455360d81b602082015260400192915050565b60006200031b6020836200045a565b7f96e8ac4277198ff8b6f785478aa9a39f403cb768dd02cbee326c3e7da348845f815260200192915050565b6000620003566001836200045a565b7fff00000000000000000000000000000000000000000000000000000000000000815260010192915050565b600062000391601e8362000451565b7f556e697377617056324c6962726172793a205a45524f5f414444524553530000815260200192915050565b6000620003cb828562000293565b601482019150620003dd828462000293565b5060140192915050565b6000620003f48262000347565b915062000402828562000293565b601482019150620004148284620002ae565b60208201915062000425826200030c565b949350505050565b602080825281016200023981620002c3565b60208082528101620002398162000382565b90815260200190565b919050565b600062000239826200046f565b90565b6001600160a01b031690565b600062000239826000620002398260601b90565b6200049a816200045f565b8114620004a657600080fd5b50565b611f0480620004b96000396000f3fe608060405234801561001057600080fd5b506004361061023d5760003560e01c80636bf9ace71161013b578063c4c6eaad116100b8578063cf1b927e1161007c578063cf1b927e14610419578063d94ad83714610421578063dcf93f3214610429578063ec342ad014610431578063f4325d67146104395761023d565b8063c4c6eaad146103d9578063c5700a02146103e1578063cc8fd393146103f6578063cd877826146103fe578063cdabdaac146104065761023d565b8063900cf0cf116100ff578063900cf0cf1461038c5780639466120f146103945780639ace38c21461039c578063af14052c146103be578063b60e1e3e146103c65761023d565b80636bf9ace7146103435780636e9dde99146103565780637052b9021461036957806373f03dff14610371578063832a3035146103845761023d565b80633a93069b116101c95780634e66f8ae1161018d5780634e66f8ae1461031057806353a15edc1461031857806357466c8b1461032b57806363f6d4c8146103335780636406ca5f1461033b5761023d565b80633a93069b146102dd5780633f819d04146102e557806346c3bd1f146102ed5780634bda2e20146103005780634dc95de1146103085761023d565b806316250fd41161021057806316250fd41461029f5780631cab801c146102b257806320ce8389146102ba57806325240810146102cd5780632f43c1bc146102d55761023d565b80630210189914610242578063111d049814610260578063126e19be1461027557806312d43a511461028a575b600080fd5b61024a610441565b6040516102579190611dda565b60405180910390f35b610268610447565b6040516102579190611ca5565b6102886102833660046117ee565b610458565b005b61029261053e565b6040516102579190611c7c565b6102886102ad366004611907565b61054d565b61024a61058b565b6102886102c8366004611891565b610591565b6102926105ba565b61024a6105c9565b61024a6105cf565b6102926105d5565b6102886102fb366004611891565b6105e4565b6102886106ed565b610268610784565b610288610794565b610288610326366004611891565b6107f1565b61028861085d565b61024a6108fa565b61024a610900565b610288610351366004611891565b610906565b6102886103643660046118cd565b610957565b61024a6109c0565b61028861037f3660046117c8565b6109c6565b61024a610a30565b61024a610adb565b61024a610ae1565b6103af6103aa366004611891565b610ae7565b60405161025793929190611cb3565b610288610bac565b6102886103d4366004611891565b610d7e565b610292610dcf565b6103e9610dde565b6040516102579190611e03565b61024a610df1565b61024a610df7565b610288610414366004611891565b610dfd565b61024a610e26565b61024a610e2c565b610268610e32565b61024a610e42565b610292610e4e565b60045481565b6000610451610e5d565b5060015b90565b600c546001600160a01b0316331461046f57600080fd5b60116040518060600160405280600115158152602001856001600160a01b0316815260200184848080601f01602080910402602001604051908101604052809392919081815260200183838082843760009201829052509390945250508354600181810180875595835260209283902085516002909302018054848701516001600160a01b031661010002610100600160a81b031994151560ff19909216919091179390931692909217825560408501518051929450610535939185019291019061155f565b50505050505050565b600c546001600160a01b031681565b600c546001600160a01b0316331461056457600080fd5b6000831161057157600080fd5b82821061057d57600080fd5b600492909255600655600755565b60025481565b600c546001600160a01b031633146105a857600080fd5b600081116105b557600080fd5b600055565b600d546001600160a01b031681565b600a5481565b60055481565b600e546001600160a01b031681565b600c546001600160a01b031633146105fb57600080fd5b60115481106106255760405162461bcd60e51b815260040161061c90611daa565b60405180910390fd5b601154600019018110156106d65760118054600019810190811061064557fe5b90600052602060002090600202016011828154811061066057fe5b6000918252602090912082546002928302909101805460ff191660ff9092161515919091178082558354610100600160a81b0319909116610100918290046001600160a01b031682021782556001808501805493946106d29483870194929381161590920260001901909116046115dd565b5050505b60118054906106e9906000198301611652565b5050565b600d546001600160a01b031633146107175760405162461bcd60e51b815260040161061c90611d4a565b600c8054600d80546001600160a01b03198084166001600160a01b0383811691909117958690559116909155604051918116927f1f14cfc03e486d23acee577b07bc0b3b23f4888c91fcdba5e0fef5a2549d5523926107799285921690611c8a565b60405180910390a150565b601054600160c81b900460ff1681565b6000600954116107b65760405162461bcd60e51b815260040161061c90611dba565b61a8c0600954014210156107dc5760405162461bcd60e51b815260040161061c90611d2a565b6010805460ff60c81b1916600160c81b179055565b600c546001600160a01b0316331461080857600080fd5b60006003541161081757600080fd5b60038054908290556040517f2a5cda4d16fba415b52d90b59ee30d4cb16494da9fd1ee51c4d5bac4a1f75bbe906108519083908590611de8565b60405180910390a15050565b6009541561087d5760405162461bcd60e51b815260040161061c90611d9a565b60105460009081906108a3906001600160a01b03811690600160c01b900460ff16610f03565b9150915060008163ffffffff16116108cd5760405162461bcd60e51b815260040161061c90611d1a565b6010805463ffffffff60a01b1916600160a01b63ffffffff93909316928302179055600a91909155600955565b60005481565b61a8c081565b600c546001600160a01b0316331461091d57600080fd5b60028054908290556040517f59b3ffce759ec92c629beee27554d8fbc2ca1a05020fa0cf500c890c172094be906108519083908590611de8565b600c546001600160a01b0316331461096e57600080fd5b601154821061098f5760405162461bcd60e51b815260040161061c90611d0a565b806011838154811061099d57fe5b60009182526020909120600290910201805460ff19169115159190911790555050565b60065481565b600c546001600160a01b031633146109dd57600080fd5b600d80546001600160a01b038381166001600160a01b03198316179092556040519116907f6163d5b9efd962645dd649e6e48a61bcb0f9df00997a2398b80d135a9ab0c61e906108519083908590611c8a565b60105460009081908190610a58906001600160a01b03811690600160c01b900460ff16610f03565b6010549193509150600160a01b900463ffffffff168103610a77611683565b60405180602001604052808363ffffffff16600a54870381610a9557fe5b046001600160e01b03168152509050610abe610ab982670de0b6b3a76400006110f9565b61115a565b71ffffffffffffffffffffffffffffffffffff1694505050505090565b60085481565b60075481565b60118181548110610af457fe5b6000918252602091829020600291820201805460018083018054604080516101009483161585026000190190921696909604601f810188900488028201880190965285815260ff84169750919092046001600160a01b03169492939092830182828015610ba25780601f10610b7757610100808354040283529160200191610ba2565b820191906000526020600020905b815481529060010190602001808311610b8557829003601f168201915b5050505050905083565b33321480610bc45750600c546001600160a01b031633145b610bcd57600080fd5b610bd5610e5d565b42610bed60045460055461116190919063ffffffff16565b10610bf757600080fd5b610c2e600654610c22610c156004544261118d90919063ffffffff16565b429063ffffffff6111cf16565b9063ffffffff61116116565b600555600854610c4590600163ffffffff61116116565b6008556000610c52611211565b9050600080610c60836112bc565b60005491935091508290610c7b90829063ffffffff61134b16565b90506000600e60009054906101000a90046001600160a01b031690506000816001600160a01b03166318160ddd6040518163ffffffff1660e01b815260040160206040518083038186803b158015610cd257600080fd5b505afa158015610ce6573d6000803e3d6000fd5b505050506040513d601f19601f82011682018060405250610d0a91908101906118af565b905060008415610535576000610d43670de0b6b3a7640000610d376002548861138d90919063ffffffff16565b9063ffffffff61134b16565b9050610d55858263ffffffff6111cf16565b9450610d73670de0b6b3a7640000610d37858463ffffffff61138d16565b505050505050505050565b600c546001600160a01b03163314610d9557600080fd5b600b8054908290556040517fe21b25c4eda0340cd924f3247795d0acde6c304b68ae77657bb2d4e840198bf8906108519083908590611de8565b6010546001600160a01b031681565b601054600160a01b900463ffffffff1681565b60015481565b60095481565b600c546001600160a01b03163314610e1457600080fd5b60008111610e2157600080fd5b600155565b600b5481565b60035481565b601054600160c01b900460ff1681565b670de0b6b3a764000081565b600f546001600160a01b031681565b601054600160c81b900460ff16610e865760405162461bcd60e51b815260040161061c90611d5a565b600654600454610e9d90429063ffffffff61118d16565b1015610ebb5760405162461bcd60e51b815260040161061c90611d7a565b600754600654610ed09163ffffffff61116116565b600454610ee490429063ffffffff61118d16565b10610f015760405162461bcd60e51b815260040161061c90611d8a565b565b600080610f0e6113c7565b90506000806000866001600160a01b0316630902f1ac6040518163ffffffff1660e01b815260040160606040518083038186803b158015610f4e57600080fd5b505afa158015610f62573d6000803e3d6000fd5b505050506040513d601f19601f82011682018060405250610f869190810190611844565b925092509250851561104357866001600160a01b0316635909c0d56040518163ffffffff1660e01b815260040160206040518083038186803b158015610fcb57600080fd5b505afa158015610fdf573d6000803e3d6000fd5b505050506040513d601f19601f8201168201806040525061100391908101906118af565b94508363ffffffff168163ffffffff161461103e5780840363ffffffff811661102c84866113d1565b516001600160e01b0316029590950194505b6110ef565b866001600160a01b0316635a3d54936040518163ffffffff1660e01b815260040160206040518083038186803b15801561107c57600080fd5b505afa158015611090573d6000803e3d6000fd5b505050506040513d601f19601f820116820180604052506110b491908101906118af565b94508363ffffffff168163ffffffff16146110ef5780840363ffffffff81166110dd85856113d1565b516001600160e01b0316029590950194505b5050509250929050565b611101611695565b600082158061112757505082516001600160e01b03168281029083828161112457fe5b04145b6111435760405162461bcd60e51b815260040161061c90611d6a565b604080516020810190915290815290505b92915050565b5160701c90565b6000828201838110156111865760405162461bcd60e51b815260040161061c90611cfa565b9392505050565b600061118683836040518060400160405280601881526020017f536166654d6174683a206d6f64756c6f206279207a65726f000000000000000081525061144c565b600061118683836040518060400160405280601e81526020017f536166654d6174683a207375627472616374696f6e206f766572666c6f770000815250611480565b60105460009081908190611239906001600160a01b03811690600160c01b900460ff16610f03565b6010549193509150600160a01b900463ffffffff168103611258611683565b60405180602001604052808363ffffffff16600a5487038161127657fe5b046001600160e01b03169052600a8590556010805463ffffffff60a01b1916600160a01b63ffffffff8716021790559050610abe610ab982670de0b6b3a76400006110f9565b6000806112c8836114ac565b156112d857506000905080611346565b60015483111561131c5760015461131190610d37670de0b6b3a7640000611305878463ffffffff6111cf16565b9063ffffffff61138d16565b600191509150611346565b60015461133f90610d37670de0b6b3a7640000611305838863ffffffff6111cf16565b6000915091505b915091565b600061118683836040518060400160405280601a81526020017f536166654d6174683a206469766973696f6e206279207a65726f000000000000815250611528565b60008261139c57506000611154565b828202828482816113a957fe5b04146111865760405162461bcd60e51b815260040161061c90611d3a565b63ffffffff421690565b6113d9611683565b6000826001600160701b0316116114025760405162461bcd60e51b815260040161061c90611dca565b6040805160208101909152806001600160701b0384166dffffffffffffffffffffffffffff60701b607087901b168161143757fe5b046001600160e01b0316815250905092915050565b6000818361146d5760405162461bcd60e51b815260040161061c9190611ce9565b5082848161147757fe5b06949350505050565b600081848411156114a45760405162461bcd60e51b815260040161061c9190611ce9565b505050900390565b6000806114d2670de0b6b3a7640000610d3760035460015461138d90919063ffffffff16565b905060015483101580156114f95750806114f7600154856111cf90919063ffffffff16565b105b8061118657506001548310801561118657506001548190611520908563ffffffff6111cf16565b109392505050565b600081836115495760405162461bcd60e51b815260040161061c9190611ce9565b50600083858161155557fe5b0495945050505050565b828054600181600116156101000203166002900490600052602060002090601f016020900481019282601f106115a057805160ff19168380011785556115cd565b828001600101855582156115cd579182015b828111156115cd5782518255916020019190600101906115b2565b506115d99291506116a8565b5090565b828054600181600116156101000203166002900490600052602060002090601f016020900481019282601f1061161657805485556115cd565b828001600101855582156115cd57600052602060002091601f016020900482015b828111156115cd578254825591600101919060010190611637565b81548183558181111561167e5760020281600202836000526020600020918201910161167e91906116c2565b505050565b60408051602081019091526000815290565b6040518060200160405280600081525090565b61045591905b808211156115d957600081556001016116ae565b61045591905b808211156115d95780546001600160a81b031916815560006116ed60018301826116f6565b506002016116c8565b50805460018160011615610100020316600290046000825580601f1061171c575061173a565b601f01602090049060005260206000209081019061173a91906116a8565b50565b803561115481611e89565b803561115481611e9d565b60008083601f84011261176557600080fd5b50813567ffffffffffffffff81111561177d57600080fd5b60208301915083600182028301111561179557600080fd5b9250929050565b805161115481611ea6565b803561115481611eaf565b805161115481611eaf565b805161115481611eb8565b6000602082840312156117da57600080fd5b60006117e6848461173d565b949350505050565b60008060006040848603121561180357600080fd5b600061180f868661173d565b935050602084013567ffffffffffffffff81111561182c57600080fd5b61183886828701611753565b92509250509250925092565b60008060006060848603121561185957600080fd5b6000611865868661179c565b93505060206118768682870161179c565b9250506040611887868287016117bd565b9150509250925092565b6000602082840312156118a357600080fd5b60006117e684846117a7565b6000602082840312156118c157600080fd5b60006117e684846117b2565b600080604083850312156118e057600080fd5b60006118ec85856117a7565b92505060206118fd85828601611748565b9150509250929050565b60008060006060848603121561191c57600080fd5b600061192886866117a7565b9350506020611939868287016117a7565b9250506040611887868287016117a7565b61195381611e1e565b82525050565b61195381611e29565b600061196d82611e11565b6119778185611e15565b9350611987818560208601611e4f565b61199081611e7f565b9093019392505050565b60006119a7601b83611e15565b7f536166654d6174683a206164646974696f6e206f766572666c6f770000000000815260200192915050565b60006119e0602883611e15565b7f696e646578206d75737420626520696e2072616e6765206f662073746f726564815267081d1e081b1a5cdd60c21b602082015260400192915050565b6000611a2a600983611e15565b686e6f2074726164657360b81b815260200192915050565b6000611a4f600a83611e15565b6921656e645f64656c617960b01b815260200192915050565b6000611a75602183611e15565b7f536166654d6174683a206d756c7469706c69636174696f6e206f766572666c6f8152607760f81b602082015260400192915050565b6000611ab8600883611e15565b672170656e64696e6760c01b815260200192915050565b6000611adc601383611e15565b727265626173696e67206e6f742061637469766560681b815260200192915050565b6000611b0b602383611e15565b7f4669786564506f696e743a204d554c5449504c49434154494f4e5f4f564552468152624c4f5760e81b602082015260400192915050565b6000611b50600983611e15565b68746f6f206561726c7960b81b815260200192915050565b6000611b75600883611e15565b67746f6f206c61746560c01b815260200192915050565b6000611b99601183611e15565b70185b1c9958591e481858dd1a5d985d1959607a1b815260200192915050565b6000611bc6601383611e15565b72696e646578206f7574206f6620626f756e647360681b815260200192915050565b6000611bf5602783611e15565b7f74776170207761736e277420696e697469617465642c2063616c6c20696e69748152665f74776170282960c81b602082015260400192915050565b6000611c3e601783611e15565b7f4669786564506f696e743a204449565f42595f5a45524f000000000000000000815260200192915050565b61195381610455565b61195381611e46565b60208101611154828461194a565b60408101611c98828561194a565b611186602083018461194a565b602081016111548284611959565b60608101611cc18286611959565b611cce602083018561194a565b8181036040830152611ce08184611962565b95945050505050565b602080825281016111868184611962565b602080825281016111548161199a565b60208082528101611154816119d3565b6020808252810161115481611a1d565b6020808252810161115481611a42565b6020808252810161115481611a68565b6020808252810161115481611aab565b6020808252810161115481611acf565b6020808252810161115481611afe565b6020808252810161115481611b43565b6020808252810161115481611b68565b6020808252810161115481611b8c565b6020808252810161115481611bb9565b6020808252810161115481611be8565b6020808252810161115481611c31565b602081016111548284611c6a565b60408101611df68285611c6a565b6111866020830184611c6a565b602081016111548284611c73565b5190565b90815260200190565b600061115482611e3a565b151590565b6001600160701b031690565b6001600160a01b031690565b63ffffffff1690565b60005b83811015611e6a578181015183820152602001611e52565b83811115611e79576000848401525b50505050565b601f01601f191690565b611e9281611e1e565b811461173a57600080fd5b611e9281611e29565b611e9281611e2e565b611e9281610455565b611e9281611e4656fea365627a7a72315820929f5600bd7043543dd8f87597a9d4fcb78bd5882978cbd4032a21463593740c6c6578706572696d656e74616cf564736f6c63430005110040",
  "source": "pragma solidity 0.5.17;\npragma experimental ABIEncoderV2;\n/*TO DO AFTER FARMING STARTS */\nimport \"../lib/SafeERC20.sol\";\nimport \"../lib/SafeMath.sol\";\nimport '../lib/IUniswapV2Pair.sol';\nimport \"../lib/UniswapV2OracleLibrary.sol\";\nimport \"../lib/IERC20.sol\";\n\ncontract VAMPRebaser {\n    using SafeMath for uint256;\n\n    struct Transaction {\n        bool enabled;\n        address destination;\n        bytes data;\n    }\n\n    struct UniVars {\n        uint256 VAMPsToUni;\n        uint256 amountFromReserves;\n        uint256 mintToReserves;\n    }\n\n    uint256 public constant BASE = 10 ** 18;\n\n    /// @notice Spreads out getting to the target price\n    uint256 public rebaseLag;\n\n    /// @notice Peg target\n    uint256 public targetRate;\n\n    /// @notice Percent of rebase that goes to minting for treasury building\n    uint256 public rebaseMintPerc;\n\n    // If the current exchange rate is within this fractional distance from the target, no supply\n    // update is performed. Fixed point number--same format as the rate.\n    // (ie) abs(rate - targetRate) / targetRate < deviationThreshold, then no supply change.\n    uint256 public deviationThreshold;\n\n    /// @notice More than this much time must pass between rebase operations.\n    uint256 public minRebaseTimeIntervalSec;\n\n    /// @notice Block timestamp of last rebase operation\n    uint256 public lastRebaseTimestampSec;\n\n    /// @notice The rebase window begins this many seconds into the minRebaseTimeInterval period.\n    // For example if minRebaseTimeInterval is 24hrs, it represents the time of day in seconds.\n    uint256 public rebaseWindowOffsetSec;\n\n    /// @notice The length of the time window where a rebase operation is allowed to execute, in seconds.\n    uint256 public rebaseWindowLengthSec;\n\n    /// @notice The number of rebase cycles since inception\n    uint256 public epoch;\n\n    /// @notice delays rebasing activation to facilitate liquidity\n    uint256 public constant rebaseDelay = 12 hours;\n\n    /// @notice Time of TWAP initialization\n    uint256 public timeOfTWAPInit;\n\n    /// @notice last TWAP cumulative price;\n    uint256 public priceCumulativeLast;\n\n    // Max slippage factor when buying reserve token. Magic number based on\n    // the fact that uniswap is a constant product. Therefore,\n    // targeting a % max slippage can be achieved by using a single precomputed\n    // number. i.e. 2.5% slippage is always equal to some f(maxSlippageFactor, reserves)\n    /// @notice the maximum slippage factor when buying reserve token\n    uint256 public maxSlippageFactor;\n\n    /// @notice Governance address\n    address public gov;\n\n    /// @notice Pending Governance address\n    address public pendingGov;\n\n    /// @notice VAMP token address\n    address public VAMPAddress;\n\n    /// @notice reserve token\n    address public reserveToken;\n\n    /// @notice pair for reserveToken <> VAMP\n    address public uniswap_pair;\n\n    /// @notice last TWAP update time\n    uint32 public blockTimestampLast;\n\n    /// @notice Whether or not this token is first in uniswap VAMP<>Reserve pair\n    bool public isToken0;\n\n    // rebasing is not active initially. It can be activated at T+12 hours from\n    // deployment time\n    ///@notice boolean showing rebase activation status\n    bool public rebasingActive;\n\n    // Stable ordering is not guaranteed.\n    Transaction[] public transactions;\n\n    /// @notice an event emitted when a transaction fails\n    event TransactionFailed(address indexed destination, uint index, bytes data);\n\n    /// @notice an event emitted when maxSlippageFactor is changed\n    event NewMaxSlippageFactor(uint256 oldSlippageFactor, uint256 newSlippageFactor);\n\n    /// @notice an event emitted when deviationThreshold is changed\n    event NewDeviationThreshold(uint256 oldDeviationThreshold, uint256 newDeviationThreshold);\n\n    /**\n     * @notice Sets the treasury mint percentage of rebase\n     */\n    event NewRebaseMintPercent(uint256 oldRebaseMintPerc, uint256 newRebaseMintPerc);\n\n    /**\n     * @notice Sets the reserve contract\n     */\n    event TreasuryIncreased(uint256 reservesAdded, uint256 VAMPsSold, uint256 VAMPsFromReserves, uint256 VAMPsToReserves);\n\n    /**\n     * @notice Event emitted when pendingGov is changed\n     */\n    event NewPendingGov(address oldPendingGov, address newPendingGov);\n\n    /**\n     * @notice Event emitted when gov is changed\n     */\n    event NewGov(address oldGov, address newGov);\n\n    modifier onlyGov() {\n        require(msg.sender == gov);\n        _;\n    }\n\n    constructor(\n        address VAMPAddress_,\n        address reserveToken_,\n        address uniswap_factory\n    )\n    public\n    {\n        minRebaseTimeIntervalSec = 12 hours;\n        rebaseWindowOffsetSec = 28800;\n        // 8am/8pm UTC rebases\n        (address token0, address token1) = sortTokens(VAMPAddress_, reserveToken_);\n\n        // used for interacting with uniswap\n        if (token0 == VAMPAddress_) {\n            isToken0 = true;\n        }\n\n        // uniswap VAMP<>Reserve pair\n        uniswap_pair = pairFor(uniswap_factory, token0, token1);\n\n        // Reserve token is not mutable. Must deploy a new rebaser to update it\n        reserveToken = reserveToken_;\n\n        VAMPAddress = VAMPAddress_;\n\n        // target 10% slippage\n        // 5.4%\n        maxSlippageFactor = 5409258 * 10 ** 10;\n\n        // 1 YCRV\n        targetRate = BASE;\n\n        // twice daily rebase, with targeting reaching peg in 5 days\n        rebaseLag = 10;\n\n        // 10%\n        rebaseMintPerc = 10 ** 17;\n\n        // 5%\n        deviationThreshold = 5 * 10 ** 16;\n\n        // 60 minutes\n        rebaseWindowLengthSec = 60 * 60;\n\n        // Changed in deployment scripts to facilitate protocol initiation\n        gov = msg.sender;\n    }\n\n    /**\n    @notice Updates slippage factor\n    @param maxSlippageFactor_ the new slippage factor\n    *\n    */\n    function setMaxSlippageFactor(uint256 maxSlippageFactor_)\n    public\n    onlyGov\n    {\n        uint256 oldSlippageFactor = maxSlippageFactor;\n        maxSlippageFactor = maxSlippageFactor_;\n        emit NewMaxSlippageFactor(oldSlippageFactor, maxSlippageFactor_);\n    }\n\n    /**\n    @notice Updates rebase mint percentage\n    @param rebaseMintPerc_ the new rebase mint percentage\n    *\n    */\n    function setRebaseMintPerc(uint256 rebaseMintPerc_)\n    public\n    onlyGov\n    {\n        uint256 oldPerc = rebaseMintPerc;\n        rebaseMintPerc = rebaseMintPerc_;\n        emit NewRebaseMintPercent(oldPerc, rebaseMintPerc_);\n    }\n\n\n    /** @notice sets the pendingGov\n     * @param pendingGov_ The address of the rebaser contract to use for authentication.\n     */\n    function _setPendingGov(address pendingGov_)\n    external\n    onlyGov\n    {\n        address oldPendingGov = pendingGov;\n        pendingGov = pendingGov_;\n        emit NewPendingGov(oldPendingGov, pendingGov_);\n    }\n\n    /** @notice lets msg.sender accept governance\n     *\n     */\n    function _acceptGov()\n    external\n    {\n        require(msg.sender == pendingGov, \"!pending\");\n        address oldGov = gov;\n        gov = pendingGov;\n        pendingGov = address(0);\n        emit NewGov(oldGov, gov);\n    }\n\n\n    /**\n     * @notice Sets the deviation threshold fraction. If the exchange rate given by the market\n     *         oracle is within this fractional distance from the targetRate, then no supply\n     *         modifications are made.\n     * @param deviationThreshold_ The new exchange rate threshold fraction.\n     */\n    function setDeviationThreshold(uint256 deviationThreshold_)\n    external\n    onlyGov\n    {\n        require(deviationThreshold > 0);\n        uint256 oldDeviationThreshold = deviationThreshold;\n        deviationThreshold = deviationThreshold_;\n        emit NewDeviationThreshold(oldDeviationThreshold, deviationThreshold_);\n    }\n\n    /**\n     * @notice Sets the rebase lag parameter.\n               It is used to dampen the applied supply adjustment by 1 / rebaseLag\n               If the rebase lag R, equals 1, the smallest value for R, then the full supply\n               correction is applied on each rebase cycle.\n               If it is greater than 1, then a correction of 1/R of is applied on each rebase.\n     * @param rebaseLag_ The new rebase lag parameter.\n     */\n    function setRebaseLag(uint256 rebaseLag_)\n    external\n    onlyGov\n    {\n        require(rebaseLag_ > 0);\n        rebaseLag = rebaseLag_;\n    }\n\n    /**\n     * @notice Sets the targetRate parameter.\n     * @param targetRate_ The new target rate parameter.\n     */\n    function setTargetRate(uint256 targetRate_)\n    external\n    onlyGov\n    {\n        require(targetRate_ > 0);\n        targetRate = targetRate_;\n    }\n\n    /**\n     * @notice Sets the parameters which control the timing and frequency of\n     *         rebase operations.\n     *         a) the minimum time period that must elapse between rebase cycles.\n     *         b) the rebase window offset parameter.\n     *         c) the rebase window length parameter.\n     * @param minRebaseTimeIntervalSec_ More than this much time must pass between rebase\n     *        operations, in seconds.\n     * @param rebaseWindowOffsetSec_ The number of seconds from the beginning of\n              the rebase interval, where the rebase window begins.\n     * @param rebaseWindowLengthSec_ The length of the rebase window in seconds.\n     */\n    function setRebaseTimingParameters(\n        uint256 minRebaseTimeIntervalSec_,\n        uint256 rebaseWindowOffsetSec_,\n        uint256 rebaseWindowLengthSec_\n    )\n    external\n    onlyGov\n    {\n        require(minRebaseTimeIntervalSec_ > 0);\n        require(rebaseWindowOffsetSec_ < minRebaseTimeIntervalSec_);\n\n        minRebaseTimeIntervalSec = minRebaseTimeIntervalSec_;\n        rebaseWindowOffsetSec = rebaseWindowOffsetSec_;\n        rebaseWindowLengthSec = rebaseWindowLengthSec_;\n    }\n\n    /** @notice Initializes TWAP start point, starts countdown to first rebase\n    *\n    */\n    function init_twap()\n    public\n    {\n        require(timeOfTWAPInit == 0, \"already activated\");\n        (uint priceCumulative, uint32 blockTimestamp) =\n        UniswapV2OracleLibrary.currentCumulativePrices(uniswap_pair, isToken0);\n        require(blockTimestamp > 0, \"no trades\");\n        blockTimestampLast = blockTimestamp;\n        priceCumulativeLast = priceCumulative;\n        timeOfTWAPInit = blockTimestamp;\n    }\n\n    /** @notice Activates rebasing\n    *   @dev One way function, cannot be undone, callable by anyone\n    */\n    function activate_rebasing()\n    public\n    {\n        require(timeOfTWAPInit > 0, \"twap wasn't initiated, call init_twap()\");\n        // cannot enable prior to end of rebaseDelay\n        require(now >= timeOfTWAPInit + rebaseDelay, \"!end_delay\");\n\n        rebasingActive = true;\n    }\n\n    /**\n     * @notice Initiates a new rebase operation, provided the minimum time period has elapsed.\n     *\n     * @dev The supply adjustment equals (_totalSupply * DeviationFromTargetRate) / rebaseLag\n     *      Where DeviationFromTargetRate is (MarketOracleRate - targetRate) / targetRate\n     *      and targetRate is 1e18\n     */\n    function rebase()\n    public\n    {\n        // EOA only or gov\n        require(msg.sender == tx.origin || msg.sender == gov);\n        // ensure rebasing at correct time\n        _inRebaseWindow();\n\n        // This comparison also ensures there is no reentrancy.\n        require(lastRebaseTimestampSec.add(minRebaseTimeIntervalSec) < now);\n\n        // Snap the rebase time to the start of this window.\n        lastRebaseTimestampSec = now.sub(\n            now.mod(minRebaseTimeIntervalSec)).add(rebaseWindowOffsetSec);\n\n        epoch = epoch.add(1);\n\n        // get twap from uniswap v2;\n        uint256 exchangeRate = getTWAP();\n\n        //TODO:\n        //get volume from outside oracle \n\n        // calculates % change to supply\n        (uint256 offPegPerc, bool positive) = computeOffPegPerc(exchangeRate);\n\n        uint256 indexDelta = offPegPerc;\n\n        // Apply the Dampening factor.\n        indexDelta = indexDelta.div(rebaseLag);\n\n        IERC20 Vamp = IERC20(VAMPAddress);\n\n        //        if (positive) {\n        //            require(VAMP.scalingFactor().mul(uint256(BASE).add(indexDelta)).div(BASE) < VAMP.maxScalingFactor(), \"new scaling factor will be too big\");\n        //        }\n\n        uint256 currSupply = Vamp.totalSupply();\n\n        uint256 mintAmount;\n        // Reduce indexDelta to account for minting.\n        if (positive) {\n            uint256 mintPerc = indexDelta.mul(rebaseMintPerc).div(BASE);\n            indexDelta = indexDelta.sub(mintPerc);\n            mintAmount = currSupply.mul(mintPerc).div(BASE);\n        }\n\n        // Perform rebase. - this is fucked due to the fat file we have for Vamp tokends\n        //Vamp.rebase(epoch, indexDelta, positive);\n        //        assert(VAMP.scalingFactor() <= VAMP.maxScalingFactor());\n\n        // Perform actions after rebase.\n        // afterRebase(mintAmount, offPegPerc);\n    }\n\n    /*function uniswapV2Call(\n        address sender,\n        uint256 amount0,\n        uint256 amount1,\n        bytes memory data\n    )\n        public\n    {\n        // enforce that it is coming from uniswap\n        require(msg.sender == uniswap_pair, \"bad msg.sender\");\n        // enforce that this contract called uniswap\n        require(sender == address(this), \"bad origin\");\n        (UniVars memory uniVars) = abi.decode(data, (UniVars));\n\n        VAMPTokenInterface VAMP = VAMPTokenInterface(VAMPAddress);\n\n        if (uniVars.amountFromReserves > 0) {\n            // transfer from reserves and mint to uniswap\n            VAMP.transferFrom(reservesContract, uniswap_pair, uniVars.amountFromReserves);\n            if (uniVars.amountFromReserves < uniVars.VAMPsToUni) {\n                // if the amount from reserves > VAMPsToUni, we have fully paid for the yCRV tokens\n                // thus this number would be 0 so no need to mint\n                VAMP.mint(uniswap_pair, uniVars.VAMPsToUni.sub(uniVars.amountFromReserves));\n            }\n        } else {\n            // mint to uniswap\n            VAMP.mint(uniswap_pair, uniVars.VAMPsToUni);\n        }\n\n        // mint unsold to mintAmount\n        if (uniVars.mintToReserves > 0) {\n            VAMP.mint(reservesContract, uniVars.mintToReserves);\n        }\n\n        // transfer reserve token to reserves\n        if (isToken0) {\n            SafeERC20.safeTransfer(IERC20(reserveToken), reservesContract, amount1);\n            emit TreasuryIncreased(amount1, uniVars.VAMPsToUni, uniVars.amountFromReserves, uniVars.mintToReserves);\n        } else {\n            SafeERC20.safeTransfer(IERC20(reserveToken), reservesContract, amount0);\n            emit TreasuryIncreased(amount0, uniVars.VAMPsToUni, uniVars.amountFromReserves, uniVars.mintToReserves);\n        }\n    }\n\n    function buyReserveAndTransfer(\n        uint256 mintAmount,\n        uint256 offPegPerc\n    )\n        internal\n    {\n        UniswapPair pair = UniswapPair(uniswap_pair);\n\n        VAMPTokenInterface VAMP = VAMPTokenInterface(VAMPAddress);\n\n        // get reserves\n        (uint256 token0Reserves, uint256 token1Reserves, ) = pair.getReserves();\n\n        // check if protocol has excess VAMP in the reserve\n        uint256 excess = VAMP.balanceOf(reservesContract);\n\n\n        uint256 tokens_to_max_slippage = uniswapMaxSlippage(token0Reserves, token1Reserves, offPegPerc);\n\n        UniVars memory uniVars = UniVars({\n            VAMPsToUni: tokens_to_max_slippage, // how many VAMPs uniswap needs\n            amountFromReserves: excess, // how much of VAMPsToUni comes from reserves\n            mintToReserves: 0 // how much VAMPs protocol mints to reserves\n        });\n\n        // tries to sell all mint + excess\n        // falls back to selling some of mint and all of excess\n        // if all else fails, sells portion of excess\n        // upon pair.swap, `uniswapV2Call` is called by the uniswap pair contract\n        if (isToken0) {\n            if (tokens_to_max_slippage > mintAmount.add(excess)) {\n                // we already have performed a safemath check on mintAmount+excess\n                // so we dont need to continue using it in this code path\n\n                // can handle selling all of reserves and mint\n                uint256 buyTokens = getAmountOut(mintAmount + excess, token0Reserves, token1Reserves);\n                uniVars.VAMPsToUni = mintAmount + excess;\n                uniVars.amountFromReserves = excess;\n                // call swap using entire mint amount and excess; mint 0 to reserves\n                pair.swap(0, buyTokens, address(this), abi.encode(uniVars));\n            } else {\n                if (tokens_to_max_slippage > excess) {\n                    // uniswap can handle entire reserves\n                    uint256 buyTokens = getAmountOut(tokens_to_max_slippage, token0Reserves, token1Reserves);\n\n                    // swap up to slippage limit, taking entire VAMP reserves, and minting part of total\n                    uniVars.mintToReserves = mintAmount.sub((tokens_to_max_slippage - excess));\n                    pair.swap(0, buyTokens, address(this), abi.encode(uniVars));\n                } else {\n                    // uniswap cant handle all of excess\n                    uint256 buyTokens = getAmountOut(tokens_to_max_slippage, token0Reserves, token1Reserves);\n                    uniVars.amountFromReserves = tokens_to_max_slippage;\n                    uniVars.mintToReserves = mintAmount;\n                    // swap up to slippage limit, taking excess - remainingExcess from reserves, and minting full amount\n                    // to reserves\n                    pair.swap(0, buyTokens, address(this), abi.encode(uniVars));\n                }\n            }\n        } else {\n            if (tokens_to_max_slippage > mintAmount.add(excess)) {\n                // can handle all of reserves and mint\n                uint256 buyTokens = getAmountOut(mintAmount + excess, token1Reserves, token0Reserves);\n                uniVars.VAMPsToUni = mintAmount + excess;\n                uniVars.amountFromReserves = excess;\n                // call swap using entire mint amount and excess; mint 0 to reserves\n                pair.swap(buyTokens, 0, address(this), abi.encode(uniVars));\n            } else {\n                if (tokens_to_max_slippage > excess) {\n                    // uniswap can handle entire reserves\n                    uint256 buyTokens = getAmountOut(tokens_to_max_slippage, token1Reserves, token0Reserves);\n\n                    // swap up to slippage limit, taking entire VAMP reserves, and minting part of total\n                    uniVars.mintToReserves = mintAmount.sub( (tokens_to_max_slippage - excess));\n                    // swap up to slippage limit, taking entire VAMP reserves, and minting part of total\n                    pair.swap(buyTokens, 0, address(this), abi.encode(uniVars));\n                } else {\n                    // uniswap cant handle all of excess\n                    uint256 buyTokens = getAmountOut(tokens_to_max_slippage, token1Reserves, token0Reserves);\n                    uniVars.amountFromReserves = tokens_to_max_slippage;\n                    uniVars.mintToReserves = mintAmount;\n                    // swap up to slippage limit, taking excess - remainingExcess from reserves, and minting full amount\n                    // to reserves\n                    pair.swap(buyTokens, 0, address(this), abi.encode(uniVars));\n                }\n            }\n        }\n    }\n\n    function uniswapMaxSlippage(\n        uint256 token0,\n        uint256 token1,\n        uint256 offPegPerc\n    )\n      internal\n      view\n      returns (uint256)\n    {\n        if (isToken0) {\n            if (offPegPerc >= 10**17) {\n                // cap slippage\n                return token0.mul(maxSlippageFactor).div(BASE);\n            } else {\n                // in the 5-10% off peg range, slippage is essentially 2*x (where x is percentage of pool to buy).\n                // all we care about is not pushing below the peg, so underestimate\n                // the amount we can sell by dividing by 3. resulting price impact\n                // should be ~= offPegPerc * 2 / 3, which will keep us above the peg\n                //\n                // this is a conservative heuristic\n                return token0.mul(offPegPerc / 3).div(BASE);\n            }\n        } else {\n            if (offPegPerc >= 10**17) {\n                return token1.mul(maxSlippageFactor).div(BASE);\n            } else {\n                return token1.mul(offPegPerc / 3).div(BASE);\n            }\n        }\n    }\n\n    function afterRebase(\n        uint256 mintAmount,\n        uint256 offPegPerc\n    )\n        internal\n    {\n        // update uniswap\n        UniswapPair(uniswap_pair).sync();\n\n        if (mintAmount > 0) {\n            buyReserveAndTransfer(\n                mintAmount,\n                offPegPerc\n            );\n        }\n\n        // call any extra functions\n        for (uint i = 0; i < transactions.length; i++) {\n            Transaction storage t = transactions[i];\n            if (t.enabled) {\n                bool result = externalCall(t.destination, t.data);\n                if (!result) {\n                    emit TransactionFailed(t.destination, i, t.data);\n                    revert(\"Transaction Failed\");\n                }\n            }\n        }\n    }*/\n\n\n    /**\n     * @notice Calculates TWAP from uniswap\n     *\n     * @dev When liquidity is low, this can be manipulated by an end of block -> next block\n     *      attack. We delay the activation of rebases 12 hours after liquidity incentives\n     *      to reduce this attack vector. Additional there is very little supply\n     *      to be able to manipulate this during that time period of highest vuln.\n     */\n    function getTWAP()\n    internal\n    returns (uint256)\n    {\n        (uint priceCumulative, uint32 blockTimestamp) =\n        UniswapV2OracleLibrary.currentCumulativePrices(uniswap_pair, isToken0);\n        uint32 timeElapsed = blockTimestamp - blockTimestampLast;\n        // overflow is desired\n\n        // no period check as is done in isRebaseWindow\n\n        // overflow is desired, casting never truncates\n        // cumulative price is in (uq112x112 price * seconds) units so we simply wrap it after division by time elapsed\n        FixedPoint.uq112x112 memory priceAverage = FixedPoint.uq112x112(uint224((priceCumulative - priceCumulativeLast) / timeElapsed));\n\n        priceCumulativeLast = priceCumulative;\n        blockTimestampLast = blockTimestamp;\n\n        return FixedPoint.decode144(FixedPoint.mul(priceAverage, BASE));\n    }\n\n    /**\n     * @notice Calculates current TWAP from uniswap\n     *\n     */\n    function getCurrentTWAP()\n    public\n    view\n    returns (uint256)\n    {\n        (uint priceCumulative, uint32 blockTimestamp) =\n        UniswapV2OracleLibrary.currentCumulativePrices(uniswap_pair, isToken0);\n        uint32 timeElapsed = blockTimestamp - blockTimestampLast;\n        // overflow is desired\n\n        // no period check as is done in isRebaseWindow\n\n        // overflow is desired, casting never truncates\n        // cumulative price is in (uq112x112 price * seconds) units so we simply wrap it after division by time elapsed\n        FixedPoint.uq112x112 memory priceAverage = FixedPoint.uq112x112(uint224((priceCumulative - priceCumulativeLast) / timeElapsed));\n\n        return FixedPoint.decode144(FixedPoint.mul(priceAverage, BASE));\n    }\n\n    /**\n     * @return If the latest block timestamp is within the rebase time window it, returns true.\n     *         Otherwise, returns false.\n     */\n    function inRebaseWindow() public view returns (bool) {\n        // rebasing is delayed until there is a liquid market\n        _inRebaseWindow();\n        return true;\n    }\n\n    function _inRebaseWindow() internal view {\n        // rebasing is delayed until there is a liquid market\n        require(rebasingActive, \"rebasing not active\");\n\n        require(now.mod(minRebaseTimeIntervalSec) >= rebaseWindowOffsetSec, \"too early\");\n        require(now.mod(minRebaseTimeIntervalSec) < (rebaseWindowOffsetSec.add(rebaseWindowLengthSec)), \"too late\");\n    }\n\n    /**\n     * @return Computes in % how far off market is from peg\n     */\n    function computeOffPegPerc(uint256 rate)\n    private\n    view\n    returns (uint256, bool)\n    {\n        if (withinDeviationThreshold(rate)) {\n            return (0, false);\n        }\n\n        // indexDelta =  (rate - targetRate) / targetRate\n        if (rate > targetRate) {\n            return (rate.sub(targetRate).mul(BASE).div(targetRate), true);\n        } else {\n            return (targetRate.sub(rate).mul(BASE).div(targetRate), false);\n        }\n    }\n\n    /**\n     * @param rate The current exchange rate, an 18 decimal fixed point number.\n     * @return If the rate is within the deviation threshold from the target rate, returns true.\n     *         Otherwise, returns false.\n     */\n    function withinDeviationThreshold(uint256 rate)\n    private\n    view\n    returns (bool)\n    {\n        uint256 absoluteDeviationThreshold = targetRate.mul(deviationThreshold)\n        .div(10 ** 18);\n\n        return (rate >= targetRate && rate.sub(targetRate) < absoluteDeviationThreshold)\n        || (rate < targetRate && targetRate.sub(rate) < absoluteDeviationThreshold);\n    }\n\n    /* - Uniswap Helpers - */\n    /**\n     * @notice given an input amount of an asset and pair reserves, returns the maximum output amount of the other asset\n     *\n     * @param amountIn input amount of the asset\n     * @param reserveIn reserves of the asset being sold\n     * @param reserveOut reserves if the asset being purchased\n     */\n    function getAmountOut(\n        uint amountIn,\n        uint reserveIn,\n        uint reserveOut\n    )\n    internal\n    pure\n    returns (uint amountOut)\n    {\n        require(amountIn > 0, 'UniswapV2Library: INSUFFICIENT_INPUT_AMOUNT');\n        require(reserveIn > 0 && reserveOut > 0, 'UniswapV2Library: INSUFFICIENT_LIQUIDITY');\n        uint amountInWithFee = amountIn.mul(997);\n        uint numerator = amountInWithFee.mul(reserveOut);\n        uint denominator = reserveIn.mul(1000).add(amountInWithFee);\n        amountOut = numerator / denominator;\n    }\n\n    // calculates the CREATE2 address for a pair without making any external calls\n    function pairFor(\n        address factory,\n        address token0,\n        address token1\n    )\n    internal\n    pure\n    returns (address pair)\n    {\n        pair = address(uint(keccak256(abi.encodePacked(\n                hex'ff',\n                factory,\n                keccak256(abi.encodePacked(token0, token1)),\n                hex'96e8ac4277198ff8b6f785478aa9a39f403cb768dd02cbee326c3e7da348845f' // init code hash\n            ))));\n    }\n\n    // returns sorted token addresses, used to handle return values from pairs sorted in this order\n    function sortTokens(\n        address tokenA,\n        address tokenB\n    )\n    internal\n    pure\n    returns (address token0, address token1)\n    {\n        require(tokenA != tokenB, 'UniswapV2Library: IDENTICAL_ADDRESSES');\n        (token0, token1) = tokenA < tokenB ? (tokenA, tokenB) : (tokenB, tokenA);\n        require(token0 != address(0), 'UniswapV2Library: ZERO_ADDRESS');\n    }\n\n    /* -- Rebase helpers -- */\n\n    /**\n     * @notice Adds a transaction that gets called for a downstream receiver of rebases\n     * @param destination Address of contract destination\n     * @param data Transaction data payload\n     */\n    function addTransaction(address destination, bytes calldata data)\n    external\n    onlyGov\n    {\n        transactions.push(Transaction({\n        enabled : true,\n        destination : destination,\n        data : data\n        }));\n    }\n\n\n    /**\n     * @param index Index of transaction to remove.\n     *              Transaction ordering may have changed since adding.\n     */\n    function removeTransaction(uint index)\n    external\n    onlyGov\n    {\n        require(index < transactions.length, \"index out of bounds\");\n\n        if (index < transactions.length - 1) {\n            transactions[index] = transactions[transactions.length - 1];\n        }\n\n        transactions.length--;\n    }\n\n    /**\n     * @param index Index of transaction. Transaction ordering may have changed since adding.\n     * @param enabled True for enabled, false for disabled.\n     */\n    function setTransactionEnabled(uint index, bool enabled)\n    external\n    onlyGov\n    {\n        require(index < transactions.length, \"index must be in range of stored tx list\");\n        transactions[index].enabled = enabled;\n    }\n\n    /**\n     * @dev wrapper to call the encoded transactions on downstream consumers.\n     * @param destination Address of destination contract.\n     * @param data The encoded data payload.\n     * @return True on success\n     */\n    function externalCall(address destination, bytes memory data)\n    internal\n    returns (bool)\n    {\n        bool result;\n        assembly {// solhint-disable-line no-inline-assembly\n        // \"Allocate\" memory for output\n        // (0x40 is where \"free memory\" pointer is stored by convention)\n            let outputAddress := mload(0x40)\n\n        // First 32 bytes are the padded length of data, so exclude that\n            let dataAddress := add(data, 32)\n\n            result := call(\n            // 34710 is the value that solidity is currently emitting\n            // It includes callGas (700) + callVeryLow (3, to pay for SUB)\n            // + callValueTransferGas (9000) + callNewAccountGas\n            // (25000, in case the destination address does not exist and needs creating)\n            sub(gas, 34710),\n\n\n            destination,\n            0, // transfer value in wei\n            dataAddress,\n            mload(data), // Size of the input, in bytes. Stored in position 0 of the array.\n            outputAddress,\n            0  // Output is ignored, therefore the output size is zero\n            )\n        }\n        return result;\n    }\n}\n",
  "sourcePath": "/Users/admin/dev/vamp/Vampire-protocol-contracts/contracts/rebaser/VAMPRebaser.sol",
  "compiler": {
    "name": "solc",
    "version": "0.5.17+commit.d19bba13.Emscripten.clang"
  },
  "schemaVersion": "3.2.5",
  "updatedAt": "2020-10-10T01:31:50.044Z",
  "devdoc": {
    "methods": {
      "_setPendingGov(address)": {
        "params": {
          "pendingGov_": "The address of the rebaser contract to use for authentication."
        }
      },
      "activate_rebasing()": {
        "details": "One way function, cannot be undone, callable by anyone"
      },
      "addTransaction(address,bytes)": {
        "params": {
          "data": "Transaction data payload",
          "destination": "Address of contract destination"
        }
      },
      "inRebaseWindow()": {
        "return": "If the latest block timestamp is within the rebase time window it, returns true.        Otherwise, returns false."
      },
      "rebase()": {
        "details": "The supply adjustment equals (_totalSupply * DeviationFromTargetRate) / rebaseLag     Where DeviationFromTargetRate is (MarketOracleRate - targetRate) / targetRate     and targetRate is 1e18"
      },
      "removeTransaction(uint256)": {
        "params": {
          "index": "Index of transaction to remove.             Transaction ordering may have changed since adding."
        }
      },
      "setDeviationThreshold(uint256)": {
        "params": {
          "deviationThreshold_": "The new exchange rate threshold fraction."
        }
      },
      "setMaxSlippageFactor(uint256)": {
        "params": {
          "maxSlippageFactor_": "the new slippage factor    "
        }
      },
      "setRebaseLag(uint256)": {
        "params": {
          "rebaseLag_": "The new rebase lag parameter."
        }
      },
      "setRebaseMintPerc(uint256)": {
        "params": {
          "rebaseMintPerc_": "the new rebase mint percentage    "
        }
      },
      "setRebaseTimingParameters(uint256,uint256,uint256)": {
        "params": {
          "minRebaseTimeIntervalSec_": "More than this much time must pass between rebase       operations, in seconds.",
          "rebaseWindowLengthSec_": "The length of the rebase window in seconds.",
          "rebaseWindowOffsetSec_": "The number of seconds from the beginning of the rebase interval, where the rebase window begins."
        }
      },
      "setTargetRate(uint256)": {
        "params": {
          "targetRate_": "The new target rate parameter."
        }
      },
      "setTransactionEnabled(uint256,bool)": {
        "params": {
          "enabled": "True for enabled, false for disabled.",
          "index": "Index of transaction. Transaction ordering may have changed since adding."
        }
      }
    }
  },
  "userdoc": {
    "methods": {
      "_acceptGov()": {
        "notice": "lets msg.sender accept governance     "
      },
      "_setPendingGov(address)": {
        "notice": "sets the pendingGov"
      },
      "activate_rebasing()": {
        "notice": "Activates rebasing"
      },
      "addTransaction(address,bytes)": {
        "notice": "Adds a transaction that gets called for a downstream receiver of rebases"
      },
      "getCurrentTWAP()": {
        "notice": "Calculates current TWAP from uniswap     "
      },
      "init_twap()": {
        "notice": "Initializes TWAP start point, starts countdown to first rebase    "
      },
      "rebase()": {
        "notice": "Initiates a new rebase operation, provided the minimum time period has elapsed."
      },
      "setDeviationThreshold(uint256)": {
        "notice": "Sets the deviation threshold fraction. If the exchange rate given by the market        oracle is within this fractional distance from the targetRate, then no supply        modifications are made."
      },
      "setMaxSlippageFactor(uint256)": {
        "notice": "Updates slippage factor"
      },
      "setRebaseLag(uint256)": {
        "notice": "Sets the rebase lag parameter. It is used to dampen the applied supply adjustment by 1 / rebaseLag If the rebase lag R, equals 1, the smallest value for R, then the full supply correction is applied on each rebase cycle. If it is greater than 1, then a correction of 1/R of is applied on each rebase."
      },
      "setRebaseMintPerc(uint256)": {
        "notice": "Updates rebase mint percentage"
      },
      "setRebaseTimingParameters(uint256,uint256,uint256)": {
        "notice": "Sets the parameters which control the timing and frequency of        rebase operations.        a) the minimum time period that must elapse between rebase cycles.        b) the rebase window offset parameter.        c) the rebase window length parameter."
      },
      "setTargetRate(uint256)": {
        "notice": "Sets the targetRate parameter."
      }
    }
  }
}