{
  "contractName": "VAMP",
  "abi": [
    {
      "inputs": [],
      "payable": false,
      "stateMutability": "nonpayable",
      "type": "constructor"
    },
    {
      "anonymous": false,
      "inputs": [
        {
          "indexed": true,
          "internalType": "address",
          "name": "owner",
          "type": "address"
        },
        {
          "indexed": true,
          "internalType": "address",
          "name": "spender",
          "type": "address"
        },
        {
          "indexed": false,
          "internalType": "uint256",
          "name": "amount",
          "type": "uint256"
        }
      ],
      "name": "Approval",
      "type": "event"
    },
    {
      "anonymous": false,
      "inputs": [
        {
          "indexed": true,
          "internalType": "uint256",
          "name": "epoch",
          "type": "uint256"
        },
        {
          "indexed": false,
          "internalType": "uint256",
          "name": "totalSupply",
          "type": "uint256"
        }
      ],
      "name": "LogRebase",
      "type": "event"
    },
    {
      "anonymous": false,
      "inputs": [
        {
          "indexed": false,
          "internalType": "address",
          "name": "lockedOwner",
          "type": "address"
        }
      ],
      "name": "OwnershipLocked",
      "type": "event"
    },
    {
      "anonymous": false,
      "inputs": [
        {
          "indexed": true,
          "internalType": "address",
          "name": "previousOwner",
          "type": "address"
        }
      ],
      "name": "OwnershipRenounced",
      "type": "event"
    },
    {
      "anonymous": false,
      "inputs": [
        {
          "indexed": true,
          "internalType": "address",
          "name": "previousOwner",
          "type": "address"
        },
        {
          "indexed": true,
          "internalType": "address",
          "name": "newOwner",
          "type": "address"
        }
      ],
      "name": "OwnershipTransferred",
      "type": "event"
    },
    {
      "anonymous": false,
      "inputs": [
        {
          "indexed": true,
          "internalType": "address",
          "name": "destination",
          "type": "address"
        },
        {
          "indexed": false,
          "internalType": "uint256",
          "name": "index",
          "type": "uint256"
        },
        {
          "indexed": false,
          "internalType": "bytes",
          "name": "data",
          "type": "bytes"
        }
      ],
      "name": "TransactionFailed",
      "type": "event"
    },
    {
      "anonymous": false,
      "inputs": [
        {
          "indexed": true,
          "internalType": "address",
          "name": "from",
          "type": "address"
        },
        {
          "indexed": true,
          "internalType": "address",
          "name": "to",
          "type": "address"
        },
        {
          "indexed": false,
          "internalType": "uint256",
          "name": "amount",
          "type": "uint256"
        }
      ],
      "name": "Transfer",
      "type": "event"
    },
    {
      "constant": false,
      "inputs": [
        {
          "internalType": "address",
          "name": "destination",
          "type": "address"
        },
        {
          "internalType": "bytes",
          "name": "data",
          "type": "bytes"
        }
      ],
      "name": "addTransaction",
      "outputs": [],
      "payable": false,
      "stateMutability": "nonpayable",
      "type": "function"
    },
    {
      "constant": true,
      "inputs": [
        {
          "internalType": "address",
          "name": "owner_",
          "type": "address"
        },
        {
          "internalType": "address",
          "name": "spender",
          "type": "address"
        }
      ],
      "name": "allowance",
      "outputs": [
        {
          "internalType": "uint256",
          "name": "",
          "type": "uint256"
        }
      ],
      "payable": false,
      "stateMutability": "view",
      "type": "function"
    },
    {
      "constant": false,
      "inputs": [
        {
          "internalType": "address",
          "name": "spender",
          "type": "address"
        },
        {
          "internalType": "uint256",
          "name": "value",
          "type": "uint256"
        }
      ],
      "name": "approve",
      "outputs": [
        {
          "internalType": "bool",
          "name": "",
          "type": "bool"
        }
      ],
      "payable": false,
      "stateMutability": "nonpayable",
      "type": "function"
    },
    {
      "constant": true,
      "inputs": [
        {
          "internalType": "address",
          "name": "who",
          "type": "address"
        }
      ],
      "name": "balanceOf",
      "outputs": [
        {
          "internalType": "uint256",
          "name": "",
          "type": "uint256"
        }
      ],
      "payable": false,
      "stateMutability": "view",
      "type": "function"
    },
    {
      "constant": false,
      "inputs": [
        {
          "internalType": "uint256",
          "name": "amount",
          "type": "uint256"
        }
      ],
      "name": "burn",
      "outputs": [
        {
          "internalType": "bool",
          "name": "",
          "type": "bool"
        }
      ],
      "payable": false,
      "stateMutability": "nonpayable",
      "type": "function"
    },
    {
      "constant": true,
      "inputs": [],
      "name": "decimals",
      "outputs": [
        {
          "internalType": "uint8",
          "name": "",
          "type": "uint8"
        }
      ],
      "payable": false,
      "stateMutability": "view",
      "type": "function"
    },
    {
      "constant": false,
      "inputs": [
        {
          "internalType": "address",
          "name": "spender",
          "type": "address"
        },
        {
          "internalType": "uint256",
          "name": "subtractedValue",
          "type": "uint256"
        }
      ],
      "name": "decreaseAllowance",
      "outputs": [
        {
          "internalType": "bool",
          "name": "",
          "type": "bool"
        }
      ],
      "payable": false,
      "stateMutability": "nonpayable",
      "type": "function"
    },
    {
      "constant": false,
      "inputs": [
        {
          "internalType": "address",
          "name": "spender",
          "type": "address"
        },
        {
          "internalType": "uint256",
          "name": "addedValue",
          "type": "uint256"
        }
      ],
      "name": "increaseAllowance",
      "outputs": [
        {
          "internalType": "bool",
          "name": "",
          "type": "bool"
        }
      ],
      "payable": false,
      "stateMutability": "nonpayable",
      "type": "function"
    },
    {
      "constant": true,
      "inputs": [],
      "name": "isOwner",
      "outputs": [
        {
          "internalType": "bool",
          "name": "",
          "type": "bool"
        }
      ],
      "payable": false,
      "stateMutability": "view",
      "type": "function"
    },
    {
      "constant": false,
      "inputs": [],
      "name": "lockOwnership",
      "outputs": [],
      "payable": false,
      "stateMutability": "nonpayable",
      "type": "function"
    },
    {
      "constant": false,
      "inputs": [
        {
          "internalType": "address",
          "name": "account",
          "type": "address"
        },
        {
          "internalType": "uint256",
          "name": "amount",
          "type": "uint256"
        }
      ],
      "name": "mint",
      "outputs": [
        {
          "internalType": "bool",
          "name": "",
          "type": "bool"
        }
      ],
      "payable": false,
      "stateMutability": "nonpayable",
      "type": "function"
    },
    {
      "constant": true,
      "inputs": [],
      "name": "name",
      "outputs": [
        {
          "internalType": "string",
          "name": "",
          "type": "string"
        }
      ],
      "payable": false,
      "stateMutability": "view",
      "type": "function"
    },
    {
      "constant": true,
      "inputs": [],
      "name": "owner",
      "outputs": [
        {
          "internalType": "address",
          "name": "",
          "type": "address"
        }
      ],
      "payable": false,
      "stateMutability": "view",
      "type": "function"
    },
    {
      "constant": false,
      "inputs": [
        {
          "internalType": "int256",
          "name": "supplyDelta",
          "type": "int256"
        }
      ],
      "name": "rebase",
      "outputs": [
        {
          "internalType": "uint256",
          "name": "",
          "type": "uint256"
        }
      ],
      "payable": false,
      "stateMutability": "nonpayable",
      "type": "function"
    },
    {
      "constant": false,
      "inputs": [
        {
          "internalType": "uint256",
          "name": "index",
          "type": "uint256"
        }
      ],
      "name": "removeTransaction",
      "outputs": [],
      "payable": false,
      "stateMutability": "nonpayable",
      "type": "function"
    },
    {
      "constant": false,
      "inputs": [
        {
          "internalType": "address",
          "name": "_rebaser",
          "type": "address"
        }
      ],
      "name": "setRebaser",
      "outputs": [],
      "payable": false,
      "stateMutability": "nonpayable",
      "type": "function"
    },
    {
      "constant": false,
      "inputs": [
        {
          "internalType": "uint256",
          "name": "index",
          "type": "uint256"
        },
        {
          "internalType": "bool",
          "name": "enabled",
          "type": "bool"
        }
      ],
      "name": "setTransactionEnabled",
      "outputs": [],
      "payable": false,
      "stateMutability": "nonpayable",
      "type": "function"
    },
    {
      "constant": true,
      "inputs": [],
      "name": "symbol",
      "outputs": [
        {
          "internalType": "string",
          "name": "",
          "type": "string"
        }
      ],
      "payable": false,
      "stateMutability": "view",
      "type": "function"
    },
    {
      "constant": true,
      "inputs": [],
      "name": "totalSupply",
      "outputs": [
        {
          "internalType": "uint256",
          "name": "",
          "type": "uint256"
        }
      ],
      "payable": false,
      "stateMutability": "view",
      "type": "function"
    },
    {
      "constant": true,
      "inputs": [
        {
          "internalType": "uint256",
          "name": "",
          "type": "uint256"
        }
      ],
      "name": "transactions",
      "outputs": [
        {
          "internalType": "bool",
          "name": "enabled",
          "type": "bool"
        },
        {
          "internalType": "address",
          "name": "destination",
          "type": "address"
        },
        {
          "internalType": "bytes",
          "name": "data",
          "type": "bytes"
        }
      ],
      "payable": false,
      "stateMutability": "view",
      "type": "function"
    },
    {
      "constant": true,
      "inputs": [],
      "name": "transactionsSize",
      "outputs": [
        {
          "internalType": "uint256",
          "name": "",
          "type": "uint256"
        }
      ],
      "payable": false,
      "stateMutability": "view",
      "type": "function"
    },
    {
      "constant": false,
      "inputs": [
        {
          "internalType": "address",
          "name": "to",
          "type": "address"
        },
        {
          "internalType": "uint256",
          "name": "value",
          "type": "uint256"
        }
      ],
      "name": "transfer",
      "outputs": [
        {
          "internalType": "bool",
          "name": "",
          "type": "bool"
        }
      ],
      "payable": false,
      "stateMutability": "nonpayable",
      "type": "function"
    },
    {
      "constant": false,
      "inputs": [
        {
          "internalType": "address",
          "name": "from",
          "type": "address"
        },
        {
          "internalType": "address",
          "name": "to",
          "type": "address"
        },
        {
          "internalType": "uint256",
          "name": "value",
          "type": "uint256"
        }
      ],
      "name": "transferFrom",
      "outputs": [
        {
          "internalType": "bool",
          "name": "",
          "type": "bool"
        }
      ],
      "payable": false,
      "stateMutability": "nonpayable",
      "type": "function"
    },
    {
      "constant": false,
      "inputs": [
        {
          "internalType": "address",
          "name": "newOwner",
          "type": "address"
        }
      ],
      "name": "transferOwnership",
      "outputs": [],
      "payable": false,
      "stateMutability": "nonpayable",
      "type": "function"
    }
  ],
  "bytecode": "0x60806040523480156200001157600080fd5b5062000028336200010760201b620019361760201c565b6200007960405180604001604052806004815260200163056414d560e41b81525060405180604001604052806004815260200163056414d560e41b8152506012620001cb60201b620019eb1760201c565b6a0b5facfe5b81c365c00000609e90815533600090815260a1602090815260409091206a098b933fc4a4a1c77fffff19908190559154620000c49291620013d3620002bd821b17901c565b609f55609e54604080519182525133916000917fddf252ad1be2c89b69c2b068fc378daa952ba7f163c4a11628f55a4df523b3ef9181900360200190a36200045e565b600054610100900460ff16806200012c57506200012c6001600160e01b036200030e16565b806200013b575060005460ff16155b620001785760405162461bcd60e51b815260040180806020018281038252602e8152602001806200200a602e913960400191505060405180910390fd5b60008054606880546001600160a01b0319166001600160a01b039490941693909317909255606981905561ff001980831661010090811760ff19166001179091169281900460ff16151502919091179055565b600054610100900460ff1680620001f05750620001f06001600160e01b036200030e16565b80620001ff575060005460ff16155b6200023c5760405162461bcd60e51b815260040180806020018281038252602e8152602001806200200a602e913960400191505060405180910390fd5b60008054600161010061ff00198316811760ff191691909117909255845191900460ff169062000274906033906020870190620003bc565b5082516200028a906034906020860190620003bc565b506035805460ff90931660ff1990931692909217909155600080549115156101000261ff00199092169190911790555050565b60006200030783836040518060400160405280601a81526020017f536166654d6174683a206469766973696f6e206279207a65726f0000000000008152506200031560201b60201c565b9392505050565b303b155b90565b60008183620003a55760405162461bcd60e51b81526004018080602001828103825283818151815260200191508051906020019080838360005b83811015620003695781810151838201526020016200034f565b50505050905090810190601f168015620003975780820380516001836020036101000a031916815260200191505b509250505060405180910390fd5b506000838581620003b257fe5b0495945050505050565b828054600181600116156101000203166002900490600052602060002090601f016020900481019282601f10620003ff57805160ff19168380011785556200042f565b828001600101855582156200042f579182015b828111156200042f57825182559160200191906001019062000412565b506200043d92915062000441565b5090565b6200031291905b808211156200043d576000815560010162000448565b611b9c806200046e6000396000f3fe608060405234801561001057600080fd5b50600436106101585760003560e01c80636e9dde99116100c35780639ace38c21161007c5780639ace38c214610448578063a457c2d714610501578063a9059cbb1461052d578063dd62ed3e14610559578063e46adf6214610587578063f2fde38b146105ad57610158565b80636e9dde99146103c157806370a08231146103e65780638da5cb5b1461040c5780638f32d59b1461043057806391d4ec181461043857806395d89b411461044057610158565b806323b872dd1161011557806323b872dd146102db578063313ce56714610311578063395093511461032f57806340c10f191461035b57806342966c681461038757806346c3bd1f146103a457610158565b80630577c02b1461015d57806306fdde0314610167578063095ea7b3146101e45780630ab114f914610224578063126e19be1461025357806318160ddd146102d3575b600080fd5b6101656105d3565b005b61016f610637565b6040805160208082528351818301528351919283929083019185019080838360005b838110156101a9578181015183820152602001610191565b50505050905090810190601f1680156101d65780820380516001836020036101000a031916815260200191505b509250505060405180910390f35b610210600480360360408110156101fa57600080fd5b506001600160a01b0381351690602001356106ce565b604080519115158252519081900360200190f35b6102416004803603602081101561023a57600080fd5b5035610735565b60408051918252519081900360200190f35b6101656004803603604081101561026957600080fd5b6001600160a01b03823516919081019060408101602082013564010000000081111561029457600080fd5b8201836020820111156102a657600080fd5b803590602001918460018302840111640100000000831117156102c857600080fd5b509092509050610a6a565b610241610b4a565b610210600480360360608110156102f157600080fd5b506001600160a01b03813581169160208101359091169060400135610b50565b610319610c9d565b6040805160ff9092168252519081900360200190f35b6102106004803603604081101561034557600080fd5b506001600160a01b038135169060200135610ca6565b6102106004803603604081101561037157600080fd5b506001600160a01b038135169060200135610d3f565b6102106004803603602081101561039d57600080fd5b5035610d72565b610165600480360360208110156103ba57600080fd5b5035610d97565b610165600480360360408110156103d757600080fd5b50803590602001351515610ebc565b610241600480360360208110156103fc57600080fd5b50356001600160a01b0316610f3e565b610414610f6c565b604080516001600160a01b039092168252519081900360200190f35b610210610f7b565b610241610f8c565b61016f610f92565b6104656004803603602081101561045e57600080fd5b5035610ff3565b6040518084151515158152602001836001600160a01b03166001600160a01b0316815260200180602001828103825283818151815260200191508051906020019080838360005b838110156104c45781810151838201526020016104ac565b50505050905090810190601f1680156104f15780820380516001836020036101000a031916815260200191505b5094505050505060405180910390f35b6102106004803603604081101561051757600080fd5b506001600160a01b0381351690602001356110b8565b6102106004803603604081101561054357600080fd5b506001600160a01b0381351690602001356111a7565b6102416004803603604081101561056f57600080fd5b506001600160a01b038135811691602001351661128d565b6101656004803603602081101561059d57600080fd5b50356001600160a01b03166112b8565b610165600480360360208110156105c357600080fd5b50356001600160a01b03166112eb565b6105db610f7b565b6105e457600080fd5b606954156105f157600080fd5b606854604080516001600160a01b039092168252517f88edfb4ea96673000ad101b18d1c7dbd727c5d92217c8d0b9966f2aaf77e93f49181900360200190a16001606955565b60338054604080516020601f60026000196101006001881615020190951694909404938401819004810282018101909252828152606093909290918301828280156106c35780601f10610698576101008083540402835291602001916106c3565b820191906000526020600020905b8154815290600101906020018083116106a657829003601f168201915b505050505090505b90565b33600081815260a2602090815260408083206001600160a01b038716808552908352818420869055815186815291519394909390927f8c5be1e5ebec7d5bd14f71427d1e84f3dd0314c0f7b2291e5b200ac8c7c3b925928290030190a35060015b92915050565b60a0546000906001600160a01b0316331461074f57600080fd5b609d5461076390600163ffffffff61130816565b609d55816107ac57609d54609e5460408051918252517f72725a3b1e5bd622d6bcd1339bb31279c351abe8f541ac7fd320f24e1b1641f29181900360200190a250609e54610a65565b60008212156107d8576107d06107c183611369565b609e549063ffffffff61139116565b609e556107ef565b609e546107eb908363ffffffff61130816565b609e555b609e546001600160801b03101561080c576001600160801b03609e555b609e54610826906a098b933fc4a4a1c77fffff19906113d3565b609f55609d54609e5460408051918252517f72725a3b1e5bd622d6bcd1339bb31279c351abe8f541ac7fd320f24e1b1641f29181900360200190a260005b609c54811015610a5f576000609c828154811061087d57fe5b60009182526020909120600290910201805490915060ff1615610a565780546001808301805460408051602060026101009685161587026000190190941693909304601f81018490048402820184019092528181526000956109459590046001600160a01b031693909290919083018282801561093b5780601f106109105761010080835404028352916020019161093b565b820191906000526020600020905b81548152906001019060200180831161091e57829003601f168201915b5050505050611415565b905080610a545781546040805185815260208101828152600180870180546002610100938216158402600019019091160494840185905294046001600160a01b0316937f8091ecaaa54ebb82e02d36c2c336528e0fcb9b3430fc1291ac88295032b9c263938893919290606083019084908015610a035780601f106109d857610100808354040283529160200191610a03565b820191906000526020600020905b8154815290600101906020018083116109e657829003601f168201915b5050935050505060405180910390a26040805162461bcd60e51b8152602060048201526012602482015271151c985b9cd858dd1a5bdb8811985a5b195960721b604482015290519081900360640190fd5b505b50600101610864565b5050609e545b919050565b610a72610f7b565b610a7b57600080fd5b609c6040518060600160405280600115158152602001856001600160a01b0316815260200184848080601f01602080910402602001604051908101604052809392919081815260200183838082843760009201829052509390945250508354600181810180875595835260209283902085516002909302018054848701516001600160a01b031661010002610100600160a81b031994151560ff19909216919091179390931692909217825560408501518051929450610b419391850192910190611780565b50505050505050565b609e5490565b6000826001600160a01b038116610b6657600080fd5b6001600160a01b038116301415610b7c57600080fd5b6001600160a01b038516600090815260a260209081526040808320338452909152902054610bb0908463ffffffff61139116565b6001600160a01b038616600090815260a260209081526040808320338452909152812091909155609f54610beb90859063ffffffff61143816565b6001600160a01b038716600090815260a16020526040902054909150610c17908263ffffffff61139116565b6001600160a01b03808816600090815260a160205260408082209390935590871681522054610c4c908263ffffffff61130816565b6001600160a01b03808716600081815260a1602090815260409182902094909455805188815290519193928a1692600080516020611b4883398151915292918290030190a350600195945050505050565b60355460ff1690565b33600090815260a2602090815260408083206001600160a01b0386168452909152812054610cda908363ffffffff61130816565b33600081815260a2602090815260408083206001600160a01b0389168085529083529281902085905580519485525191937f8c5be1e5ebec7d5bd14f71427d1e84f3dd0314c0f7b2291e5b200ac8c7c3b925929081900390910190a350600192915050565b6000610d49610f7b565b610d5257600080fd5b60008211610d5f57600080fd5b610d698383611491565b50600192915050565b6000610d7c610f7b565b610d8557600080fd5b610d8f3383611571565b506001919050565b610d9f610f7b565b610da857600080fd5b609c548110610df4576040805162461bcd60e51b8152602060048201526013602482015272696e646578206f7574206f6620626f756e647360681b604482015290519081900360640190fd5b609c5460001901811015610ea557609c80546000198101908110610e1457fe5b9060005260206000209060020201609c8281548110610e2f57fe5b6000918252602090912082546002928302909101805460ff191660ff9092161515919091178082558354610100600160a81b0319909116610100918290046001600160a01b03168202178255600180850180549394610ea19483870194929381161590920260001901909116046117fe565b5050505b609c805490610eb8906000198301611873565b5050565b610ec4610f7b565b610ecd57600080fd5b609c548210610f0d5760405162461bcd60e51b8152600401808060200182810382526028815260200180611ad16028913960400191505060405180910390fd5b80609c8381548110610f1b57fe5b60009182526020909120600290910201805460ff19169115159190911790555050565b609f546001600160a01b038216600090815260a16020526040812054909161072f919063ffffffff6113d316565b6068546001600160a01b031690565b6068546001600160a01b0316331490565b609c5490565b60348054604080516020601f60026000196101006001881615020190951694909404938401819004810282018101909252828152606093909290918301828280156106c35780601f10610698576101008083540402835291602001916106c3565b609c818154811061100057fe5b6000918252602091829020600291820201805460018083018054604080516101009483161585026000190190921696909604601f810188900488028201880190965285815260ff84169750919092046001600160a01b031694929390928301828280156110ae5780601f10611083576101008083540402835291602001916110ae565b820191906000526020600020905b81548152906001019060200180831161109157829003601f168201915b5050505050905083565b33600090815260a2602090815260408083206001600160a01b038616845290915281205480831061110c5733600090815260a2602090815260408083206001600160a01b0388168452909152812055611141565b61111c818463ffffffff61139116565b33600090815260a2602090815260408083206001600160a01b03891684529091529020555b33600081815260a2602090815260408083206001600160a01b0389168085529083529281902054815190815290519293927f8c5be1e5ebec7d5bd14f71427d1e84f3dd0314c0f7b2291e5b200ac8c7c3b925929181900390910190a35060019392505050565b6000826001600160a01b0381166111bd57600080fd5b6001600160a01b0381163014156111d357600080fd5b60006111ea609f548561143890919063ffffffff16565b33600090815260a1602052604090205490915061120d908263ffffffff61139116565b33600090815260a16020526040808220929092556001600160a01b0387168152205461123f908263ffffffff61130816565b6001600160a01b038616600081815260a16020908152604091829020939093558051878152905191923392600080516020611b488339815191529281900390910190a3506001949350505050565b6001600160a01b03918216600090815260a26020908152604080832093909416825291909152205490565b6112c0610f7b565b6112c957600080fd5b60a080546001600160a01b0319166001600160a01b0392909216919091179055565b6112f3610f7b565b6112fc57600080fd5b61130581611608565b50565b600082820183811015611362576040805162461bcd60e51b815260206004820152601b60248201527f536166654d6174683a206164646974696f6e206f766572666c6f770000000000604482015290519081900360640190fd5b9392505050565b6000600160ff1b82141561137c57600080fd5b6000821261138a578161072f565b5060000390565b600061136283836040518060400160405280601e81526020017f536166654d6174683a207375627472616374696f6e206f766572666c6f770000815250611684565b600061136283836040518060400160405280601a81526020017f536166654d6174683a206469766973696f6e206279207a65726f00000000000081525061171b565b6000806040516020840160008286518360008a6187965a03f19695505050505050565b6000826114475750600061072f565b8282028284828161145457fe5b04146113625760405162461bcd60e51b8152600401808060200182810382526021815260200180611af96021913960400191505060405180910390fd5b6001600160a01b0382166114ec576040805162461bcd60e51b815260206004820152601f60248201527f45524332303a206d696e7420746f20746865207a65726f206164647265737300604482015290519081900360640190fd5b609e546114ff908263ffffffff61130816565b609e556001600160a01b038216600090815260a1602052604090205461152b908263ffffffff61130816565b6001600160a01b038316600081815260a160209081526040808320949094558351858152935192939192600080516020611b488339815191529281900390910190a35050565b6001600160a01b03821661158457600080fd5b609e54611597908263ffffffff61139116565b609e556001600160a01b038216600090815260a160205260409020546115c3908263ffffffff61139116565b6001600160a01b038316600081815260a16020908152604080832094909455835185815293519193600080516020611b48833981519152929081900390910190a35050565b6069541561161557600080fd5b6001600160a01b03811661162857600080fd5b6068546040516001600160a01b038084169216907f8be0079c531659141344cd1fd0a4f28419497f9722a3daafe3b4186f6b6457e090600090a3606880546001600160a01b0319166001600160a01b0392909216919091179055565b600081848411156117135760405162461bcd60e51b81526004018080602001828103825283818151815260200191508051906020019080838360005b838110156116d85781810151838201526020016116c0565b50505050905090810190601f1680156117055780820380516001836020036101000a031916815260200191505b509250505060405180910390fd5b505050900390565b6000818361176a5760405162461bcd60e51b81526020600482018181528351602484015283519092839260449091019190850190808383600083156116d85781810151838201526020016116c0565b50600083858161177657fe5b0495945050505050565b828054600181600116156101000203166002900490600052602060002090601f016020900481019282601f106117c157805160ff19168380011785556117ee565b828001600101855582156117ee579182015b828111156117ee5782518255916020019190600101906117d3565b506117fa9291506118a4565b5090565b828054600181600116156101000203166002900490600052602060002090601f016020900481019282601f1061183757805485556117ee565b828001600101855582156117ee57600052602060002091601f016020900482015b828111156117ee578254825591600101919060010190611858565b81548183558181111561189f5760020281600202836000526020600020918201910161189f91906118be565b505050565b6106cb91905b808211156117fa57600081556001016118aa565b6106cb91905b808211156117fa5780546001600160a81b031916815560006118e960018301826118f2565b506002016118c4565b50805460018160011615610100020316600290046000825580601f106119185750611305565b601f01602090049060005260206000209081019061130591906118a4565b600054610100900460ff168061194f575061194f611aca565b8061195d575060005460ff16155b6119985760405162461bcd60e51b815260040180806020018281038252602e815260200180611b1a602e913960400191505060405180910390fd5b60008054606880546001600160a01b0319166001600160a01b039490941693909317909255606981905561ff001980831661010090811760ff19166001179091169281900460ff16151502919091179055565b600054610100900460ff1680611a045750611a04611aca565b80611a12575060005460ff16155b611a4d5760405162461bcd60e51b815260040180806020018281038252602e815260200180611b1a602e913960400191505060405180910390fd5b60008054600161010061ff00198316811760ff191691909117909255845191900460ff1690611a83906033906020870190611780565b508251611a97906034906020860190611780565b506035805460ff90931660ff1990931692909217909155600080549115156101000261ff00199092169190911790555050565b303b159056fe696e646578206d75737420626520696e2072616e6765206f662073746f726564207478206c697374536166654d6174683a206d756c7469706c69636174696f6e206f766572666c6f77436f6e747261637420696e7374616e63652068617320616c7265616479206265656e20696e697469616c697a6564ddf252ad1be2c89b69c2b068fc378daa952ba7f163c4a11628f55a4df523b3efa265627a7a72315820dcf62a711a264e71a53fb55a3e9e11ec57b920a3e96495eb286c4800c530a80164736f6c63430005110032436f6e747261637420696e7374616e63652068617320616c7265616479206265656e20696e697469616c697a6564",
  "source": "pragma solidity 0.5.17;\n\nimport \"./VAMPTokenInterface.sol\";\n\n/* \n    VAMP.sol\n\n    Elastic Supply ERC20 Token with randomized rebasing.\n    \n    Forked from Ampleforth: https://github.com/ampleforth/uFragments\n    \n    GPL 3.0 license.\n    \n    VAMP.sol - Basic ERC20 Token with rebase functionality\n    Rebaser.sol - Handles decentralized, autonomous, random rebasing on-chain. \n    \n    Rebaser.sol will be upgraded as the project progresses. Ownership of VAMP.sol can be changed to new versions of Rebaser.sol as they are released.\n    \n    See github for more info and latest versions: https://github.com/VAMPdefiteam\n    \n    Once a final version has been agreed, owner address of VAMP.sol will be locked to ensure completely decentralised operation forever.\n    \n*/\n\ncontract VAMPToken is VAMPTokenInterface {\n\n    modifier validRecipient(address to)\n    {\n        require(to != address(0x0));\n        require(to != address(this));\n        _;\n    }\n\n    modifier onlyRebaser()\n    {\n        require(msg.sender == rebaser);\n        _;\n    }\n\n    function setRebaser(address _rebaser) public onlyOwner\n    {\n        rebaser = _rebaser;\n    }\n\n    /**\n     * @dev Notifies Fragments contract about a new rebase cycle.\n     * @param supplyDelta The number of new fragment tokens to add into circulation via expansion.\n     * @return The total number of fragments after the supply adjustment.\n     */\n    function rebase(int256 supplyDelta) external onlyRebaser returns (uint256)\n    {\n        _epoch = _epoch.add(1);\n\n        if (supplyDelta == 0) {\n            emit LogRebase(_epoch, _totalSupply);\n            return _totalSupply;\n        }\n\n        if (supplyDelta < 0) {\n            _totalSupply = _totalSupply.sub(uint256(supplyDelta.abs()));\n        } else {\n            _totalSupply = _totalSupply.add(uint256(supplyDelta));\n        }\n\n        if (_totalSupply > MAX_SUPPLY) {\n            _totalSupply = MAX_SUPPLY;\n        }\n\n        _gonsPerFragment = TOTAL_GONS.div(_totalSupply);\n\n        // From this point forward, _gonsPerFragment is taken as the source of truth.\n        // We recalculate a new _totalSupply to be in agreement with the _gonsPerFragment\n        // conversion rate.\n        // This means our applied supplyDelta can deviate from the requested supplyDelta,\n        // but this deviation is guaranteed to be < (_totalSupply^2)/(TOTAL_GONS - _totalSupply).\n        //\n        // In the case of _totalSupply <= MAX_UINT128 (our current supply cap), this\n        // deviation is guaranteed to be < 1, so we can omit this step. If the supply cap is\n        // ever increased, it must be re-included.\n        // _totalSupply = TOTAL_GONS.div(_gonsPerFragment)\n\n        emit LogRebase(_epoch, _totalSupply);\n\n        for (uint i = 0; i < transactions.length; i++) {\n            Transaction storage t = transactions[i];\n            if (t.enabled) {\n                bool result = externalCall(t.destination, t.data);\n                if (!result) {\n                    emit TransactionFailed(t.destination, i, t.data);\n                    revert(\"Transaction Failed\");\n                }\n            }\n        }\n\n        return _totalSupply;\n    }\n\n    function mint(address account, uint256 amount) public onlyOwner returns (bool)\n    {\n        require(amount > 0);\n        _mint(account, amount);\n        return true;\n    }\n\n    function burn(uint256 amount) public onlyOwner returns (bool)\n    {\n        _burn(msg.sender, amount);\n        return true;\n    }\n\n    function _mint(address account, uint256 amount) internal\n    {\n        require(account != address(0), \"ERC20: mint to the zero address\");\n        // uint256 merValue = amount.mul(_gonsPerFragment);\n        _totalSupply = _totalSupply.add(amount);\n        _gonBalances[account] = _gonBalances[account].add(amount);\n        emit Transfer(address(0), account, amount);\n    }\n\n    function _burn(address account, uint256 value) internal\n    {\n        require(account != address(0));\n        // uint256 merValue = value.mul(_gonsPerFragment);\n        _totalSupply = _totalSupply.sub(value);\n        _gonBalances[account] = _gonBalances[account].sub(value);\n        emit Transfer(account, address(0), value);\n    }\n\n    /**\n     * @return The total number of fragments.\n     */\n    function totalSupply() public view returns (uint256)\n    {\n        return _totalSupply;\n    }\n\n    /**\n     * @param who The address to query.\n     * @return The balance of the specified address.\n     */\n    function balanceOf(address who) public view returns (uint256)\n    {\n        return _gonBalances[who].div(_gonsPerFragment);\n    }\n\n    /**\n     * @dev Transfer tokens to a specified address.\n     * @param to The address to transfer to.\n     * @param value The amount to be transferred.\n     * @return True on success, false otherwise.\n     */\n    function transfer(address to, uint256 value) public validRecipient(to) returns (bool)\n    {\n        uint256 merValue = value.mul(_gonsPerFragment);\n        _gonBalances[msg.sender] = _gonBalances[msg.sender].sub(merValue);\n        _gonBalances[to] = _gonBalances[to].add(merValue);\n        emit Transfer(msg.sender, to, value);\n        return true;\n    }\n\n    /**\n     * @dev Function to check the amount of tokens that an owner has allowed to a spender.\n     * @param owner_ The address which owns the funds.\n     * @param spender The address which will spend the funds.\n     * @return The number of tokens still available for the spender.\n     */\n    function allowance(address owner_, address spender) public view returns (uint256)\n    {\n        return _allowedFragments[owner_][spender];\n    }\n\n    /**\n     * @dev Transfer tokens from one address to another.\n     * @param from The address you want to send tokens from.\n     * @param to The address you want to transfer to.\n     * @param value The amount of tokens to be transferred.\n     */\n    function transferFrom(address from, address to, uint256 value) public validRecipient(to) returns (bool)\n    {\n        _allowedFragments[from][msg.sender] = _allowedFragments[from][msg.sender].sub(value);\n\n        uint256 merValue = value.mul(_gonsPerFragment);\n        _gonBalances[from] = _gonBalances[from].sub(merValue);\n        _gonBalances[to] = _gonBalances[to].add(merValue);\n        emit Transfer(from, to, value);\n\n        return true;\n    }\n\n    /**\n     * @dev Approve the passed address to spend the specified amount of tokens on behalf of\n     * msg.sender. This method is included for ERC20 compatibility.\n     * increaseAllowance and decreaseAllowance should be used instead.\n     * Changing an allowance with this method brings the risk that someone may transfer both\n     * the old and the new allowance - if they are both greater than zero - if a transfer\n     * transaction is mined before the later approve() call is mined.\n     *\n     * @param spender The address which will spend the funds.\n     * @param value The amount of tokens to be spent.\n     */\n    function approve(address spender, uint256 value) public returns (bool)\n    {\n        _allowedFragments[msg.sender][spender] = value;\n        emit Approval(msg.sender, spender, value);\n        return true;\n    }\n\n    /**\n     * @dev Increase the amount of tokens that an owner has allowed to a spender.\n     * This method should be used instead of approve() to avoid the double approval vulnerability\n     * described above.\n     * @param spender The address which will spend the funds.\n     * @param addedValue The amount of tokens to increase the allowance by.\n     */\n    function increaseAllowance(address spender, uint256 addedValue) public returns (bool)\n    {\n        _allowedFragments[msg.sender][spender] =\n        _allowedFragments[msg.sender][spender].add(addedValue);\n        emit Approval(msg.sender, spender, _allowedFragments[msg.sender][spender]);\n        return true;\n    }\n\n    /**\n     * @dev Decrease the amount of tokens that an owner has allowed to a spender.\n     *\n     * @param spender The address which will spend the funds.\n     * @param subtractedValue The amount of tokens to decrease the allowance by.\n     */\n    function decreaseAllowance(address spender, uint256 subtractedValue) public returns (bool)\n    {\n        uint256 oldValue = _allowedFragments[msg.sender][spender];\n        if (subtractedValue >= oldValue) {\n            _allowedFragments[msg.sender][spender] = 0;\n        } else {\n            _allowedFragments[msg.sender][spender] = oldValue.sub(subtractedValue);\n        }\n        emit Approval(msg.sender, spender, _allowedFragments[msg.sender][spender]);\n        return true;\n    }\n\n    /**\n     * @notice Adds a transaction that gets called for a downstream receiver of rebases\n     * @param destination Address of contract destination\n     * @param data Transaction data payload\n     */\n    function addTransaction(address destination, bytes calldata data) external onlyOwner\n    {\n        transactions.push(Transaction({\n        enabled : true,\n        destination : destination,\n        data : data\n        }));\n    }\n\n    /**\n     * @param index Index of transaction to remove.\n     *              Transaction ordering may have changed since adding.\n     */\n    function removeTransaction(uint index) external onlyOwner\n    {\n        require(index < transactions.length, \"index out of bounds\");\n\n        if (index < transactions.length - 1) {\n            transactions[index] = transactions[transactions.length - 1];\n        }\n\n        transactions.length--;\n    }\n\n    /**\n     * @param index Index of transaction. Transaction ordering may have changed since adding.\n     * @param enabled True for enabled, false for disabled.\n     */\n    function setTransactionEnabled(uint index, bool enabled) external onlyOwner\n    {\n        require(index < transactions.length, \"index must be in range of stored tx list\");\n        transactions[index].enabled = enabled;\n    }\n\n    /**\n     * @return Number of transactions, both enabled and disabled, in transactions list.\n     */\n    function transactionsSize() external view returns (uint256)\n    {\n        return transactions.length;\n    }\n\n    /**\n     * @dev wrapper to call the encoded transactions on downstream consumers.\n     * @param destination Address of destination contract.\n     * @param data The encoded data payload.\n     * @return True on success\n     */\n    function externalCall(address destination, bytes memory data) internal returns (bool)\n    {\n        bool result;\n        assembly {// solhint-disable-line no-inline-assembly\n        // \"Allocate\" memory for output\n        // (0x40 is where \"free memory\" pointer is stored by convention)\n            let outputAddress := mload(0x40)\n\n        // First 32 bytes are the padded length of data, so exclude that\n            let dataAddress := add(data, 32)\n\n            result := call(\n            // 34710 is the value that solidity is currently emitting\n            // It includes callGas (700) + callVeryLow (3, to pay for SUB)\n            // + callValueTransferGas (9000) + callNewAccountGas\n            // (25000, in case the destination address does not exist and needs creating)\n            sub(gas, 34710),\n\n\n            destination,\n            0, // transfer value in wei\n            dataAddress,\n            mload(data), // Size of the input, in bytes. Stored in position 0 of the array.\n            outputAddress,\n            0  // Output is ignored, therefore the output size is zero\n            )\n        }\n        return result;\n    }\n\n}\n\ncontract VAMP is VAMPToken {\n\n    constructor() public {\n\n        Ownable.initialize(msg.sender);\n        ERC20Detailed.initialize(\"VAMP\", \"VAMP\", uint8(DECIMALS));\n\n        _totalSupply = INITIAL_FRAGMENTS_SUPPLY;\n        _gonBalances[msg.sender] = TOTAL_GONS;\n        _gonsPerFragment = TOTAL_GONS.div(_totalSupply);\n\n        emit Transfer(address(0x0), msg.sender, _totalSupply);\n    }\n\n\n}",
  "sourcePath": "/Users/admin/dev/vamp/Vampire-protocol-contracts/contracts/token/VAMP.sol",
  "compiler": {
    "name": "solc",
    "version": "0.5.17+commit.d19bba13.Emscripten.clang"
  },
  "schemaVersion": "3.2.5",
  "updatedAt": "2020-10-07T10:12:03.032Z",
  "devdoc": {
    "methods": {
      "addTransaction(address,bytes)": {
        "params": {
          "data": "Transaction data payload",
          "destination": "Address of contract destination"
        }
      },
      "allowance(address,address)": {
        "details": "Function to check the amount of tokens that an owner has allowed to a spender.",
        "params": {
          "owner_": "The address which owns the funds.",
          "spender": "The address which will spend the funds."
        },
        "return": "The number of tokens still available for the spender."
      },
      "approve(address,uint256)": {
        "details": "Approve the passed address to spend the specified amount of tokens on behalf of msg.sender. This method is included for ERC20 compatibility. increaseAllowance and decreaseAllowance should be used instead. Changing an allowance with this method brings the risk that someone may transfer both the old and the new allowance - if they are both greater than zero - if a transfer transaction is mined before the later approve() call is mined.",
        "params": {
          "spender": "The address which will spend the funds.",
          "value": "The amount of tokens to be spent."
        }
      },
      "balanceOf(address)": {
        "params": {
          "who": "The address to query."
        },
        "return": "The balance of the specified address."
      },
      "decreaseAllowance(address,uint256)": {
        "details": "Decrease the amount of tokens that an owner has allowed to a spender.",
        "params": {
          "spender": "The address which will spend the funds.",
          "subtractedValue": "The amount of tokens to decrease the allowance by."
        }
      },
      "increaseAllowance(address,uint256)": {
        "details": "Increase the amount of tokens that an owner has allowed to a spender. This method should be used instead of approve() to avoid the double approval vulnerability described above.",
        "params": {
          "addedValue": "The amount of tokens to increase the allowance by.",
          "spender": "The address which will spend the funds."
        }
      },
      "rebase(int256)": {
        "details": "Notifies Fragments contract about a new rebase cycle.",
        "params": {
          "supplyDelta": "The number of new fragment tokens to add into circulation via expansion."
        },
        "return": "The total number of fragments after the supply adjustment."
      },
      "removeTransaction(uint256)": {
        "params": {
          "index": "Index of transaction to remove.             Transaction ordering may have changed since adding."
        }
      },
      "setTransactionEnabled(uint256,bool)": {
        "params": {
          "enabled": "True for enabled, false for disabled.",
          "index": "Index of transaction. Transaction ordering may have changed since adding."
        }
      },
      "totalSupply()": {
        "return": "The total number of fragments."
      },
      "transactionsSize()": {
        "return": "Number of transactions, both enabled and disabled, in transactions list."
      },
      "transfer(address,uint256)": {
        "details": "Transfer tokens to a specified address.",
        "params": {
          "to": "The address to transfer to.",
          "value": "The amount to be transferred."
        },
        "return": "True on success, false otherwise."
      },
      "transferFrom(address,address,uint256)": {
        "details": "Transfer tokens from one address to another.",
        "params": {
          "from": "The address you want to send tokens from.",
          "to": "The address you want to transfer to.",
          "value": "The amount of tokens to be transferred."
        }
      }
    }
  },
  "userdoc": {
    "methods": {
      "addTransaction(address,bytes)": {
        "notice": "Adds a transaction that gets called for a downstream receiver of rebases"
      }
    }
  }
}