{
  "contractName": "VotesPlatformTokenPreSale",
  "abi": [
    {
      "inputs": [
        {
          "internalType": "uint256",
          "name": "_totalTokens",
          "type": "uint256"
        },
        {
          "internalType": "uint256",
          "name": "_startTime",
          "type": "uint256"
        }
      ],
      "payable": false,
      "stateMutability": "nonpayable",
      "type": "constructor"
    },
    {
      "anonymous": false,
      "inputs": [
        {
          "indexed": false,
          "internalType": "uint256",
          "name": "amountRaised",
          "type": "uint256"
        }
      ],
      "name": "GoalReached",
      "type": "event"
    },
    {
      "anonymous": false,
      "inputs": [
        {
          "indexed": true,
          "internalType": "address",
          "name": "holder",
          "type": "address"
        },
        {
          "indexed": false,
          "internalType": "uint256",
          "name": "tokenAmount",
          "type": "uint256"
        },
        {
          "indexed": false,
          "internalType": "uint256",
          "name": "etherAmount",
          "type": "uint256"
        }
      ],
      "name": "NewContribution",
      "type": "event"
    },
    {
      "anonymous": false,
      "inputs": [
        {
          "indexed": true,
          "internalType": "address",
          "name": "previousOwner",
          "type": "address"
        },
        {
          "indexed": true,
          "internalType": "address",
          "name": "newOwner",
          "type": "address"
        }
      ],
      "name": "OwnershipTransferred",
      "type": "event"
    },
    {
      "anonymous": false,
      "inputs": [
        {
          "indexed": true,
          "internalType": "address",
          "name": "holder",
          "type": "address"
        },
        {
          "indexed": false,
          "internalType": "uint256",
          "name": "amount",
          "type": "uint256"
        }
      ],
      "name": "Refunded",
      "type": "event"
    },
    {
      "anonymous": false,
      "inputs": [
        {
          "indexed": false,
          "internalType": "uint256",
          "name": "softCap",
          "type": "uint256"
        }
      ],
      "name": "SoftCapReached",
      "type": "event"
    },
    {
      "payable": true,
      "stateMutability": "payable",
      "type": "fallback"
    },
    {
      "constant": true,
      "inputs": [],
      "name": "VAMP",
      "outputs": [
        {
          "internalType": "contract IERC20",
          "name": "",
          "type": "address"
        }
      ],
      "payable": false,
      "stateMutability": "view",
      "type": "function"
    },
    {
      "constant": true,
      "inputs": [],
      "name": "beneficiary",
      "outputs": [
        {
          "internalType": "address",
          "name": "",
          "type": "address"
        }
      ],
      "payable": false,
      "stateMutability": "view",
      "type": "function"
    },
    {
      "constant": true,
      "inputs": [],
      "name": "collector",
      "outputs": [
        {
          "internalType": "address",
          "name": "",
          "type": "address"
        }
      ],
      "payable": false,
      "stateMutability": "view",
      "type": "function"
    },
    {
      "constant": true,
      "inputs": [],
      "name": "crowdsaleFinished",
      "outputs": [
        {
          "internalType": "bool",
          "name": "",
          "type": "bool"
        }
      ],
      "payable": false,
      "stateMutability": "view",
      "type": "function"
    },
    {
      "constant": true,
      "inputs": [],
      "name": "endTime",
      "outputs": [
        {
          "internalType": "uint256",
          "name": "",
          "type": "uint256"
        }
      ],
      "payable": false,
      "stateMutability": "view",
      "type": "function"
    },
    {
      "constant": true,
      "inputs": [],
      "name": "hardCap",
      "outputs": [
        {
          "internalType": "uint256",
          "name": "",
          "type": "uint256"
        }
      ],
      "payable": false,
      "stateMutability": "view",
      "type": "function"
    },
    {
      "constant": true,
      "inputs": [],
      "name": "investorCount",
      "outputs": [
        {
          "internalType": "uint256",
          "name": "",
          "type": "uint256"
        }
      ],
      "payable": false,
      "stateMutability": "view",
      "type": "function"
    },
    {
      "constant": true,
      "inputs": [],
      "name": "isOwner",
      "outputs": [
        {
          "internalType": "bool",
          "name": "",
          "type": "bool"
        }
      ],
      "payable": false,
      "stateMutability": "view",
      "type": "function"
    },
    {
      "constant": true,
      "inputs": [],
      "name": "name",
      "outputs": [
        {
          "internalType": "string",
          "name": "",
          "type": "string"
        }
      ],
      "payable": false,
      "stateMutability": "view",
      "type": "function"
    },
    {
      "constant": true,
      "inputs": [],
      "name": "owner",
      "outputs": [
        {
          "internalType": "address",
          "name": "",
          "type": "address"
        }
      ],
      "payable": false,
      "stateMutability": "view",
      "type": "function"
    },
    {
      "constant": true,
      "inputs": [],
      "name": "purchaseLimitStageOne",
      "outputs": [
        {
          "internalType": "uint256",
          "name": "",
          "type": "uint256"
        }
      ],
      "payable": false,
      "stateMutability": "view",
      "type": "function"
    },
    {
      "constant": true,
      "inputs": [],
      "name": "purchaseLimitStageThree",
      "outputs": [
        {
          "internalType": "uint256",
          "name": "",
          "type": "uint256"
        }
      ],
      "payable": false,
      "stateMutability": "view",
      "type": "function"
    },
    {
      "constant": true,
      "inputs": [],
      "name": "purchaseLimitStageTwo",
      "outputs": [
        {
          "internalType": "uint256",
          "name": "",
          "type": "uint256"
        }
      ],
      "payable": false,
      "stateMutability": "view",
      "type": "function"
    },
    {
      "constant": false,
      "inputs": [],
      "name": "renounceOwnership",
      "outputs": [],
      "payable": false,
      "stateMutability": "nonpayable",
      "type": "function"
    },
    {
      "constant": true,
      "inputs": [],
      "name": "softCap",
      "outputs": [
        {
          "internalType": "uint256",
          "name": "",
          "type": "uint256"
        }
      ],
      "payable": false,
      "stateMutability": "view",
      "type": "function"
    },
    {
      "constant": true,
      "inputs": [],
      "name": "softCapReached",
      "outputs": [
        {
          "internalType": "bool",
          "name": "",
          "type": "bool"
        }
      ],
      "payable": false,
      "stateMutability": "view",
      "type": "function"
    },
    {
      "constant": true,
      "inputs": [],
      "name": "stageOne",
      "outputs": [
        {
          "internalType": "uint256",
          "name": "",
          "type": "uint256"
        }
      ],
      "payable": false,
      "stateMutability": "view",
      "type": "function"
    },
    {
      "constant": true,
      "inputs": [],
      "name": "stageTwo",
      "outputs": [
        {
          "internalType": "uint256",
          "name": "",
          "type": "uint256"
        }
      ],
      "payable": false,
      "stateMutability": "view",
      "type": "function"
    },
    {
      "constant": true,
      "inputs": [],
      "name": "startTime",
      "outputs": [
        {
          "internalType": "uint256",
          "name": "",
          "type": "uint256"
        }
      ],
      "payable": false,
      "stateMutability": "view",
      "type": "function"
    },
    {
      "constant": true,
      "inputs": [],
      "name": "timeHardCapReached",
      "outputs": [
        {
          "internalType": "uint256",
          "name": "",
          "type": "uint256"
        }
      ],
      "payable": false,
      "stateMutability": "view",
      "type": "function"
    },
    {
      "constant": true,
      "inputs": [],
      "name": "tokensPerUSDT",
      "outputs": [
        {
          "internalType": "uint256",
          "name": "",
          "type": "uint256"
        }
      ],
      "payable": false,
      "stateMutability": "view",
      "type": "function"
    },
    {
      "constant": true,
      "inputs": [],
      "name": "tokensSold",
      "outputs": [
        {
          "internalType": "uint256",
          "name": "",
          "type": "uint256"
        }
      ],
      "payable": false,
      "stateMutability": "view",
      "type": "function"
    },
    {
      "constant": false,
      "inputs": [
        {
          "internalType": "address",
          "name": "newOwner",
          "type": "address"
        }
      ],
      "name": "transferOwnership",
      "outputs": [],
      "payable": false,
      "stateMutability": "nonpayable",
      "type": "function"
    },
    {
      "constant": true,
      "inputs": [],
      "name": "usdt",
      "outputs": [
        {
          "internalType": "contract IERC20",
          "name": "",
          "type": "address"
        }
      ],
      "payable": false,
      "stateMutability": "view",
      "type": "function"
    },
    {
      "constant": true,
      "inputs": [],
      "name": "usdtRaised",
      "outputs": [
        {
          "internalType": "uint256",
          "name": "",
          "type": "uint256"
        }
      ],
      "payable": false,
      "stateMutability": "view",
      "type": "function"
    },
    {
      "constant": true,
      "inputs": [],
      "name": "weiRefunded",
      "outputs": [
        {
          "internalType": "uint256",
          "name": "",
          "type": "uint256"
        }
      ],
      "payable": false,
      "stateMutability": "view",
      "type": "function"
    },
    {
      "constant": false,
      "inputs": [
        {
          "internalType": "address[]",
          "name": "_addresses",
          "type": "address[]"
        }
      ],
      "name": "addWhiteListedAddresses",
      "outputs": [],
      "payable": false,
      "stateMutability": "nonpayable",
      "type": "function"
    },
    {
      "constant": true,
      "inputs": [
        {
          "internalType": "address",
          "name": "_address",
          "type": "address"
        }
      ],
      "name": "isWhitelisted",
      "outputs": [
        {
          "internalType": "bool",
          "name": "",
          "type": "bool"
        }
      ],
      "payable": false,
      "stateMutability": "view",
      "type": "function"
    },
    {
      "constant": false,
      "inputs": [],
      "name": "withdrawTokens",
      "outputs": [],
      "payable": false,
      "stateMutability": "nonpayable",
      "type": "function"
    },
    {
      "constant": false,
      "inputs": [],
      "name": "claimTokens",
      "outputs": [],
      "payable": false,
      "stateMutability": "nonpayable",
      "type": "function"
    },
    {
      "constant": false,
      "inputs": [
        {
          "internalType": "uint256",
          "name": "amount",
          "type": "uint256"
        }
      ],
      "name": "purchase",
      "outputs": [],
      "payable": false,
      "stateMutability": "nonpayable",
      "type": "function"
    }
  ],
  "bytecode": "0x600180546001600160a01b0319908116731e323a06f806b76ce96bd103258f2adae70957f11790915560028054909116738d6cf44b6ca55550b96c4599b00b47a8ec67c59617905560c0604052600c60808190526b56414d502050726573616c6560a01b60a0908152620000779160039190620001ab565b50600480546001600160a01b031916739d829778f754f99db7056c632f0962501ef9beed1790556317d784006009556377359400600a556401dcd65000600b556000600c819055600d819055600e819055600f55611c206012556138406013556015805461ffff19169055348015620000ef57600080fd5b50604051620018e8380380620018e8833981810160405260408110156200011557600080fd5b508051602090910151620001316001600160e01b03620001a616565b600080546001600160a01b0319166001600160a01b03928316178082556040519216917f8be0079c531659141344cd1fd0a4f28419497f9722a3daafe3b4186f6b6457e0908290a364800e8dfc006006819055643a35294400600755820460085560108190556202a30001601155506200024d565b335b90565b828054600181600116156101000203166002900490600052602060002090601f016020900481019282601f10620001ee57805160ff19168380011785556200021e565b828001600101855582156200021e579182015b828111156200021e57825182559160200191906001019062000201565b506200022c92915062000230565b5090565b620001a891905b808211156200022c576000815560010162000237565b61168b806200025d6000396000f3fe6080604052600436106101d85760003560e01c8063518ab2a811610102578063906a26e011610095578063efef39a111610064578063efef39a1146105c5578063f2fde38b146105ef578063f51aab0014610622578063fb86a40414610637576101d8565b8063906a26e014610571578063913e77ad14610586578063d7e64c001461059b578063ece84fd5146105b0576101d8565b806378e97925116100d157806378e979251461051d5780638d8f2adb146105325780638da5cb5b146105475780638f32d59b1461055c576101d8565b8063518ab2a8146104c95780635da89ac0146104de578063660aa910146104f3578063715018a614610508576101d8565b80632b9edee91161017a5780633af32abf116101495780633af32abf146104575780633b895f281461048a5780633c8078781461049f57806348c54b9d146104b4576101d8565b80632b9edee9146103d35780632f48ab7d146103fc5780633197cbb61461042d57806338af3eed14610442576101d8565b80630ec1ecac116101b65780630ec1ecac1461037f5780630fe7bdaf146103945780631a1986e0146103a957806328dced11146103be576101d8565b80630215d2961461021c57806306fdde03146102435780630bcb106a146102cd575b6040805162461bcd60e51b81526020600482015260146024820152730dcdee840e0eae4c6d0c2e6cac840c4f240cae8d60631b604482015290519081900360640190fd5b34801561022857600080fd5b5061023161064c565b60408051918252519081900360200190f35b34801561024f57600080fd5b50610258610652565b6040805160208082528351818301528351919283929083019185019080838360005b8381101561029257818101518382015260200161027a565b50505050905090810190601f1680156102bf5780820380516001836020036101000a031916815260200191505b509250505060405180910390f35b3480156102d957600080fd5b5061037d600480360360208110156102f057600080fd5b81019060208101813564010000000081111561030b57600080fd5b82018360208201111561031d57600080fd5b8035906020019184602083028401116401000000008311171561033f57600080fd5b9190808060200260200160405190810160405280939291908181526020018383602002808284376000920191909152509295506106e0945050505050565b005b34801561038b57600080fd5b50610231610791565b3480156103a057600080fd5b50610231610797565b3480156103b557600080fd5b5061023161079d565b3480156103ca57600080fd5b506102316107a3565b3480156103df57600080fd5b506103e86107a9565b604080519115158252519081900360200190f35b34801561040857600080fd5b506104116107b2565b604080516001600160a01b039092168252519081900360200190f35b34801561043957600080fd5b506102316107c1565b34801561044e57600080fd5b506104116107c7565b34801561046357600080fd5b506103e86004803603602081101561047a57600080fd5b50356001600160a01b03166107d6565b34801561049657600080fd5b50610231610808565b3480156104ab57600080fd5b5061023161080e565b3480156104c057600080fd5b5061037d610814565b3480156104d557600080fd5b506102316108cf565b3480156104ea57600080fd5b506102316108d5565b3480156104ff57600080fd5b506104116108db565b34801561051457600080fd5b5061037d6108ea565b34801561052957600080fd5b5061023161097b565b34801561053e57600080fd5b5061037d610981565b34801561055357600080fd5b50610411610a76565b34801561056857600080fd5b506103e8610a85565b34801561057d57600080fd5b50610231610aa9565b34801561059257600080fd5b50610411610aaf565b3480156105a757600080fd5b50610231610abe565b3480156105bc57600080fd5b506103e8610ac4565b3480156105d157600080fd5b5061037d600480360360208110156105e857600080fd5b5035610ad2565b3480156105fb57600080fd5b5061037d6004803603602081101561061257600080fd5b50356001600160a01b0316610adb565b34801561062e57600080fd5b50610231610b2b565b34801561064357600080fd5b50610231610b31565b600a5481565b6003805460408051602060026001851615610100026000190190941693909304601f810184900484028201840190925281815292918301828280156106d85780601f106106ad576101008083540402835291602001916106d8565b820191906000526020600020905b8154815290600101906020018083116106bb57829003601f168201915b505050505081565b6106e8610a85565b610727576040805162461bcd60e51b815260206004820181905260248201526000805160206115a9833981519152604482015290519081900360640190fd5b600081511161073557600080fd5b60005b815181101561078d5760016018600084848151811061075357fe5b6020908102919091018101516001600160a01b03168252810191909152604001600020805460ff1916911515919091179055600101610738565b5050565b600d5481565b60095481565b60085481565b600b5481565b60155460ff1681565b6001546001600160a01b031681565b60115481565b6005546001600160a01b031681565b6001600160a01b03811660009081526018602052604081205460ff16156107ff57506001610803565b5060005b919050565b60135481565b60125481565b60145461082942610e1063ffffffff610b3716565b101561083457600080fd5b33600090815260166020526040902054610895576040805162461bcd60e51b815260206004820152601760248201527f6e6f206d6f726520746f6b656e7320746f20636c61696d000000000000000000604482015290519081900360640190fd5b336000818152601660205260409020546004546108bd926001600160a01b0390911691610b98565b33600090815260166020526040812055565b600c5481565b600f5481565b6004546001600160a01b031681565b6108f2610a85565b610931576040805162461bcd60e51b815260206004820181905260248201526000805160206115a9833981519152604482015290519081900360640190fd5b600080546040516001600160a01b03909116907f8be0079c531659141344cd1fd0a4f28419497f9722a3daafe3b4186f6b6457e0908390a3600080546001600160a01b0319169055565b60105481565b610989610a85565b6109c8576040805162461bcd60e51b815260206004820181905260248201526000805160206115a9833981519152604482015290519081900360640190fd5b601154804210156109d857600080fd5b60025460048054604080516370a0823160e01b8152309381019390935251610a73936001600160a01b03908116939216916370a08231916024808301926020929190829003018186803b158015610a2e57600080fd5b505afa158015610a42573d6000803e3d6000fd5b505050506040513d6020811015610a5857600080fd5b50516004546001600160a01b0316919063ffffffff610b9816565b50565b6000546001600160a01b031690565b600080546001600160a01b0316610a9a610bef565b6001600160a01b031614905090565b60075481565b6002546001600160a01b031681565b600e5481565b601554610100900460ff1681565b610a7381610bf3565b610ae3610a85565b610b22576040805162461bcd60e51b815260206004820181905260248201526000805160206115a9833981519152604482015290519081900360640190fd5b610a7381611214565b60145481565b60065481565b600082820183811015610b91576040805162461bcd60e51b815260206004820152601b60248201527f536166654d6174683a206164646974696f6e206f766572666c6f770000000000604482015290519081900360640190fd5b9392505050565b604080516001600160a01b038416602482015260448082018490528251808303909101815260649091019091526020810180516001600160e01b031663a9059cbb60e01b179052610bea9084906112b4565b505050565b3390565b60105480421015610c0357600080fd5b60115480421115610c1357600080fd5b601554610100900460ff1615610c2557fe5b600654600d54610c3b908563ffffffff610b3716565b1115610c785760405162461bcd60e51b81526004018080602001828103825260278152602001806115606027913960400191505060405180910390fd5b601254601054610c8d9163ffffffff610b3716565b4211158015610ca05750610ca0336107d6565b15610e9a576008546015549084029060ff16158015610cc25750600754600d54105b8015610ce25750600754600d54610cdf908663ffffffff610b3716565b10155b15610d2a576015805460ff1916600117905560075460408051918252517f42ef6182c6d744dd081ab962505f40413083376dfcc13e58b60f4f32e96738099181900360200190a15b600954841115610d81576040805162461bcd60e51b815260206004820181905260248201527f4f766572207075726368617365206c696d697420696e207374616765206f6e65604482015290519081900360640190fd5b60095433600090815260176020526040902054610da4908663ffffffff610b3716565b1115610de15760405162461bcd60e51b81526004018080602001828103825260318152602001806115c96031913960400191505060405180910390fd5b600254600154610e06916001600160a01b03918216913391168763ffffffff61147216565b33600090815260176020526040902054610e26908563ffffffff610b3716565b33600090815260176020526040902055600d54610e49908563ffffffff610b3716565b600d55600454610e69906001600160a01b0316338363ffffffff610b9816565b336000908152601660205260409020805482019055600c54610e91908263ffffffff610b3716565b600c55506111f0565b601254601054610eaf9163ffffffff610b3716565b4210158015610ed25750601354601054610ece9163ffffffff610b3716565b4211155b8015610ee25750610ee2336107d6565b15611029576008546015549084029060ff16158015610f045750600754600d54105b8015610f245750600754600d54610f21908663ffffffff610b3716565b10155b15610f6c576015805460ff1916600117905560075460408051918252517f42ef6182c6d744dd081ab962505f40413083376dfcc13e58b60f4f32e96738099181900360200190a15b600a54841115610fc3576040805162461bcd60e51b815260206004820181905260248201527f4f766572207075726368617365206c696d697420696e207374616765206f6e65604482015290519081900360640190fd5b600954600a5433600090815260176020526040902054910190610fec908663ffffffff610b3716565b1115610de15760405162461bcd60e51b815260040180806020018281038252603181526020018061152f6031913960400191505060405180910390fd5b60135460105461103e9163ffffffff610b3716565b4211156111f057600b548311156110865760405162461bcd60e51b81526004018080602001828103825260228152602001806115876022913960400191505060405180910390fd5b600b54336000908152601660205260409020546110a9908563ffffffff610b3716565b11156110e65760405162461bcd60e51b81526004018080602001828103825260338152602001806115fa6033913960400191505060405180910390fd5b6008546015549084029060ff161580156111035750600754600d54105b80156111235750600754600d54611120908663ffffffff610b3716565b10155b1561116b576015805460ff1916600117905560075460408051918252517f42ef6182c6d744dd081ab962505f40413083376dfcc13e58b60f4f32e96738099181900360200190a15b600254600154611190916001600160a01b03918216913391168763ffffffff61147216565b600d546111a3908563ffffffff610b3716565b600d556004546111c3906001600160a01b0316338363ffffffff610b9816565b336000908152601660205260409020805482019055600c546111eb908263ffffffff610b3716565b600c55505b600654600d541415610bea57426014556015805461ff001916610100179055505050565b6001600160a01b0381166112595760405162461bcd60e51b81526004018080602001828103825260268152602001806115096026913960400191505060405180910390fd5b600080546040516001600160a01b03808516939216917f8be0079c531659141344cd1fd0a4f28419497f9722a3daafe3b4186f6b6457e091a3600080546001600160a01b0319166001600160a01b0392909216919091179055565b6112c6826001600160a01b03166114cc565b611317576040805162461bcd60e51b815260206004820152601f60248201527f5361666545524332303a2063616c6c20746f206e6f6e2d636f6e747261637400604482015290519081900360640190fd5b60006060836001600160a01b0316836040518082805190602001908083835b602083106113555780518252601f199092019160209182019101611336565b6001836020036101000a0380198251168184511680821785525050505050509050019150506000604051808303816000865af19150503d80600081146113b7576040519150601f19603f3d011682016040523d82523d6000602084013e6113bc565b606091505b509150915081611413576040805162461bcd60e51b815260206004820181905260248201527f5361666545524332303a206c6f772d6c6576656c2063616c6c206661696c6564604482015290519081900360640190fd5b80511561146c5780806020019051602081101561142f57600080fd5b505161146c5760405162461bcd60e51b815260040180806020018281038252602a81526020018061162d602a913960400191505060405180910390fd5b50505050565b604080516001600160a01b0385811660248301528416604482015260648082018490528251808303909101815260849091019091526020810180516001600160e01b03166323b872dd60e01b17905261146c9085906112b4565b6000813f7fc5d2460186f7233c927e7db2dcc703c0e500b653ca82273b7bfad8045d85a47081158015906115005750808214155b94935050505056fe4f776e61626c653a206e6577206f776e657220697320746865207a65726f206164647265737363616e2774207075726368617365206d6f7265207468616e20616c6c6f77656420616d6f756e742073746167652074776f63616e74206465706f73697420776974686f75742074726967676572696e6720686172646361704f766572207075726368617365206c696d697420696e2073746167652074687265654f776e61626c653a2063616c6c6572206973206e6f7420746865206f776e657263616e2774207075726368617365206d6f7265207468616e20616c6c6f77656420616d6f756e74207374616765206f6e6563616e2774207075726368617365206d6f7265207468616e20616c6c6f77656420616d6f756e742073746167652074687265655361666545524332303a204552433230206f7065726174696f6e20646964206e6f742073756363656564a265627a7a72315820506ebaec22c3a2fbaa56dac3c4247d35f1e3816269cd9ef8f8aba08535f5dc3764736f6c63430005110032",
  "source": "pragma solidity ^0.5.17;\n\n/**\n * Math operations with safety checks\n */\nlibrary SafeMath {\n    /**\n     * @dev Returns the addition of two unsigned integers, reverting on\n     * overflow.\n     *\n     * Counterpart to Solidity's `+` operator.\n     *\n     * Requirements:\n     * - Addition cannot overflow.\n     */\n    function add(uint256 a, uint256 b) internal pure returns (uint256) {\n        uint256 c = a + b;\n        require(c >= a, \"SafeMath: addition overflow\");\n\n        return c;\n    }\n\n    /**\n     * @dev Returns the subtraction of two unsigned integers, reverting on\n     * overflow (when the result is negative).\n     *\n     * Counterpart to Solidity's `-` operator.\n     *\n     * Requirements:\n     * - Subtraction cannot overflow.\n     */\n    function sub(uint256 a, uint256 b) internal pure returns (uint256) {\n        return sub(a, b, \"SafeMath: subtraction overflow\");\n    }\n\n    /**\n     * @dev Returns the subtraction of two unsigned integers, reverting with custom message on\n     * overflow (when the result is negative).\n     *\n     * Counterpart to Solidity's `-` operator.\n     *\n     * Requirements:\n     * - Subtraction cannot overflow.\n     *\n     * _Available since v2.4.0._\n     */\n    function sub(uint256 a, uint256 b, string memory errorMessage) internal pure returns (uint256) {\n        require(b <= a, errorMessage);\n        uint256 c = a - b;\n\n        return c;\n    }\n\n    /**\n     * @dev Returns the multiplication of two unsigned integers, reverting on\n     * overflow.\n     *\n     * Counterpart to Solidity's `*` operator.\n     *\n     * Requirements:\n     * - Multiplication cannot overflow.\n     */\n    function mul(uint256 a, uint256 b) internal pure returns (uint256) {\n        // Gas optimization: this is cheaper than requiring 'a' not being zero, but the\n        // benefit is lost if 'b' is also tested.\n        // See: https://github.com/OpenZeppelin/openzeppelin-contracts/pull/522\n        if (a == 0) {\n            return 0;\n        }\n\n        uint256 c = a * b;\n        require(c / a == b, \"SafeMath: multiplication overflow\");\n\n        return c;\n    }\n\n    /**\n     * @dev Returns the integer division of two unsigned integers. Reverts on\n     * division by zero. The result is rounded towards zero.\n     *\n     * Counterpart to Solidity's `/` operator. Note: this function uses a\n     * `revert` opcode (which leaves remaining gas untouched) while Solidity\n     * uses an invalid opcode to revert (consuming all remaining gas).\n     *\n     * Requirements:\n     * - The divisor cannot be zero.\n     */\n    function div(uint256 a, uint256 b) internal pure returns (uint256) {\n        return div(a, b, \"SafeMath: division by zero\");\n    }\n\n    /**\n     * @dev Returns the integer division of two unsigned integers. Reverts with custom message on\n     * division by zero. The result is rounded towards zero.\n     *\n     * Counterpart to Solidity's `/` operator. Note: this function uses a\n     * `revert` opcode (which leaves remaining gas untouched) while Solidity\n     * uses an invalid opcode to revert (consuming all remaining gas).\n     *\n     * Requirements:\n     * - The divisor cannot be zero.\n     *\n     * _Available since v2.4.0._\n     */\n    function div(uint256 a, uint256 b, string memory errorMessage) internal pure returns (uint256) {\n        // Solidity only automatically asserts when dividing by 0\n        require(b > 0, errorMessage);\n        uint256 c = a / b;\n        // assert(a == b * c + a % b); // There is no case in which this doesn't hold\n\n        return c;\n    }\n\n    /**\n     * @dev Returns the remainder of dividing two unsigned integers. (unsigned integer modulo),\n     * Reverts when dividing by zero.\n     *\n     * Counterpart to Solidity's `%` operator. This function uses a `revert`\n     * opcode (which leaves remaining gas untouched) while Solidity uses an\n     * invalid opcode to revert (consuming all remaining gas).\n     *\n     * Requirements:\n     * - The divisor cannot be zero.\n     */\n    function mod(uint256 a, uint256 b) internal pure returns (uint256) {\n        return mod(a, b, \"SafeMath: modulo by zero\");\n    }\n\n    /**\n     * @dev Returns the remainder of dividing two unsigned integers. (unsigned integer modulo),\n     * Reverts with custom message when dividing by zero.\n     *\n     * Counterpart to Solidity's `%` operator. This function uses a `revert`\n     * opcode (which leaves remaining gas untouched) while Solidity uses an\n     * invalid opcode to revert (consuming all remaining gas).\n     *\n     * Requirements:\n     * - The divisor cannot be zero.\n     *\n     * _Available since v2.4.0._\n     */\n    function mod(uint256 a, uint256 b, string memory errorMessage) internal pure returns (uint256) {\n        require(b != 0, errorMessage);\n        return a % b;\n    }\n}\n\ninterface IERC20 {\n    /**\n     * @dev Returns the amount of tokens in existence.\n     */\n    function totalSupply() external view returns (uint256);\n\n    /**\n     * @dev Returns the amount of tokens owned by `account`.\n     */\n    function balanceOf(address account) external view returns (uint256);\n\n    /**\n     * @dev Moves `amount` tokens from the caller's account to `recipient`.\n     *\n     * Returns a boolean value indicating whether the operation succeeded.\n     *\n     * Emits a {Transfer} event.\n     */\n    function transfer(address recipient, uint256 amount)\n        external\n        returns (bool);\n\n    function mint(address account, uint256 amount) external;\n\n    /**\n     * @dev Returns the remaining number of tokens that `spender` will be\n     * allowed to spend on behalf of `owner` through {transferFrom}. This is\n     * zero by default.\n     *\n     * This value changes when {approve} or {transferFrom} are called.\n     */\n    function allowance(address owner, address spender)\n        external\n        view\n        returns (uint256);\n\n    /**\n     * @dev Sets `amount` as the allowance of `spender` over the caller's tokens.\n     *\n     * Returns a boolean value indicating whether the operation succeeded.\n     *\n     * IMPORTANT: Beware that changing an allowance with this method brings the risk\n     * that someone may use both the old and the new allowance by unfortunate\n     * transaction ordering. One possible solution to mitigate this race\n     * condition is to first reduce the spender's allowance to 0 and set the\n     * desired value afterwards:\n     * https://github.com/ethereum/EIPs/issues/20#issuecomment-263524729\n     *\n     * Emits an {Approval} event.\n     */\n    function approve(address spender, uint256 amount) external returns (bool);\n\n    /**\n     * @dev Moves `amount` tokens from `sender` to `recipient` using the\n     * allowance mechanism. `amount` is then deducted from the caller's\n     * allowance.\n     *\n     * Returns a boolean value indicating whether the operation succeeded.\n     *\n     * Emits a {Transfer} event.\n     */\n    function transferFrom(\n        address sender,\n        address recipient,\n        uint256 amount\n    ) external returns (bool);\n\n    /**\n     * @dev Emitted when `value` tokens are moved from one account (`from`) to\n     * another (`to`).\n     *\n     * Note that `value` may be zero.\n     */\n    event Transfer(address indexed from, address indexed to, uint256 value);\n\n    /**\n     * @dev Emitted when the allowance of a `spender` for an `owner` is set by\n     * a call to {approve}. `value` is the new allowance.\n     */\n    event Approval(\n        address indexed owner,\n        address indexed spender,\n        uint256 value\n    );\n}\n\n// File: @openzeppelin/contracts/utils/Address.sol\n\npragma solidity ^0.5.5;\n\n/**\n * @dev Collection of functions related to the address type\n */\nlibrary Address {\n    /**\n     * @dev Returns true if `account` is a contract.\n     *\n     * This test is non-exhaustive, and there may be false-negatives: during the\n     * execution of a contract's constructor, its address will be reported as\n     * not containing a contract.\n     *\n     * IMPORTANT: It is unsafe to assume that an address for which this\n     * function returns false is an externally-owned account (EOA) and not a\n     * contract.\n     */\n    function isContract(address account) internal view returns (bool) {\n        // This method relies in extcodesize, which returns 0 for contracts in\n        // construction, since the code is only stored at the end of the\n        // constructor execution.\n\n        // According to EIP-1052, 0x0 is the value returned for not-yet created accounts\n        // and 0xc5d2460186f7233c927e7db2dcc703c0e500b653ca82273b7bfad8045d85a470 is returned\n        // for accounts without code, i.e. `keccak256('')`\n        bytes32 codehash;\n\n            bytes32 accountHash\n         = 0xc5d2460186f7233c927e7db2dcc703c0e500b653ca82273b7bfad8045d85a470;\n        // solhint-disable-next-line no-inline-assembly\n        assembly {\n            codehash := extcodehash(account)\n        }\n        return (codehash != 0x0 && codehash != accountHash);\n    }\n\n    /**\n     * @dev Converts an `address` into `address payable`. Note that this is\n     * simply a type cast: the actual underlying value is not changed.\n     *\n     * _Available since v2.4.0._\n     */\n    function toPayable(address account)\n        internal\n        pure\n        returns (address payable)\n    {\n        return address(uint160(account));\n    }\n\n    /**\n     * @dev Replacement for Solidity's `transfer`: sends `amount` wei to\n     * `recipient`, forwarding all available gas and reverting on errors.\n     *\n     * https://eips.ethereum.org/EIPS/eip-1884[EIP1884] increases the gas cost\n     * of certain opcodes, possibly making contracts go over the 2300 gas limit\n     * imposed by `transfer`, making them unable to receive funds via\n     * `transfer`. {sendValue} removes this limitation.\n     *\n     * https://diligence.consensys.net/posts/2019/09/stop-using-soliditys-transfer-now/[Learn more].\n     *\n     * IMPORTANT: because control is transferred to `recipient`, care must be\n     * taken to not create reentrancy vulnerabilities. Consider using\n     * {ReentrancyGuard} or the\n     * https://solidity.readthedocs.io/en/v0.5.11/security-considerations.html#use-the-checks-effects-interactions-pattern[checks-effects-interactions pattern].\n     *\n     * _Available since v2.4.0._\n     */\n    function sendValue(address payable recipient, uint256 amount) internal {\n        require(\n            address(this).balance >= amount,\n            \"Address: insufficient balance\"\n        );\n\n        // solhint-disable-next-line avoid-call-value\n        (bool success, ) = recipient.call.value(amount)(\"\");\n        require(\n            success,\n            \"Address: unable to send value, recipient may have reverted\"\n        );\n    }\n}\n\n// File: @openzeppelin/contracts/token/ERC20/SafeERC20.sol\n\npragma solidity ^0.5.0;\n\n/**\n * @title SafeERC20\n * @dev Wrappers around ERC20 operations that throw on failure (when the token\n * contract returns false). Tokens that return no value (and instead revert or\n * throw on failure) are also supported, non-reverting calls are assumed to be\n * successful.\n * To use this library you can add a `using SafeERC20 for ERC20;` statement to your contract,\n * which allows you to call the safe operations as `token.safeTransfer(...)`, etc.\n */\nlibrary SafeERC20 {\n    using SafeMath for uint256;\n    using Address for address;\n\n    function safeTransfer(\n        IERC20 token,\n        address to,\n        uint256 value\n    ) internal {\n        callOptionalReturn(\n            token,\n            abi.encodeWithSelector(token.transfer.selector, to, value)\n        );\n    }\n\n    function safeTransferFrom(\n        IERC20 token,\n        address from,\n        address to,\n        uint256 value\n    ) internal {\n        callOptionalReturn(\n            token,\n            abi.encodeWithSelector(token.transferFrom.selector, from, to, value)\n        );\n    }\n\n    function safeApprove(\n        IERC20 token,\n        address spender,\n        uint256 value\n    ) internal {\n        // safeApprove should only be called when setting an initial allowance,\n        // or when resetting it to zero. To increase and decrease it, use\n        // 'safeIncreaseAllowance' and 'safeDecreaseAllowance'\n        // solhint-disable-next-line max-line-length\n        require(\n            (value == 0) || (token.allowance(address(this), spender) == 0),\n            \"SafeERC20: approve from non-zero to non-zero allowance\"\n        );\n        callOptionalReturn(\n            token,\n            abi.encodeWithSelector(token.approve.selector, spender, value)\n        );\n    }\n\n    function safeIncreaseAllowance(\n        IERC20 token,\n        address spender,\n        uint256 value\n    ) internal {\n        uint256 newAllowance = token.allowance(address(this), spender).add(\n            value\n        );\n        callOptionalReturn(\n            token,\n            abi.encodeWithSelector(\n                token.approve.selector,\n                spender,\n                newAllowance\n            )\n        );\n    }\n\n    function safeDecreaseAllowance(\n        IERC20 token,\n        address spender,\n        uint256 value\n    ) internal {\n        uint256 newAllowance = token.allowance(address(this), spender).sub(\n            value,\n            \"SafeERC20: decreased allowance below zero\"\n        );\n        callOptionalReturn(\n            token,\n            abi.encodeWithSelector(\n                token.approve.selector,\n                spender,\n                newAllowance\n            )\n        );\n    }\n\n    /**\n     * @dev Imitates a Solidity high-level call (i.e. a regular function call to a contract), relaxing the requirement\n     * on the return value: the return value is optional (but if data is returned, it must not be false).\n     * @param token The token targeted by the call.\n     * @param data The call data (encoded using abi.encode or one of its variants).\n     */\n    function callOptionalReturn(IERC20 token, bytes memory data) private {\n        // We need to perform a low level call here, to bypass Solidity's return data size checking mechanism, since\n        // we're implementing it ourselves.\n\n        // A Solidity high level call has three parts:\n        //  1. The target address is checked to verify it contains contract code\n        //  2. The call itself is made, and success asserted\n        //  3. The return value is decoded, which in turn checks the size of the returned data.\n        // solhint-disable-next-line max-line-length\n        require(address(token).isContract(), \"SafeERC20: call to non-contract\");\n\n        // solhint-disable-next-line avoid-low-level-calls\n        (bool success, bytes memory returndata) = address(token).call(data);\n        require(success, \"SafeERC20: low-level call failed\");\n\n        if (returndata.length > 0) {\n            // Return data is optional\n            // solhint-disable-next-line max-line-length\n            require(\n                abi.decode(returndata, (bool)),\n                \"SafeERC20: ERC20 operation did not succeed\"\n            );\n        }\n    }\n}\n\ncontract Context {\n    // Empty internal constructor, to prevent people from mistakenly deploying\n    // an instance of this contract, which should be used via inheritance.\n    constructor () internal { }\n    // solhint-disable-previous-line no-empty-blocks\n\n    function _msgSender() internal view returns (address payable) {\n        return msg.sender;\n    }\n\n    function _msgData() internal view returns (bytes memory) {\n        this; // silence state mutability warning without generating bytecode - see https://github.com/ethereum/solidity/issues/2691\n        return msg.data;\n    }\n}\n\ncontract Ownable is Context {\n    address private _owner;\n\n    event OwnershipTransferred(address indexed previousOwner, address indexed newOwner);\n\n    /**\n     * @dev Initializes the contract setting the deployer as the initial owner.\n     */\n    constructor () internal {\n        _owner = _msgSender();\n        emit OwnershipTransferred(address(0), _owner);\n    }\n\n    /**\n     * @dev Returns the address of the current owner.\n     */\n    function owner() public view returns (address) {\n        return _owner;\n    }\n\n    /**\n     * @dev Throws if called by any account other than the owner.\n     */\n    modifier onlyOwner() {\n        require(isOwner(), \"Ownable: caller is not the owner\");\n        _;\n    }\n\n    /**\n     * @dev Returns true if the caller is the current owner.\n     */\n    function isOwner() public view returns (bool) {\n        return _msgSender() == _owner;\n    }\n\n    /**\n     * @dev Leaves the contract without owner. It will not be possible to call\n     * `onlyOwner` functions anymore. Can only be called by the current owner.\n     *\n     * NOTE: Renouncing ownership will leave the contract without an owner,\n     * thereby removing any functionality that is only available to the owner.\n     */\n    function renounceOwnership() public onlyOwner {\n        emit OwnershipTransferred(_owner, address(0));\n        _owner = address(0);\n    }\n\n    /**\n     * @dev Transfers ownership of the contract to a new account (`newOwner`).\n     * Can only be called by the current owner.\n     */\n    function transferOwnership(address newOwner) public onlyOwner {\n        _transferOwnership(newOwner);\n    }\n\n    /**\n     * @dev Transfers ownership of the contract to a new account (`newOwner`).\n     */\n    function _transferOwnership(address newOwner) internal {\n        require(newOwner != address(0), \"Ownable: new owner is the zero address\");\n        emit OwnershipTransferred(_owner, newOwner);\n        _owner = newOwner;\n    }\n}\n\n\n/**\n * Workflow:\n * 1) owner: create token contract\n * 2) owner: create presale contract\n * 3) owner: transfer required amount of tokens to presale contract\n * 4) owner: allow refund from presale contract by calling token.allowRefund\n * 5) <wait for start time>\n * 6) everyone sends ether to the presale contract and receives tokens in exchange\n * 7) <wait until end time or until hard cap is reached>\n * 8) if soft cap is reached:\n * 8.1) beneficiary calls withdraw() and receives\n * 8.2) beneficiary calls withdrawTokens() and receives the rest of non-sold tokens\n * 9) if soft cap is not reached:\n * 9.1) everyone calls refund() and receives their ether back in exchange for tokens\n * 9.2) owner calls withdrawTokens() and receives the refunded tokens\n */\ncontract VotesPlatformTokenPreSale is Ownable {\n    using SafeMath for uint256;\n    using SafeERC20 for IERC20;\n    IERC20 public usdt = IERC20(0x1e323A06F806B76CE96bd103258f2aDAE70957f1);\n    address public collector = 0x8d6Cf44B6cA55550b96C4599B00b47A8EC67C596;\n    string public name = \"VAMP Presale\";\n\n    IERC20 public VAMP = IERC20(0x9D829778f754F99db7056c632f0962501eF9BeEd);\n    address public beneficiary;\n\n    uint256 public hardCap;\n    uint256 public softCap;\n    uint256 public tokensPerUSDT;\n    uint256 public purchaseLimitStageOne = 400 * 1e6;\n    uint256 public purchaseLimitStageTwo = 2000 * 1e6;\n    uint256 public purchaseLimitStageThree = 8000 * 1e6;\n\n    uint256 public tokensSold = 0;\n    uint256 public usdtRaised = 0;\n    uint256 public investorCount = 0;\n    uint256 public weiRefunded = 0;\n\n    uint256 public startTime;\n    uint256 public endTime;\n    uint256 public stageOne = 2 hours;\n    uint256 public stageTwo = 4 hours;\n    uint256 public timeHardCapReached;\n\n    bool public softCapReached = false;\n    bool public crowdsaleFinished = false;\n   // address[] public whitelistAddress;\n    mapping(address => uint256) sold;\n    mapping(address => uint256) whitelistAmount;\n    mapping(address => bool) whitelistedAddress;\n\n    event GoalReached(uint256 amountRaised);\n    event SoftCapReached(uint256 softCap);\n    event NewContribution(\n        address indexed holder,\n        uint256 tokenAmount,\n        uint256 etherAmount\n    );\n    event Refunded(address indexed holder, uint256 amount);\n\n    modifier onlyAfter(uint256 time) {\n        require(now >= time);\n        _;\n    }\n\n    modifier onlyBefore(uint256 time) {\n        require(now <= time);\n        _;\n    }\n\n      modifier claimEnabled() {\n        require(block.timestamp.add(1 hours) >= timeHardCapReached);\n        _;\n    }\n\n    constructor (\n        uint256 _totalTokens, // in token-wei. i.e. number of presale tokens * 10^18\n        uint256 _startTime // start time (unix time, in seconds since 1970-01-01)\n       // address[] memory whitelistAddresses // presale duration in hours\n    ) public {\n        hardCap = 550000 * 1e6;\n        softCap = 250000 * 1e6;\n        tokensPerUSDT = _totalTokens / hardCap;\n        startTime = _startTime;\n        endTime = _startTime + 48 hours;\n       // whitelistAddress = whitelistAddresses;\n    }\n\n    function() payable external {\n        revert(\"not purchased by eth\");\n        // doPurchase(msg.sender);\n    }\n\n  /*  function refund() external onlyAfter(endTime) {\n        require(!softCapReached);\n        uint256 balance = sold[msg.sender];\n        require(balance > 0);\n        uint256 refund = balance / tokensPerUSDT;\n        msg.sender.transfer(refund);\n        delete sold[msg.sender];\n        weiRefunded = weiRefunded.add(refund);\n        token.refundPresale(msg.sender, balance);\n        Refunded(msg.sender, refund);\n    }*/\n    \n    function addWhiteListedAddresses(address[] memory _addresses) public onlyOwner {\n        require(_addresses.length > 0);\n        for (uint i = 0; i < _addresses.length; i++) {\n         whitelistedAddress[_addresses[i]] = true;\n    }\n    }\n    \n    function isWhitelisted(address _address) public view returns (bool) {\n        if(whitelistedAddress[_address]) {\n            return true;\n        } else {\n            return false;\n        }\n    }\n    \n        \n    \n\n    function withdrawTokens() public onlyOwner onlyAfter(endTime) {\n        VAMP.safeTransfer(collector, VAMP.balanceOf(address(this)));\n    }\n\n    function claimTokens() public claimEnabled() {\n        require(sold[msg.sender] > 0,\"no more tokens to claim\");\n        VAMP.safeTransfer(msg.sender, sold[msg.sender]);\n        sold[msg.sender] = 0;\n    }\n\n   /* function withdraw() onlyOwner {\n        require(softCapReached);\n        beneficiary.safeTransfer(usdtRaised);\n        token.transfer(beneficiary, token.balanceOf(this));\n        crowdsaleFinished = true;\n    }*/\n\n    function purchase(uint256 amount) public {\n      doPurchase(amount);\n    }\n    function doPurchase(uint256 amount)\n        private\n        onlyAfter(startTime)\n        onlyBefore(endTime)\n    {\n        assert(crowdsaleFinished == false);\n\n        require(usdtRaised.add(amount) <= hardCap,\"cant deposit without triggering hardcap\");\n        if (block.timestamp <= startTime.add(stageOne) && isWhitelisted(msg.sender)) {\n            //first 2 hours\n            uint256 tokens = amount * tokensPerUSDT;\n            if (\n                !softCapReached &&\n                usdtRaised < softCap &&\n                usdtRaised.add(amount) >= softCap\n            ) {\n                softCapReached = true;\n                emit SoftCapReached(softCap);\n            }\n            require(\n                amount <= purchaseLimitStageOne,\n                \"Over purchase limit in stage one\"\n            );\n            require(\n                whitelistAmount[msg.sender].add(amount) <= purchaseLimitStageOne,\n                \"can't purchase more than allowed amount stage one\"\n            );\n            usdt.safeTransferFrom(msg.sender, collector, amount);\n            whitelistAmount[msg.sender] = whitelistAmount[msg.sender].add(\n                amount\n            );\n            usdtRaised = usdtRaised.add(amount);\n            VAMP.safeTransfer(msg.sender,tokens);\n            sold[msg.sender] += tokens;\n            tokensSold = tokensSold.add(tokens);\n        } else if (\n            block.timestamp >= startTime.add(stageOne) &&\n            block.timestamp <= startTime.add(stageTwo) && isWhitelisted(msg.sender)\n        ) {\n            //first 2 - 4 hours\n\n            uint256 tokens = amount * tokensPerUSDT;\n            if (\n                !softCapReached &&\n                usdtRaised < softCap &&\n                usdtRaised.add(amount) >= softCap\n            ) {\n                softCapReached = true;\n                emit SoftCapReached(softCap);\n            }\n            require(\n                amount <= purchaseLimitStageTwo,\n                \"Over purchase limit in stage one\"\n            );\n            require(\n                whitelistAmount[msg.sender].add(amount) <=\n                    purchaseLimitStageTwo + purchaseLimitStageOne,\n                \"can't purchase more than allowed amount stage two\"\n            );\n\n            usdt.safeTransferFrom(msg.sender, collector, amount);\n            whitelistAmount[msg.sender] = whitelistAmount[msg.sender].add(\n                amount\n            );\n            usdtRaised = usdtRaised.add(amount);\n            VAMP.safeTransfer(msg.sender,tokens);\n            sold[msg.sender] += tokens;\n            tokensSold = tokensSold.add(tokens);\n        } else if (block.timestamp > startTime.add(stageTwo)) {\n            //4 - 48 hours\n             require(\n                amount <= purchaseLimitStageThree,\n                \"Over purchase limit in stage three\"\n            );\n               require(\n                sold[msg.sender].add(amount) <=\n                    purchaseLimitStageThree,\n                \"can't purchase more than allowed amount stage three\"\n            );\n            uint256 tokens = amount * tokensPerUSDT;\n          \n            if (\n                !softCapReached &&\n                usdtRaised < softCap &&\n                usdtRaised.add(amount) >= softCap\n            ) {\n                softCapReached = true;\n                emit SoftCapReached(softCap);\n            }\n            usdt.safeTransferFrom(msg.sender, collector, amount);\n            usdtRaised = usdtRaised.add(amount);\n            VAMP.safeTransfer(msg.sender,tokens);\n            sold[msg.sender] += tokens;\n            tokensSold = tokensSold.add(tokens);\n        }\n         if (usdtRaised == hardCap) {\n          timeHardCapReached = block.timestamp;\n          crowdsaleFinished = true;\n        }\n\n    }\n}\n",
  "sourcePath": "/Users/zigaflis/Documents/GitHub/Vampire-protocol-contracts/contracts/presale/presales.sol",
  "compiler": {
    "name": "solc",
    "version": "0.5.17+commit.d19bba13.Emscripten.clang"
  },
  "schemaVersion": "3.2.5",
  "updatedAt": "2020-09-23T11:12:55.388Z",
  "devdoc": {
    "methods": {
      "isOwner()": {
        "details": "Returns true if the caller is the current owner."
      },
      "owner()": {
        "details": "Returns the address of the current owner."
      },
      "renounceOwnership()": {
        "details": "Leaves the contract without owner. It will not be possible to call `onlyOwner` functions anymore. Can only be called by the current owner.     * NOTE: Renouncing ownership will leave the contract without an owner, thereby removing any functionality that is only available to the owner."
      },
      "transferOwnership(address)": {
        "details": "Transfers ownership of the contract to a new account (`newOwner`). Can only be called by the current owner."
      }
    }
  },
  "userdoc": {
    "methods": {},
    "notice": "Workflow: 1) owner: create token contract 2) owner: create presale contract 3) owner: transfer required amount of tokens to presale contract 4) owner: allow refund from presale contract by calling token.allowRefund 5) <wait for start time> 6) everyone sends ether to the presale contract and receives tokens in exchange 7) <wait until end time or until hard cap is reached> 8) if soft cap is reached: 8.1) beneficiary calls withdraw() and receives 8.2) beneficiary calls withdrawTokens() and receives the rest of non-sold tokens 9) if soft cap is not reached: 9.1) everyone calls refund() and receives their ether back in exchange for tokens 9.2) owner calls withdrawTokens() and receives the refunded tokens"
  }
}